:020000040800F2
:10000000100A0020E9010008F1010008F3010008CE
:10001000F5010008F7010008F901000800000000E0
:10002000000000000000000000000000FB010008CC
:10003000FD01000800000000FF01000801020008A7
:10004000030200080302000803020008030200087C
:1000500003020008030200083D14000855140008BC
:100060006D140008A9140008C11400080302000858
:10007000030200080302000803020008030200084C
:10008000030200080302000803020008030200083C
:10009000030200080302000803020008FD14000820
:1000A000030200080302000803020008030200081C
:1000B0001D2400083D2400086124000803020008F4
:1000C00003020008030200080302000803020008FC
:1000D000030200087D240008A5240008C1240008AC
:1000E00003020008030200080302000800F002F8FF
:1000F00000F06AF80AA090E8000C82448344AAF158
:100100000107DA4501D100F05FF8AFF2090EBAE855
:100110000F0013F0010F18BFFB1A43F0010318473B
:10012000DC6D0000FC6D00000A444FF0000C10F87C
:10013000013B13F0070408BF10F8014B1D1108BF65
:1001400010F8015B641E05D010F8016B641E01F805
:10015000016BF9D113F0080F1EBF10F8014BAD1C55
:100160000C1B09D16D1E58BF01F801CBFAD505E073
:1001700014F8016B01F8016B6D1EF9D59142D6D3CD
:10018000704700000023002400250026103A28BFF5
:1001900078C1FBD8520728BF30C148BF0B607047F9
:1001A000662906F08282642900F05680002070479C
:1001B0001FB500F00DFC04000020002105F092FAAC
:1001C000E0601FBD10B510BD00F002FD1146FFF745
:1001D000EFFF03F055FB00F020FD03B4FFF7F2FF43
:1001E00003BC02F0FEF900000948804709480047B7
:1001F000FEE7FEE7FEE7FEE7FEE7FEE7FEE7FEE7D7
:10020000FEE7FEE704480549054A064B7047000033
:10021000BD230008ED00000810040020100A002093
:100220001006002010060020704700000FB41CB517
:10023000084B06AA7B4469460090059800F0AFFB86
:1002400004460020694600F0BDFB20461CBC5DF85A
:1002500014FB00008D0700002DE9F0410646002444
:1002600010687529314616A510D0AFF3008000281C
:1002700002DA404213A507E031688A0701D512A5CA
:1002800002E0490704D511A5012401E0AFF3008085
:1002900000210A2206F1240709E0B0FBF2FCB0FBC2
:1002A000F2F302FB1C00303078541846491C002839
:1002B000F3D123462A463046BDE8F04100F002B9AA
:1002C000000000002D0000002B00000020000000B6
:1002D0002DE9F05F894604464FF0000ADFF874B15B
:1002E000FB44C0F820A02046E1688847002874D06D
:1002F000252806D0D4E901219047206A401C2062BD
:10030000F1E700265F462046E16888472028054639
:1003100007DB312D05D2781910F8200C08B10643FF
:10032000F1E7B00701D526F00406C4F81CA00027A9
:10033000C4F818A02A2D09D0284602F04BF938B38A
:1003400004EB8708303DC8F8185019E059F8041B31
:10035000204604EB87029161E1688847012F05463A
:1003600018D1E069002820DA26F020061DE0D8F830
:10037000180000EB800005EB40003038C8F818008A
:100380002046E1688847054602F024F90028EED1AE
:10039000012F0AD02E2D08D12046E16888477F1C06
:1003A0000546022F46F02006C4DBA069002803DAC8
:1003B000404246F00106A061F00701D026F0100689
:1003C0006C2D0BD0682D09D04C2D39D06A2D35D02D
:1003D000742D35D07A2D33D016E038E0E1682F4601
:1003E00020468847B842054609D16C2F26D04FF4E5
:1003F0008060E168064320468847054604E06C2F8C
:100400001AD04FF4807006430DB3A5F141001928AE
:1004100002D8203546F400664A4629462046266022
:100420004E46FFF7BDFE80B101280BD0F61D26F029
:10043000070000F1080956E74020E4E78020D8E7EC
:100440000020D6E706F104094DE7284652E7206A66
:10045000BDE8F09FCC6A000010B5203AC0F00B80D8
:10046000B1E81850203AA0E81850B1E81850A0E8B8
:100470001850BFF4F5AF5FEA027C24BFB1E8185012
:10048000A0E8185044BF18C918C0BDE810405FEA82
:10049000827C24BF51F8043B40F8043B08BF7047FE
:1004A000D20728BF31F8023B48BF11F8012B28BF03
:1004B00020F8023B48BF00F8012B70477047704797
:1004C000704770472DE9F0470D469946924604461D
:1004D00000F124080168880604D5E06921F01001C4
:1004E000216000E00120A84201DD471B00E0002759
:1004F000A1697A1902EB0900081AA0612078C006E8
:1005000002D42046AFF30080002608E0D4E90121A0
:100510001AF806009047206A401C761C20624E455F
:10052000F4DB2078C0060AD52046AFF3008006E051
:10053000D4E9012130209047206A401C2062381EF7
:10054000A7F10107F4DC07E0D4E9012118F8050060
:100550009047206A401C2062281EA5F10105F3DCAB
:100560002046AFF300802078000602D50220BDE8C7
:10057000F0870120FBE770472DE9FF4F0C461E4630
:100580004FF0FF378BB0D2E90001DDF860800A90B0
:100590008A46C1F30A5505B93D46002108464FF089
:1005A0000000BAF1000F00F4400005DA00EB800013
:1005B0004FF4400101EA50004FEA9059B9F1010FA0
:1005C00000DDB9460A9850EA4A000ED044F61050B1
:1005D000A5F2FF3545432F14B8F1000F1ED0754228
:1005E000291E1EDDC9F100021CE0B8F1010F4FF019
:1005F000000001D0302103E0F24305E02154401C0B
:10060000B042FBDB30460022002121540B99C1F897
:100610000880C1E900200FB0BDE8F08FBD1B6D1C44
:10062000DEE74A4600DA694206A800F05BFA06AB4C
:1006300093E8070003AB83E8070050460A9900F0EF
:1006400035FB8DE80700A0F500501F380090039897
:10065000002D0ADD42F21F014A460844002303A987
:100660000390684600F09EFD09E0A0F500504A4660
:100670001F38002303A90390684600F0A8FD8DE809
:1006800007000004000C03D04FF0FF30410800E0E9
:100690001046B8F1000F03D00022009215461EE06C
:1006A000751E05D400F098F9303262556D1EF9D5EB
:1006B000B3460122084302D000227F1C04E02078C8
:1006C000302801D100227F1E002A099784D01DE026
:1006D000112D07DA00F080F9303262556D1C50EAB6
:1006E0000102F5D1084302D00098C8B10EE0002104
:1006F000681E05E0235C625C63542254401E491C62
:100700008142F7DBAB46A81B401E0990002004F88D
:100710000B000B98099AC0F80880C0E9002B7AE713
:1007200011264FF0000857E72DE9F04F88460446A0
:10073000D21D22F0070191B0D1E90001CDE90A01F3
:1007400001F0D2FE02460B98C00F01D02D2007E029
:100750002068810701D52B2002E0202101EAC0009A
:10076000032A099001D0072A05DB034641462046AB
:1007700000F078F90BE12078800601D5E06900E00F
:100780000620B8F1650F814606D0B8F1660F18D083
:10079000B8F1670F70D131E00020B9F1110F00906E
:1007A00001DB112301E009F101030AAA01A90CA848
:1007B000FFF7E2FEDDE90C70002609F10105834632
:1007C00047E001204B4600904FF000470AAA01A9DC
:1007D0000CA8FFF7D1FEDDE90DB00C995D460026AF
:1007E00010B909F101000D18B9EB050003D4C0F1EF
:1007F000FF3609F10105A5EB09002BE0B9F1010F66
:1008000001DA4FF001090020B9F1110F00904846BC
:1008100001DD112300E003460AAA01A90CA8FFF795
:10082000ABFEDDE90C704D460026834620780007BC
:100830000AD4AB4500DA5D4601A8012D04DD41195B
:1008400011F8011C302907D04F4502DA17F1040FC7
:1008500004DA012082460FE06D1EEEE7002F02DC75
:10086000ED1B3E4403E0781CA84200DD7D1CB81B54
:1008700000F1010A4FF000472078000703D4AA4591
:1008800001DB4FF0FF3A0021B7F1004F0DF14308B3
:100890008DF8431024D002202B23002F01DA7F4251
:1008A0002D230A21021EA0F1010000DC5FB197FB9D
:1008B000F1FC97FBF1F201FB1C7C17460CF1300CAC
:1008C00008F801CDEEE7A8F10100037021880905C1
:1008D00001D5452100E06521A0F1010800F8011CC7
:1008E00009980FA9A1EB0807FF1D00B101204119CC
:1008F00001EBEA70A1693844081A401EA061207813
:10090000C00602D42046AFF30080099828B1D4E98C
:1009100001219047206A401C20622078C00622D521
:100920002046AFF300801EE0002E04DBB34502DD5D
:1009300001A8805D00E03020D4E901219047206AC1
:10094000401C2062761CAAF101005FEA000A0AD16D
:1009500000F03EF8C0680168405CD4E9012190478E
:10096000206A401C2062281EA5F10105DCDC07E09E
:10097000D4E9012118F8010B9047206A401C20623D
:10098000381EA7F10107F3DC2046AFF300800320F7
:1009900011B041E601694A1C02610878704700B550
:1009A0008FB0CDE901310021059105497944CDE9A8
:1009B000031011466846FFF78BFC0FB000BD000026
:1009C000E5FFFFFF0A6802F8010B0A6070470000AC
:1009D00000487047CC03002030B5B0F10A024FEA5E
:1009E000900E71F100034EEA817EB0EB0E0061EBD8
:1009F00091014FEA101E4EEA017E10EB0E0041EB12
:100A000011114FEA102E4EEA016E10EB0E0041EB71
:100A100011214FEA104E4EEA014E10EB0E0041EB51
:100A20001141401841F100014FEAD00040EA417005
:100A30004FEAD10110EB80054FEA810444EA90743B
:100A400044EB01046D1944EB0404521BA3414FF025
:100A5000000348BF0A3200D530BD401C41F10001FF
:100A600030BD00002DE9F0411F4604460326016811
:100A7000072A01F4006004DB08B116A505E016A5FD
:100A800003E008B115A500E015A521F010002060D5
:100A9000A069C01EA0610FB1401EA0612046AFF347
:100AA00000804FB1D4E9012138469047206A401CAC
:100AB0002062C01C206206E0206AFAE7D4E9012126
:100AC00015F8010B9047761EF8D22046AFF3008050
:100AD000BDE8F0814E414E006E616E00494E460009
:100AE000696E66002DE9F047814616468AB03548A2
:100AF00078440DC88DE80D0032487844801C03AC62
:100B00000DC884E80D0041F69B300844372190FB66
:100B1000F1F290FBF1F5A5F1800501FB12041B3CFD
:100B200002D56442012000E00020DFF898A0804652
:100B30000027FA44AAF1BE0A0EE0E0070AD03246C6
:100B4000684607EB470101230AEB810100F03FFBF8
:100B50008DE8070064107F1C002CEED1194F7F44F4
:100B6000AE3F19E0E80715D007EB04100DF1180AA5
:100B700090E80E008AE80E00C068F04201D1981992
:100B800008903246012306A903A800F020FB03AB1E
:100B900083E807006D10641C002DE3D14FF00103C2
:100BA00032466946B8F1000F03A802D000F0FAFA05
:100BB00001E000F00CFBC9E90001C9F808200AB007
:100BC000BDE8F087F063000000487047AC030020E8
:100BD0007546FFF7F9FFAE4605006946534620F01B
:100BE0000700854618B020B5FFF70CFBBDE8204094
:100BF0004FF000064FF000074FF000084FF0000BD9
:100C000021F00701AC46ACE8C009ACE8C009ACE88B
:100C1000C009ACE8C0098D46704710B50446AFF373
:100C200000802046BDE81040FFF7D7BA4FF0013CE6
:100C300050F8042B51F8043B9A4221D1A2EB0C034B
:100C4000934313EACC1317D150F8042B51F8043B0B
:100C50009A4215D1A2EB0C03934313EACC130BD1A8
:100C600050F8042B51F8043B9A4209D1A2EB0C0333
:100C7000934313EACC13DBD04FF00000704700BF62
:100C8000D01A01BAB1FA81F101F0180122FA01F08B
:100C9000CB40C1F12001DBB2C0B2C01A2CFA01F383
:100CA000D11A914311EAC311E6D170475FEA400CB3
:100CB00008BF91F0000F4FEA8C234FEAC12243EAAC
:100CC00051514FEA1C5018BF00F5F0404FEA300078
:100CD00018BF41F000415FEA6C5C00F02980BCF174
:100CE000FF3F08BF40F080407047130C06BF12045E
:100CF0004FF0100C4FF0000C130E04BF12020CF159
:100D0000080C130F04BF12010CF1040C930F04BF65
:100D100092000CF1020CD30F04BF52000CF1010C35
:100D200011464FF00002A0F11F00A0EB0C0070472D
:100D300011F0004F08BF704731F000413FF4D5AFCC
:100D40000B0C06BF09044FF0100C4FF0000C0B0EFB
:100D500004BF09020CF1080C0B0F04BF09010CF1D0
:100D6000040C8B0F04BF89000CF1020CCB0F04BFE5
:100D700049000CF1010CCCF12003A0EB0C0022FA8D
:100D800003F302FA0CF241EA030100F1010070479B
:100D900020F07F4C80EA030023F07F47ACEB070391
:100DA00003F57C5300F0004003F1FF032DE9804977
:100DB0004FEA154B09B44FEA144325EA0B4E24EAD7
:100DC00003480FF2042606EB132749083E785FEA32
:100DD000320203FB0667C7F5000707FB06F64FEA7A
:100DE00054374FEAD64606F1020607FB066CCCF1F3
:100DF000005C4FEA1C472CEA074C07FB06F40CFB8F
:100E000006F504EB15464FEA961634BF00204FF066
:100E100000404FEAD13706FB07FC4FEA1C4C0CFBA5
:100E20000BF7D21B03FB0CF761EB07010CFB0EF772
:100E3000B0EB074072EB17420CFB08F734BFA2EB94
:100E40000742B2EB074261EB17414FEA0C444FEA0D
:100E5000910706FB07FC4FEA1C4C0CFB0BF7B0EBB1
:100E6000C74072EB573203FB0CF734BFA2EBC7420B
:100E7000B2EBC74261EB57310CFB0EF7B0EBC7008A
:100E800072EB57720CFB08F734BFA2EBC702B2EB50
:100E9000C70261EB5771039F4FEA816141EA9211EA
:100EA00004EBCC044FEAD1374FEA826206FB07FC21
:100EB00042EA90124FEA80604FEA1C4C0CFB0BF7A1
:100EC000D21B03FB0CF761EB07010CFB0EF7B0EB39
:100ED000074072EB17420CFB08F734BFA2EB074246
:100EE000B2EB074261EB17414FEA8C554FEA91078D
:100EF00004EB9C2406FB07FC4FEA1C4C0CFB0BF795
:100F0000B0EBC74072EB573203FB0CF734BFA2EBD8
:100F1000C742B2EBC74261EB57310CFB0EF7B0EBA7
:100F2000C70072EB57720CFB08F734BFA2EBC70285
:100F3000B2EBC70261EB577115EB4C254FEA8161AB
:100F400041EA92114FEA82624FEAD13742EA9012A7
:100F500006FB07FC44F100044FEA80604FEA1C4C9A
:100F60000CFB0BF7D21B03FB0CF761EB07010CFB2F
:100F70000EF7B0EB074072EB17420CFB08F734BFDB
:100F8000A2EB0742B2EB074261EB174115EB1C15D0
:100F90004FEA813141EA92414FEA823242EA90427D
:100FA0004FEA80304FEA0C7644F1000448EA0343EC
:100FB0004EEA0B484FF0000EB2EB080C71EB030742
:100FC00024BF624639464EEB0E0E4FF0000B001860
:100FD000524149414BEB0B0BB2EB080C71EB030791
:100FE0007BF1000B24BF624639464EEB0E0E4FF0EC
:100FF000000B0018524149414BEB0B0BB2EB080CB4
:1010000071EB03077BF1000B24BF624639464EEBC0
:101010000E0E51EA020718BF46F0010616EB0E76D7
:1010200055F1000254F1000103D5BDE88901BDE886
:101030000088BDE88901BDE80048B619524141EB7E
:101040000101A3F10103704780807F7E7D7C7B7A64
:101050007978777676757473727171706F6E6E6D64
:101060006C6C6B6A6A69686867666665646463630A
:1010700062616160605F5F5E5E5D5D5C5C5B5B5A90
:101080005A595958585757565655555554545353FD
:1010900052525251515050504F4F4F4E4E4D4D4D58
:1010A0004C4C4C4B4B4B4A4A4A49494948484847A3
:1010B00047474746464645454544444444434343E1
:1010C0004342424242414141002B9C4630D477008A
:1010D0002BD01CB54FEA370703B44FF010004FF088
:1010E0001001BAF1000F06D0BCF1000FDCBF40F0D8
:1010F000080040F008014FF000000FBCBDE81040B0
:101100000BF1010BBBF1010F08BF5FEA170722BF0C
:1011100012F1010211F101014FF0004143F100030E
:1011200000F0004043EA00007047F9D35708D0E7C9
:1011300046EA064613F1400F4FEA16461FDD13F14B
:10114000200FDFBF16430A46002120335B42BED08A
:10115000C3F1200746EA064602FA07F74FEA1646A9
:1011600046EA0706C3F1200722FA03F201FA07F75D
:1011700021FA03F14FF0000342EA0702A7E746EA2B
:10118000020646EA06464FEA164646EA0106BCBF94
:1011900046EA0646360C4FF000034FF000024FF0CF
:1011A000000194E72DE9804C9A46934670B491E88B
:1011B000380007C831EA400C48BF34EA430C03D575
:1011C000FFF7E6FDFFF780FFF0BCBDE8008C2DE9DE
:1011D000804C9A46934670B491E8380007C810F0E6
:1011E000804F08BF13F0804F03D100F005F8FFF7E0
:1011F0006BFFF0BCBDE8008C20F07F4780EA030065
:1012000023F07F4C07EB0C03A3F57C5300F0004068
:10121000A3F1FE0392F0000F00F0B38095F0000FF1
:1012200000F077802DE901494FEA11404FEA14465A
:1012300021EA004800FB06FC24EA064708FB06F604
:1012400007FB08F800FB07F718EB06484CEB164CB9
:101250004FEA124B18EB07484FEA15464CEB174084
:1012600022EA0B4E0BFB06FC25EA06470EFB06F6B0
:1012700007FB0EFE0BFB07F71EEB064E4CEB164C66
:101280004FF000061EEB074E4CEB174B18EB0B080C
:1012900040F1000018EB0E0B58EB000840F1000085
:1012A0008F1A4FF000013CBFC943661B14BFB5EB5A
:1012B000040C00213CBFC943F61B4FEA17444EEA19
:1012C0008E0E27EA04454FEA1C4704FB07622CEA0E
:1012D000074C05FB07F70CFB05F604FB0CFC16EBB3
:1012E000074642EB174216EB0C4642EB1C421BEB47
:1012F000060658EB0202414146EA9E0601D5BDE8CA
:101300000189B619524141EB0101A3F10103BDE886
:1013100001894FEA14454FEA114724EA054621EABC
:10132000074C05FB07F406FB07F70CFB06F105FB72
:101330000CFC11EB074144EB17444FEA124711EB49
:101340000C4144EB1C4422EA074C05FB07F206FB68
:1013500007F70CFB06F605FB0CFC16EB074642EB09
:10136000174216EB0C4642EB1C456A1854F100017B
:1013700048BF7047B619524141EB0101A3F1010387
:10138000704795F0000F37D04FEA11424FEA1447EB
:1013900021EA024624EA074C02FB07F106FB07F7A5
:1013A0000CFB06F402FB0CFC14EB074441EB174169
:1013B0004FEA154714EB0C4441EB1C4125EA074C5E
:1013C00002FB07F506FB07F70CFB06F602FB0CFC1D
:1013D00016EB074645EB174516EB0C4645EB1C4252
:1013E000121951F1000148BF7047B619524141EB43
:1013F0000101A3F1010370474FEA14454FEA114779
:1014000024EA054621EA074C05FB07F106FB07F72E
:101410000CFB06F24FF0000605FB0CFC12EB07423A
:1014200041EB174112EB0C4251EB1C4148BF704796
:10143000921841EB0101A3F10103704704480068D1
:1014400000F0010010B10120014908607047000060
:10145000140401400448006800F0020010B10220AA
:1014600001490860704700001404014010B50C48A1
:10147000006800F0040090B10321002002F056F84B
:1014800028B108480068401E0649086004E0054885
:101490000068401C0349086004200149086010BD31
:1014A000140401406C0000200448006800F00800AB
:1014B00010B1082001490860704700001404014081
:1014C00010B50C48006800F0100090B10521002014
:1014D00002F02CF828B108480068401C0649086052
:1014E00004E005480068401E0349086010200149D7
:1014F000086010BD14040140700000202DE9F84F71
:101500009548006800F0200010B120209249086042
:101510009148006800F0400010B140208E490860FA
:101520008D48006800F0800000287DD000F0E0FBCE
:1015300000F044F98948B0F9000004F0D9FE0646ED
:10154000874904F0D7FD0546864904F031FF04467B
:1015500085480168204604F05FFD834908608348A0
:10156000B0F9000004F0C4FE06467D4904F0C2FD57
:1015700005467C4904F01CFF04467D48016820466E
:1015800004F04AFD7A4908607A48B0F9000004F096
:10159000AFFE0646724904F0ADFD0546714904F000
:1015A00007FF044674480168204604F035FD72497F
:1015B00008607248B0F9000004F09AFE8346704853
:1015C000B0F9000004F094FE5946009004F092FD3A
:1015D000824604F0F5FC804601F0BCF806464FF068
:1015E000C042684B04F0F8FA044604F091F86649EA
:1015F00008606248B0F9000004F07AFE8346634850
:10160000B0F9000004F074FE5946009004F072FD39
:10161000824604F0D5FC064601F09CF881F00041BA
:1016200080464FF0C04200E082E0564B04F0D4FA0E
:10163000044604F06DF8564908605448B0F90000BB
:1016400004F056FE83464E48B0F9000004F050FE08
:101650005946009004F04EFD824604F0B1FC8046ED
:1016600001F078F806464FF0C042464B04F0B4FA59
:10167000044604F04DF8474908604748B0F90000B7
:1016800004F036FE009004F09BFC06460F464348EB
:10169000B0F9000004F02CFE009004F091FC8046AC
:1016A00032463B4601F066F904464FF0C042354BE6
:1016B00004F092FA824604F02BF839490860274872
:1016C000B0F9000004F014FE0546254904F012FDAF
:1016D000044622462C480168324800F069FA324933
:1016E00008602248B0F9000004F002FE05461C49DB
:1016F00004F000FD04462246254801682B4800F00E
:1017000057FA2B4908601B48B0F9000004F0F0FDBF
:101710000546134904F0EEFC0446224620480168C1
:10172000244800F045FA2449086080200A490860EE
:101730000948006800F4807018B14FF480700649C1
:1017400008600548006800F4007018B14FF400709C
:1017500001490860BDE8F88F140401405E010020D3
:10176000333383410AD7A33B64010020600100208A
:1017700068010020620100206C0100205C01002053
:101780005A010020E3A54C407001002058010020C0
:1017900074010020780100208A01002088010020C7
:1017A00090010020B80000207C010020E80000200B
:1017B00080010020880000208401002070B5364898
:1017C000007898BB03213548007802F01EF80446E3
:1017D00004213248007802F018F8054645EA042052
:1017E00000B22F49088007212C48007802F00DF83C
:1017F000044608212948007802F007F8054645EA22
:10180000042000B22749088005212448007801F00F
:10181000FCFF044606212148007801F0F6FF05464A
:1018200045EA042000B22049088033E0FFE70021A8
:101830001A48007801F0E9FF0546012117480078B1
:1018400001F0E3FF044645EA042000B21449088091
:1018500002211248007801F0D8FF054603210F4805
:10186000007801F0D2FF044645EA042000B20D4999
:10187000088004210948007801F0C7FF05460521CA
:101880000648007801F0C1FF044645EA042000B292
:101890000549088070BD00009501002094010020DA
:1018A000880100208A0100208C01002070B53C20B6
:1018B000234908700A2101F0A8FF04460B213C20AF
:1018C00001F0A3FF05460C213C2001F09EFF0646D7
:1018D000482C1CD1342D1AD1332E18D1002019498F
:1018E00008703C20164908707822002114480078BE
:1018F00001F0ADFF202201211148007801F0A7FF7F
:10190000002202210E48007801F0A1FF17E001201B
:101910000C4908701A200A49087001220B21084856
:10192000007801F094FF00220A210548007801F0B8
:101930008EFF1D2209210248007801F088FF70BD4A
:10194000940100209501002010B5022206210120FB
:1019500001F0FEFD02220721012001F0F9FD012224
:101960000721104601F0C6FE01220621104601F0B3
:10197000C1FE10BD10B501220721104601F0BAFECC
:10198000012001F0CDFB01220621104601F0B2FE3C
:10199000012001F0C5FB00220621012001F0AAFE72
:1019A00010BD70B5002501220721104601F0A2FEEE
:1019B000002418E000220621012001F09BFE0120F6
:1019C00001F0AEFB01220621104601F093FE072133
:1019D000012001F0ABFD10B1802020410543012022
:1019E00001F09EFB641C082CE4DB00220621012090
:1019F00001F080FE284670BD70B50546002422E047
:101A000080202041284028B101220721104601F002
:101A100071FE04E000220721012001F06BFE01208D
:101A200001F07EFB01220621104601F063FE012039
:101A300001F076FB00220621012001F05BFE01206F
:101A400001F06EFB641C082CDADB70BD10B50122BE
:101A50000721104601F04EFE01220621104601F03A
:101A600049FE012001F05CFB00220721012001F06A
:101A700041FE012001F054FB00220621012001F06B
:101A800039FE10BD10B500220721012001F032FE01
:101A900001220621104601F02DFE012001F040FB3D
:101AA00001220721104601F025FE012001F038FB3C
:101AB00010BD70B5002401220721104601F01AFE66
:101AC000012001F02DFB01220621104601F012FE3B
:101AD000012001F025FB0AE0601CC4B2322C03DDBA
:101AE000FFF7D0FF012070BD012001F019FB072195
:101AF000012001F01BFD0028EED10721012001F09B
:101B000015FD054600220621012001F0F3FD2846BF
:101B1000E9E7000010B501224FF4E131104603F06F
:101B2000F7FC1D48008820F020001B4908801BA0FE
:101B300002F012F80A2001F0E7FA00231A461946CB
:101B4000184601F029FA642001F0DEFA022000F0C4
:101B500021FC642001F0D8FA142000F0C1FB6420BD
:101B600001F0D2FA0D2000F0CFFB642001F0CCFA96
:101B70000E4800F0DDFB642001F0C6FA4FF4C860A7
:101B800000F0F2FB642001F0BFFA00231A46194668
:101B9000184601F001FA10BD0C4400402475706C29
:101BA0006F61643A302C302C30230000000040423A
:101BB0002DE9F05F04460D4616463046E16A04F012
:101BC000FFFC8046E16904F0F3FB0746A16A04F0DC
:101BD00023FAA062E06AE062D4E9060104F0E8FBBF
:101BE0008246E16904F0E4FB8046D4E9040104F094
:101BF00013FA8346E16904F0DBFB8246E16804F0F6
:101C0000D4FC8146414604F007FA0746216804F0F7
:101C100003FAE060D4E9060104F0CAFB0746216933
:101C200004F0C3FC2061D4E9060104F0C1FB0746BF
:101C3000616904F0BAFC60616168A06904F0ECF9C4
:101C4000A061D4E9021004F0E7F907463946E068DC
:101C500004F050FA2062D4E9021004F0DDF90746DE
:101C60003946606904F046FA60622846A16A04F0C9
:101C7000A7FC8046216A04F09BFB0746A16A04F09A
:101C8000CBF9A0622846A16A04F09AFC8046616AFA
:101C900004F08EFB0746E16A04F0BEF9E0624FF003
:101CA0007E50216A04F08CFC0746E16804F080FB5A
:101CB000E0604FF07E50216A04F082FC0746216903
:101CC00004F076FB2061616AE06804F071FB07466E
:101CD000616904F06AFC6061616A206904F068FB74
:101CE0000746A16904F061FCA061A06ABDE8F09F0D
:101CF00070B53B2000F072F804463C2000F06EF80E
:101D0000054645EA042000B2214908803D2000F044
:101D100065F804463E2000F061F8054645EA0420D7
:101D200000B21C4908803F2000F058F804464020CB
:101D300000F054F8054645EA042000B21649088030
:101D4000432000F04BF80446442000F047F80546D5
:101D500045EA042000B211490880452000F03EF811
:101D60000446462000F03AF8054645EA042000B251
:101D70000B490880472000F031F80446482000F065
:101D80002DF8054645EA042000B20649088070BDDA
:101D9000580100205A0100205C0100205E01002053
:101DA000600100206201002010B502216B2000F0CC
:101DB00035F82721192000F031F800211A2000F011
:101DC0002DF818211B2000F029F800211C2000F01C
:101DD00025F80121382000F021F810BD70B5044627
:101DE000FFF734FED020FFF707FEFFF762FE204624
:101DF000FFF702FEFFF75DFEFFF744FEFFF726FE4A
:101E0000D120FFF7F9FDFFF754FEFFF7CAFD0546A5
:101E1000FFF7B0FDFFF736FE284670BD70B50546EA
:101E20000C46FFF713FED020FFF7E6FDFFF741FE5B
:101E30002846FFF7E1FDFFF73CFE2046FFF7DCFDFB
:101E4000FFF737FEFFF71EFE70BD000001460723B7
:101E50008B431A02054B18684FF6FF0318401043D6
:101E6000034B1843014B1860704700000CED00E075
:101E70000000FA0570B505460C460420FFF7E6FFA2
:101E80000E48005D00F0010646EA0510C1B20B489D
:101E900001552046E21704EBD2625211A4EB421323
:101EA00001229A402146E31704EBD3635B119B00A8
:101EB00003F1E023C3F8002170BD000000E400E05E
:101EC00070B500240EE00021204600F0D1F8002576
:101ED00004E0002000F05EF9681CC5B2802DF8DB3C
:101EE000601CC4B2082CEEDB70BD10B502220821C4
:101EF000012001F02DFB02220921012001F028FB25
:101F000001220821104601F0F5FB012209211046AB
:101F100001F0F0FB10BD70B50546002413E08020F1
:101F2000204100EA05020921012001F0E3FB012222
:101F30000821104601F0DEFB00220821012001F0FB
:101F4000D9FB601CC4B2082CE9DB01220821104631
:101F500001F0D0FB00220821012001F0CBFB70BD75
:101F600010B501220921104601F0C4FB012208210D
:101F7000104601F0BFFB00220921012001F0BAFB4D
:101F800000220821012001F0B5FB10BD10B5002290
:101F90000921012001F0AEFB01220821104601F0C9
:101FA000A9FB01220921104601F0A4FB10BD70B568
:101FB000002406E0002500E06D1CB5F57A7FFBD318
:101FC000641CB4F57A7FF5D3FFF78FFFAE2000F0E5
:101FD000D1F8D52000F0CEF8802000F0CBF8A82072
:101FE00000F0C8F83F2000F0C5F8D32000F0C2F898
:101FF000002000F0BFF8402000F0BCF8A12000F065
:10200000B9F8C82000F0B6F8DA2000F0B3F81220D2
:1020100000F0B0F8812000F0ADF8CF2000F0AAF871
:10202000D92000F0A7F8F12000F0A4F8DB2000F0A0
:10203000A1F8302000F09EF8A42000F09BF8A62024
:1020400000F098F88D2000F095F8142000F092F838
:10205000AF2000F08FF8FFF733FF70BD10B50246D8
:10206000012000E050430B1EA1F10101FAD110BD87
:1020700070B505460C4645F0B00000F07BF8102125
:1020800041EA141000F076F804F00F0000F072F846
:1020900070BD00002DE9F04105460E461746721E40
:1020A000D206110E6A1E5206100EFFF7E1FF002441
:1020B00009E0A7F12001134A02EB0111085D00F0CD
:1020C00069F8601CC4B2082CF3DB721ED206110E34
:1020D0006A1E012303EB4202D0B2FFF7C9FF0024BE
:1020E0000BE0A7F12001074A02EB011204F10801FD
:1020F000505C00F04FF8601CC4B2082CF1DBBDE866
:10210000F0810000C06700082DE9F04780460E46C8
:1021100017461D46002415E0281B411E0A20FFF724
:102120009DFFB7FBF0F00A21B0FBF1F201FB1200BA
:1021300000F130093019C1B24A464046FFF7AAFF04
:10214000601CC4B2AC42E7DBBDE8F0872DE9F0418A
:1021500007460E461546002407E02A5D3019C1B235
:102160003846FFF797FF601CC4B2285D0028F4D101
:10217000BDE8F08110B50446FFF7F2FE7820FFF7C6
:10218000CAFE0020FFF7C7FE2046FFF7C4FEFFF798
:10219000FDFE10BD10B50446FFF7E2FE7820FFF704
:1021A000BAFE4020FFF7B7FE2046FFF7B4FEFFF768
:1021B000EDFE10BD70B5044625460D480068284464
:1021C0000B490860002005EB450100EB810009493F
:1021D00091F90010691A002202FB010668B2054954
:1021E000087050225142304601F0F9FA70BD0000EB
:1021F000840000208000002010B500F001F810BD20
:102200000CB50020019000903348006840F4803005
:102210003149086000BF3048006800F40030009089
:102220000198401C0190009818B90198B0F5A06F72
:10223000F1D12948006800F4003010B1012000906D
:1022400001E0002000900098012843D12348006855
:1022500040F01000214908600846006820F00300A3
:1022600008600846006840F0020008601A484068AC
:10227000194948600846406848600846406840F48C
:10228000806048600846406820F47C10486008463A
:10229000406840F4E81048600846006840F08070EC
:1022A000086000BF0C48006800F000700028F9D0FA
:1022B0000948406820F00300074948600846406824
:1022C00040F00200486000BF0348406800F00C0086
:1022D0000828F9D10CBD0000001002400020024087
:1022E00010B50446224604A10648FDF79FFF0548A5
:1022F00001F032FC10BD0000246D70686173653A16
:1023000025642300A802002010B50446224604A13B
:102310000648FDF78BFF054801F01EFC10BD0000CC
:10232000246D6C696E653A2564230000A8020020C4
:1023300070B50446204603F043FE05462A460B4688
:1023400003A10848FDF772FF064801F005FC70BDC7
:1023500024776469616D657465723A252E3366234E
:1023600000000000A802002010B50446224604A187
:102370000748FDF75BFF064801F0EEFB10BD0000CB
:1023800024646561647A6F6E653A256423000000F9
:10239000A802002010B50446224604A10648FDF715
:1023A00045FF054801F0D8FB10BD0000246D74798D
:1023B00070653A2564230000A802002010B5134878
:1023C000006840F001001149086008464068104963
:1023D00008400E494860084600680E4908400B490D
:1023E00008600846006820F48020086008464068BD
:1023F00020F4FE0048604FF41F008860FFF7FCFEE9
:102400004FF000600449086010BD00000010024059
:102410000000FFF8FFFFF6FE08ED00E04FF08040FF
:10242000008A00F0010038B14FF08040008A20F0AF
:1024300001004FF0804108827047000010B5074846
:10244000008800F0010038B101F036FD0348008833
:1024500020F001000149088010BD00001004004078
:102460000548008800F0010028B10348008820F0EA
:1024700001000149088070471008004070B5084805
:10248000058805F02E0048B10548001D0088C4B23B
:1024900005F0200010B1204602F066FF70BD00007C
:1024A00000380140054A118801F02E0222B1034A8A
:1024B000121D1288D0B200BF7047000000440040D7
:1024C00070B50848058805F02E0048B10548001D84
:1024D0000088C4B205F0200010B1204600F06CFC6A
:1024E00070BD000000480040490050EAC12018BFFC
:1024F00004204A0D18BF40F0010040F2FF72B2EB19
:10250000515F08BF40F00200012808BF0520704756
:102510002DE9F0414F1E00EBC7010446D1E900014F
:1025200015461E4637F006020DD02A46334603F004
:1025300053FB7F1E04EBC703D3E9002303F01AF912
:1025400037F00602F1D1022F25D0042F13D0062F29
:1025500018BFBDE8F0812A46334603F03DFBD4E9BD
:102560000A2303F007F92A46334603F035FBD4E982
:10257000082303F0FFF82A46334603F02DFBD4E985
:10258000062303F0F7F82A46334603F025FBD4E987
:10259000042303F0EFF82A46334603F01DFBD4E989
:1025A000022303F0E7F82A46334603F015FBD4E98B
:1025B0000023BDE8F04103F0DDB8012204F0A9B822
:1025C00003F0D8B8024A0020110704F0A2B80000B6
:1025D00001FDFFFF30380A2801D20120704700209A
:1025E000704700BF70472DE9F04104460D4617467D
:1025F0001E46DDF818800CB9BDE8F08125706770C3
:102600000EB1012000E00020A070A4F80880002096
:1026100060816071A0710EB1042000E001200246CB
:102620003946284600F094FF3946284600F07EFFE0
:1026300020712079E07000BFDEE7014609B9002073
:1026400070474A79002048711046F9E770B5044692
:102650000E4604B970BD6178207800F067FF05462A
:102660002079A84203D0257100206081F2E76089BB
:102670002189884203DA608930446081EAE7E078A2
:10268000A84208D0E570A078A84202D1012060716C
:1026900001E00120A07100BFDCE700B97047818034
:1026A000C280038100BFF9E770B504460D461646A7
:1026B00004B970BD25706670322060804FF4FA70E6
:1026C000A08040F2DC50E08040F6C4102081002061
:1026D000E0600648206162883146284601F052FCDD
:1026E000E188204600F010F800BFE2E70000344324
:1026F00003468B4201DA08467047934201DD1046DB
:10270000FAE71846F8E700002DE9F04104460D46C7
:102710000CB1608808B9BDE8F0812289A1882846FB
:10272000FFF7E6FF054660880949B1FBF0F74CF278
:1027300050306843B0FBF7F64CF25030864200D977
:102740000646B2B26178207801F02AFD00BFE2E7C8
:1027500040420F002DE9F84F04460D4621F000409D
:1027600000917349814211DC7249884201DC06D133
:102770002CB120462946BDE8F84FFFF71EBF6E4832
:10278000002DCCBF6D496E49BDE8F88F6D4981427F
:1027900011DD6D498142D8BF4FF0FF366DDD204617
:1027A0002946FFF7A1FE042808BFFFF70BFF2046CC
:1027B0002946BDE8F88F6549654F25F000458142FF
:1027C00033DD6449814219DD002632464FF08043F3
:1027D0002046294602F0CEFF80468A460122204646
:1027E000294603F096FF00223B4603F0FFFA4246DB
:1027F000534603F06FF804460D463EE001260022E2
:10280000BA463B462046294602F0B4FF80460F46B2
:10281000002253462046294603F0E8FA42463B464A
:1028200003F058F804460D4627E04B4981421BDD72
:10283000DFF828A10226002253462046294603F04D
:10284000CBF900223B4602F095FF80460F4600225E
:1028500053462046294603F0C9FA42463B4603F058
:1028600039F804460D4608E0032622462B46002090
:102870003B4903F02FF804460D4622462B461046EE
:10288000194603F0A9F98B46824602460B4603F02F
:10289000A3F907460246334888460B46062178448A
:1028A000FFF736FE52465B4603F096F982462E4805
:1028B0008B463A46434605217844FFF729FE3A46BF
:1028C000434603F089F902460B46002E504659460E
:1028D0000CDA02F04FFF22462B4603F07DF901B0DF
:1028E00022462B46BDE8F04F03F074BA02F042FFD7
:1028F00022462B4603F070F91C4A7A4402EBC603C9
:10290000D3E9002303F072FA22462B4603F06EFA55
:10291000174A7A4402EBC603D3E9002303F05AFABC
:10292000009A002AB8BF81F00041BDE8F88F00008E
:10293000000010440000F07F182D4454FB21F93FA3
:10294000FB21F9BF0000DC3F0000203E0000F33F08
:102950000000F03F0000E63F008003400000F83F29
:102960000000F0BF8E4500004C450000EA44000026
:10297000B24400002DE9F04D9446CCF1000423F060
:1029800000464CEA0404524F46EAD4749A468846FC
:1029900021F00042BC4206D8454240EA050442EA22
:1029A000D474BC4204D9BDE8F04D6246FFF708BEBE
:1029B000AAF14055A5F17F6555EA0C040BD002241D
:1029C00004EAAA74434DDFF810E144EAD87452EAED
:1029D000000B04D00CE0BDE8F04DFFF7BBBE002CAF
:1029E00014BF012CBDE8F08D022C30D0032C32D066
:1029F00056EA0C0B0AD0BE4220D1BA4209D126F0C9
:102A0000804622F080423346114617E000291ADB47
:102A100025E0DFF8C8B0FB44002C04BFDBE900016F
:102A2000BDE8F08D012C02BFDBE9000181F000411F
:102A3000BDE8F08D022C0AD0032C0CD0BA4212D182
:102A4000B8F1000F0BDA23482549BDE8F08D284680
:102A50002449BDE8F08D28467146BDE8F08D1D483B
:102A60002149BDE8F08D921B12153C2AC4BF1948BC
:102A70001D490EDCBAF1000FBEBF12F13C0F002061
:102A8000014606DB624602F025FF21F00041FFF718
:102A900061FE002C08BFBDE8F08D012C04BF81F061
:102AA0000041BDE8F08D114A114B022C07D003F014
:102AB0009DF92A46BDE8F04D0A4B03F097B903F0A3
:102AC00095F92A46BDE8F04D064B03F083B90000A6
:102AD0000000F07F182D4454FB2109C0464400003B
:102AE000FB21F9BFFB210940FB21F93F075C1433AF
:102AF00026A6A13C10B5062201210F48FFF7D4FD00
:102B000040F6980340F2DC524FF448710A48FFF750
:102B1000C4FD40F2DC510848FFF7F6FD40F2DC50FE
:102B200006490880002006490860064908600649F1
:102B300008700649086010BD7803002028010020B5
:102B400020010020180100201C0100202401002089
:102B50000248006802490968401A704718010020BD
:102B60002001002010B540F2DC50054908800146E4
:102B70000448FFF7C9FD00200349086010BD0000AC
:102B8000280100207803002024010020014908606A
:102B9000704700002001002070B51C48007828B95B
:102BA0001B4801881B48FFF7AFFD70BD1A4800683D
:102BB0001A490968441AC4EBC40000EB80001849A4
:102BC0000968611A0F2202FB0100642190FBF1F5F4
:102BD0008A005142284600F00DFE054605F2DC5001
:102BE0000B49088040F698024FF448710848008865
:102BF00000F000FE06490880084601880548FFF7F6
:102C000083FD0748046000BFCFE700001C010020DF
:102C10002801002078030020200100201801002056
:102C2000240100202DE9F0410646002424480078C4
:102C300018B924480068BDE8F081214800780728C9
:102C400002DB20480068F6E7002509E00120A840E3
:102C5000304018B11C4850F825000444681CC5B227
:102C6000082DF3DB1648007894FBF0F41448007844
:102C7000032823DB14F1500F20DD502C1EDA06F060
:102C80000F0000F0A9F98046300900F0A5F90746C9
:102C9000B84502DD6FF0C70410E0474501DDC824E8
:102CA0000CE008480068502801DDC82406E005480B
:102CB000006810F1500F01DA6FF0C7042046BAE740
:102CC0002B00002034000020A067000810B501226E
:102CD0004FF4E131022002F01BFC0020044908708F
:102CE00004490870044908800449087010BD0000B8
:102CF0002A0100202B0100202C0100201C010020B3
:102D000030B5012200210023264C2478052C00DA5E
:102D100030BD254C2478242C07D1234C6478422CD8
:102D200003D1214CA4782C2C00D0F1E703201E4CB9
:102D3000245C2D2C02D1021F401C04E01A4C245CA0
:102D40002B2C00D1401C08E0174C245C303C01EBDC
:102D5000810504EB45010123401C124C2478A0425C
:102D600007DA114C245C302C03DB0F4C245C392C2B
:102D7000EADDA3B10B4C2478A04210DA0A4C245CA3
:102D8000232C0CD102FB01F404EB84046400074DF6
:102D90002C600124064D2C700024064D2C8000BFB1
:102DA000B6E700002A0100208C0300201801002053
:102DB0001C0100202C01002010B50446242C0ED14B
:102DC000012017490870002016490870084601784C
:102DD0000078401C134A10701348445410BD10482A
:102DE000007800B9FAE70F480078202805D30020C2
:102DF0000B4908700B490870F0E70A480178007821
:102E0000401C084A107008484454232C06D1FFF790
:102E100077FF0020024908700249087000BFDDE713
:102E20002B0100202A0100208C0300204FF6FF71A7
:102E3000091A0A4A1288914204DD084909880144A6
:102E4000064A118005490988C82905DD0021044A80
:102E50001170C821014A1180704700002C01002028
:102E60001C01002010B51B48007818B1194890F9D2
:102E7000000010BD1848007818B1174890F90000FC
:102E8000F7E716480068502803DD012000F06BFECC
:102E9000EFE71248006810F1500F04DA4FF0FF30EE
:102EA00000F061FEE5E70E480078192805DA0C48C5
:102EB0000078401C0A49087008E0002008490870A2
:102EC00008480078404240B206490870054890F929
:102ED0000000CEE74A000020480000203400002017
:102EE0004C0000204B00002010B504461348007829
:102EF00018B1124890F9000010BD1148007818B1BF
:102F00000F4890F90000F7E71CB1204600F02BFEB7
:102F1000F2E70C480068502803DD012000F023FE92
:102F2000EAE70848006810F1500F04DA4FF0FF306C
:102F300000F019FEE0E74FF0FF30DDE74A00002027
:102F4000480000203400002010B51048006801F04F
:102F50003FFF04460CB1204610BD0D48007818B163
:102F60000B4890F90000F7E70A480068502804DC95
:102F70000848006810F1500F04DA0648006801F0B4
:102F800027FFE9E70020FFF7AFFFE5E7300000206B
:102F900046000020340000202DE9FC4104460D4687
:102FA00016461F462B46224605A10A48CDE9006772
:102FB000FDF73CF9074800F0CFFDBDE8FC810000BB
:102FC000247370643A25642C25642C25642C2564B4
:102FD00023000000A80200200146002004E001F0C8
:102FE00001020244D0B249100029F8D17047000014
:102FF00010B5002200213D4B5B78442B24D10020EA
:1030000016E000EB80039B1D384CE35C302B05D0B1
:1030100000EB80039B1DE35C312B07D100EB8003A9
:103020009B1D324CE35C303B314C2354431CD8B2E3
:103030000828E6DB2F4B1B78FF2B48DA2D4B1B783B
:103040005B1C2C4C237042E0284B5B78412B3DD11C
:1030500000202FE0254B1B5C782B29D1234C831CAF
:10306000E35C3A2B24D1431CE35C312B20DB431C73
:10307000E35C382B1CDC431CE35C313BDAB20021FF
:10308000C31CD8B209E0194B1B5C303B01EB810437
:1030900003EB440399B2431CD8B2144B1B5C302B96
:1030A00003DB124B1B5C392BEDDD134B23F81210A5
:1030B000431CD8B26428CDD3104B1B78FF2B06DA03
:1030C0000E4B1B785B1C0D4C237000E010BD0C4BAD
:1030D0001B78FF2B04DA0A4B1B785B1C084C23700F
:1030E0000023084C237000BFF0E70000140200200A
:1030F0005C0000202D000020780200202E0000201F
:103100002C0000202800002000B5034603E04FF407
:103110007A7000F005F8181EA3F10103F7D100BD85
:1031200000EBC001C9004FF0E02251610021916124
:103130000521116100BF4FF0E021096901F48031E0
:103140000029F8D004214FF0E022116170470000FF
:1031500000B589B001A802F0A3F89DF80600072881
:1031600009DB15480078FF280EDA13480078401C68
:103170001149087008E010480078002804DD0E4866
:103180000078401E0C4908700B480078032811DBBA
:103190000A4800680A490968401AB0F5FA6F09D967
:1031A00006480068064908600020034908700120AD
:1031B00009B000BD0020FBE7120000200400002041
:1031C0001400002070B504460025092C56D2DFE813
:1031D00004F055050F19232D37414B000C21012018
:1031E00000F0A4F9012801D1012500E0002545E007
:1031F0000D21012000F09AF9012801D1012500E0FC
:1032000000253BE00E21012000F090F9012801D1BA
:10321000012500E0002531E00F21012000F086F9B2
:10322000012801D1012500E0002527E00821002028
:1032300000F07CF9012801D1012500E000251DE006
:103240000D21022000F072F9012801D1012500E0D2
:10325000002513E00E21022000F068F9012801D1B9
:10326000012500E0002509E00F21022000F05EF9B1
:10327000012801D1012500E0002500BF00BF28463C
:1032800070BD70B5054640F22714002D05DA2146C1
:103290006FF03B0001F020FD04E06FF03B012046A1
:1032A00001F01AFD70BD02460B46002A05DA5242B3
:1032B0000BB9012000E000200346142092FBF0F13E
:1032C000B1F57A7F01DD4FF47A710BB108B2704726
:1032D000484200B2FBE700002DE9F04704460E46E5
:1032E0001746032194FBF1F0C11700EB917189108F
:1032F000A0EB810189064FEA1168032194FBF1F0EC
:10330000C11700EB9171C1F38705204600F06AF800
:103310003148806940F001002F4988614FEAB1309F
:1033200050F825000F2101FA08F188432B4941F894
:103330002500032094FBF0F100FB114088B103202D
:1033400094FBF0F100FB1140401E012101FA00F056
:1033500000FA08F0214951F8251001431F4840F8B0
:103360002510032094FBF0F1012088401C490968D6
:1033700008431B49086066B9032094FBF0F1012063
:103380008840174908310968084315490831086021
:103390000BE0032094FBF0F10120884010490C3130
:1033A000096808430E490C310860032094FBF0F0D3
:1033B00004280ADC032094FBF0F0801D00F0FF09D4
:1033C00049463846FEF756FD03E017213846FEF71A
:1033D00051FDBDE8F08700000010024008000140E8
:1033E0000004014010B50446182C12D2DFE804F0A6
:1033F0000C12181E242A30363C42484E545A60663D
:103400006C72787E848A909601220021084600F032
:103410009FF889E001220021104600F099F883E02E
:1034200001220021022000F093F87DE001221146E4
:10343000002000F08DF877E001221146104600F0E0
:1034400087F871E001221146022000F081F86BE05C
:1034500001220221002000F07BF865E00122022118
:10346000104600F075F85FE001220221084600F0E6
:103470006FF859E001220321002000F069F853E0C1
:1034800001220321104600F063F84DE001220321E0
:10349000022000F05DF847E001220421002000F046
:1034A00057F841E001220421104600F051F83BE0BA
:1034B00001220421022000F04BF835E00122052111
:1034C000002000F045F82FE001220521104600F011
:1034D0003FF829E001220521022000F039F823E01D
:1034E00001220621002000F033F81DE00122062110
:1034F000104600F02DF817E001220621022000F00E
:1035000027F811E001220721002000F021F80BE04C
:1035100001220721104600F01BF805E001220721D7
:10352000022000F015F800BF00BF10BD10B5024624
:10353000064850F82200806801248C4000EA040309
:103540000BB1012010BD0020FCE70000300100207D
:1035500070B5654CA469042585402C43624DAC616F
:1035600008295DDA614C54F8204024688E000F254C
:10357000B540AC435D4D55F820502C601AB1032A7C
:1035800001D0022A0FD10124944044F003048D009D
:10359000AC40564D55F820502D682C43534D55F8EE
:1035A00020502C609FE0012A01D0042A2AD14F4CE0
:1035B00054F8204024688E000825B5402C434B4D1C
:1035C00055F820502C60012A0ED1484C54F8204068
:1035D000E46801258D4024EA050301248C401C4346
:1035E000424D55F82050EC60042A7CD13F4C54F8F1
:1035F0002040E56801248C40A5433C4C54F8204011
:10360000E56070E0042494408D00AC40374D55F8DF
:1036100020502D682C43354D55F820502C6062E029
:10362000324C54F820406468A1F10805AE000F2523
:10363000B540AC432D4D55F820506C601AB1032AAB
:1036400001D0022A11D10124944044F00304A1F1D5
:103650000805AD00AC40254D55F820506D682C4351
:10366000224D55F820506C603DE0012A01D0042A1B
:103670002AD11E4C54F820406468A1F10805AE0020
:103680000825B5402C43194D55F820506C60012A8F
:103690000CD1174C256801248C4025EA0403012431
:1036A0008C401C43114D55F82050EC60042A1AD16F
:1036B0000E4C54F82040E46801258D40AC430B4D7E
:1036C00055F82050EC600EE004249440A1F1080568
:1036D000AD00AC40054D55F820506D682C43034DAE
:1036E00055F820506C6070BD001002403001002081
:1036F0000C08014030B57AB10D4C54F82040E46814
:1037000001258D4024EA050301248C401C43084D0B
:1037100055F82050EC600AE0054C54F82040E4686D
:1037200001258D40AC43024D55F82050EC6030BD72
:103730003001002010B5FEF707F9FEF735FBFEF764
:10374000B5F8002211461520FFF7C6FD4FF496701C
:10375000FFF7DAFC00200149086010BD6C01002071
:1037600070B506460C46304601F032FB0546002D8A
:1037700006DD09480068A04202DA0748046009E053
:10378000002D07DA044800686142884202DD604289
:103790000149086070BD00003800002008B5142001
:1037A00000230122114600900548FEF71CFF14205B
:1037B00000230622194600900248FEF714FF08BDB8
:1037C00098010020A401002003468B4201DA08463C
:1037D0007047934201DD1046FAE71846F8E70346C2
:1037E0008B4201DA08467047934201DD1046FAE742
:1037F0001846F8E703468B4201DA084670479342C1
:1038000001DD1046FAE71846F8E770B504460D46A4
:10381000FEF71CF92046FEF7EFF8FEF74AF92846B6
:10382000FEF7EAF8FEF745F9FEF72CF9FEF70EF978
:1038300044F00100FEF7E0F8FEF73BF9FEF7B1F8BF
:103840000646FEF797F8FEF71DF9304670BD70B5D5
:1038500006460C461546FEF7F9F83046FEF7CCF85A
:10386000FEF727F92046FEF7C7F8FEF722F92846AB
:10387000FEF7C2F8FEF71DF9FEF704F970BD00006F
:1038800000F0ACFDCCE0674800680A30654908608C
:103890000A20FFF7CBFA0A216348FEF7D7FE0A2178
:1038A0006248FEF7D3FE624800780B2875D2DFE845
:1038B00000F0064453475E4A694D755080005B48EE
:1038C000FEF7BBFE50B15B480078401C59490870B8
:1038D00008460078062801DD022008705248FEF7ED
:1038E000ACFE48B353480078801E052822D2DFE89A
:1038F00000F003090F151B0000F060FE01204C4989
:10390000087018E000F0BEFE03204949087012E07C
:1039100000F04CFF0520464908700CE000F0A4FFC1
:1039200007204349087006E001F002F809204049E9
:10393000087000E000BF00BF4AE000F069FE47E009
:1039400000F0C2FE44E000F059FF41E000F0B6FF95
:103950003EE001F019F83BE03348FEF76EFE28B177
:1039600003203449087000203149087030E02E48A7
:10397000FEF763FE28B104202E49087000202C4970
:10398000087025E02848FEF758FE28B1052029498F
:1039900008700020264908701AE015E02248FEF75A
:1039A0004CFE28B1062023490870002020490870E9
:1039B0000EE01D48FEF741FE28B102201D490870A7
:1039C00000201B49087003E000201949087000BF5F
:1039D00000BF194800680A301749086008460068A7
:1039E000C8281AD300200860114800780A2810D28D
:1039F000DFE800F005080F090F0A0F0B0F0C00F0AD
:103A0000A5F909E000BF00BF00BF00BF00F000F94A
:103A100002E000F0B5F800BF00BF0A20FFF774FB1A
:103A200031E700000400002098010020A4010020DC
:103A300000000020010000202400002010B50446F2
:103A4000094801782046FFF72EFC084908800848FD
:103A5000B0F90030B0F900200846B0F90010B0F914
:103A60000000FFF799FA10BD6800002078000020E0
:103A70007A00002010B50446094801782046FFF777
:103A800012FC084908800846B0F90030B0F900205F
:103A90000548B0F90010B0F90000FFF77DFA10BD3D
:103AA000690000207A0000207800002010B5FEF7A1
:103AB00031F810BD10B501224FF4E131104601F08C
:103AC00027FD0B48008820F02000094908800024C9
:103AD0000AE000231A4619461846FFF75DFA14203B
:103AE000FFF712FB601CC4B2052CF2DB10BD000016
:103AF0000C44004070B505460C46002D08DB012043
:103B000011490870284602F0F3FB1049086007E0ED
:103B100000200D490870684202F0EAFB0B4908607A
:103B2000002C08DB01200A490870204602F0E0FB67
:103B30000849086007E0002005490870604202F06B
:103B4000D7FB0449086070BD68000020DC0200203B
:103B5000690000201003002010B504462146012012
:103B600001F044FD10BD0146002901DD0120704730
:103B7000002902DA4FF0FF30F9E70020F7E70000F4
:103B800010B514A201210846FEF7E0FA15A20121A2
:103B90000220FEF7DBFA154806210268022000F039
:103BA000D9FB1348007803280EDB12A20121032061
:103BB000FEF7CCFAFEF7CCFF0A2190FBF1F40323C9
:103BC0002246184600F09EFB0DA201210420FEF7BC
:103BD000BDFA10BD5461736B20436F6D706C6574DA
:103BE0006521000054696D653A0000000C0000205A
:103BF0000100002042616C6C204572723A000000A6
:103C0000507265737320444E3A206E6578740000DC
:103C100010B588B0684601F043FB3CA2012108467C
:103C2000FEF794FA01233A48027802211846FEF77B
:103C30006BFA38A204210120FEF788FA01233648E6
:103C4000027805211846FEF75FFA34A20721012009
:103C5000FEF77CFA324809210268012000F07AFB65
:103C600030A201210220FEF771FA2F4800680A21D4
:103C700090FBF1F4032322461946022000F042FB98
:103C80002AA208210220FEF761FAFEF761FF0A214D
:103C900090FBF1F4032322460B21022000F032FBBB
:103CA00023A201210320FEF751FA03230421184621
:103CB000029A00F027FB1FA209210320FEF746FA13
:103CC0009DF8022001230C210320FEF71DFA1AA201
:103CD0000E210320FEF73AFA0123184802780F213B
:103CE0000320FEF711FA16A201210420FEF72EFA96
:103CF0001548006800F058FB0446042322460521BD
:103D0000184600F0FFFA08B010BD00005400000093
:103D1000010000204C00000010000020543A000078
:103D20000C000020423A00001801002045723A00C1
:103D30004C453A0041433A00560000001C01002067
:103D40005961773A000000006C01002010B519A2FB
:103D500001210846FEF7FAF91AA201210220FEF716
:103D6000F5F901231948027806210220FEF7CCF963
:103D700017A208210220FEF7E9F918A20121032069
:103D8000FEF7E4F919A201210420FEF7DFF902236E
:103D9000232203210420FEF7B7F915A206210420EF
:103DA000FEF7D4F902230F2208210420FEF7ACF914
:103DB00010BD000053656C656374205461736B3AE9
:103DC000000000005461736B00000000010000203F
:103DD0002055503A6E65787400000000537461728B
:103DE000743A20444E2062746E0000004B70000054
:103DF0004B6400002DE9F0410446D4E9000102F0D3
:103E0000DFFBA060206B01282DD1D4E9020102F074
:103E1000D7FB0546616902F0CBFA2062A168A06970
:103E200002F0C6FAA0624FF08040E16802F0C0FAEA
:103E30000746A16802F0B9FB0646216902F0ECF8DA
:103E40000546E16902F0B4FA6062A16A206A02F0F4
:103E5000E3F80646616A02F0DFF80546E16A02F01F
:103E6000DBF8E06221E0206BF8B9A168606902F03C
:103E70009FFA2062A168A06902F09AFA0546A16A39
:103E800002F0CAF8A062D4E9020102F099FB0546EB
:103E9000E16902F08DFA6062A16A206A02F0BCF862
:103EA0000546616A02F0B8F8E062E1682161A16844
:103EB000E160BDE8F081000010B500F0D7FD2148B9
:103EC000007830B12048006802F012FA1F494860BB
:103ED00006E01D480068404202F00AFA1B494860AB
:103EE0001B48007830B11B48006802F001FA1A49FB
:103EF000486006E017480068404202F0F9F91649A8
:103F00004860002010490860124908600F48FFF718
:103F100071FF1148FFF76EFF0C4800F01FF80E48C4
:103F200000F01CF80949C86A02F0A6F90446FFF738
:103F300085FD0949C86A02F09FF90446FFF79AFD1A
:103F400010BD0000680000206C000020DC02002092
:103F500069000020700000201003002010B5044606
:103F60000749E06A02F0F0FA01D80548E062002152
:103F7000E06A02F0E9F901D80020E06210BD00001B
:103F8000005043472DE9F04104460D4616462846A9
:103F9000E91705EB91718910A5EB8101491CCFB29E
:103FA0005148C0690121A14008434F49C8614F48A9
:103FB00090FBF6F0401E4E4951F8241088854720AA
:103FC0004B4951F824100885284600F093F8012F3A
:103FD00006D0022F1ED0032F36D0042F69D14DE01A
:103FE000434850F82400008B40F06000404951F8ED
:103FF000241008833E4850F82400008B40F008004D
:104000003B4951F8241008830020394951F8241005
:1040100088864EE0364850F82400008B40F4C040BB
:10402000334951F824100883314850F82400008B9C
:1040300040F400602E4951F82410088300202C49D8
:1040400051F82410088734E0294850F82400808B68
:1040500040F06000264951F824108883244850F825
:104060002400808B40F00800214951F824108883F7
:1040700000201F4951F8241088871AE01C4850F886
:104080002400808B40F4C040194951F824108883E3
:10409000174850F82400808B40F40060144951F810
:1040A000241088830020124951F82410A1F8400000
:1040B00000BF00BF0E4850F82400008C791E8A0013
:1040C0000121914008430A4951F824100884084806
:1040D00050F82400008840F08100054951F8241070
:1040E0000880BDE8F08100000010024040420F004F
:1040F0003C01002010B504460C2C4FD2DFE804F040
:10410000060C12181E242A30363C42480322002195
:104110000846FFF71DFA41E0032201210020FFF7C6
:1041200017FA3BE0032202210020FFF711FA35E0E5
:10413000032211460020FFF70BFA2FE0032206218D
:104140000020FFF705FA29E0032207210020FFF7EE
:10415000FFF923E0032200210120FFF7F9F91DE018
:10416000032201210846FFF7F3F917E00322062195
:104170000120FFF7EDF911E0032207210120FFF7ED
:10418000E7F90BE0032208210120FFF7E1F905E040
:10419000032209210120FFF7DBF900BF00BF10BD9A
:1041A0002DE9F84F04460D4617462846E91705EB5A
:1041B00091718910A5EB8101491C01F0FF084CF2B7
:1041C0005030874200DB0746384850F82400868D7F
:1041D000B8F1010F09D0B8F1020F1DD0B8F1030FEB
:1041E00031D0B8F1040F5DD144E0701C02F080F8CA
:1041F0008346384602F094F82D49009001F07AFF8A
:104200008246594602F0D4F8814602F051F8274917
:1042100051F82410888645E0701C02F069F800907F
:10422000384602F07DF88346214901F063FF82465B
:10423000009902F0BDF8814602F03AF81B4951F8A6
:10424000241008872EE0701C02F052F800903846C7
:1042500002F066F88346164901F04CFF8246009949
:1042600002F0A6F8814602F023F8104951F8241014
:10427000888717E0701C02F03BF80090384602F087
:104280004FF883460A4901F035FF8246009902F053
:104290008FF8814602F00CF8044951F82410A1F877
:1042A000400000BF00BFBDE8F88F00003C010020C7
:1042B00000504347002000220F4B1A700F4B1A701A
:1042C000002115E00E4A525C3AB101228A400A4BA5
:1042D0001B781A43084B1A7008E001228A400243F7
:1042E000D0B2064A1278521C044B1A704A1CD1B242
:1042F0000829E7DB70470000290000202B00002080
:104300005C0000202DE9F04106460C4615461F468C
:10431000002D0CDA0DA221463046FDF717FF601C78
:10432000C1B23B466A423046FDF7EEFE0BE008A202
:1043300021463046FDF70AFF601CC1B23B462A46C3
:104340003046FDF7E1FEBDE8F08100002D000000E1
:10435000200000002DE9F04706460C4615464FF4B4
:104360007A70B5FBF0F087B24FF47A70B5FBF0F1DC
:1043700000FB115802233A4621463046FDF7C4FEA1
:10438000A01CC1B207A23046FDF7E0FE0A2098FB50
:10439000F0F9E01CC1B202234A463046FDF7B4FEF4
:1043A000BDE8F0872E00000070B5044600212046CD
:1043B00002F0CAF808D84FF07C51204601F02CFEDC
:1043C000054601F059FF70BD4FF07C51204602F0C8
:1043D000F7F8054601F050FFF5E7000010B5FFF7CC
:1043E00069FBFDF7E4FDFDF76BFD3DA201210846E9
:1043F000FDF7ACFE3FA201210220FDF7A7FE4FF41E
:10440000FA70FEF781FE3FA201210320FDF79EFE18
:1044100000F0CAFC3FA201210320FDF797FE4FF4F4
:104420009670FEF771FE3FA201210320FDF78EFE7C
:10443000FFF780F93FA201210320FDF787FE4FF42B
:104440009670FEF761FE3FA201210320FDF77EFE7C
:10445000FEF73CFC3FA201210320FDF777FE4FF45D
:104460009670FEF751FE3FA201210320FDF76EFE7C
:10447000FFF71CFB00F076FC3EA201210320FDF7B4
:1044800065FE4FF49670FEF73FFE3EA20121032029
:10449000FDF75CFEFEF72EFB3EA201210320FDF797
:1044A00055FE4FF49670FEF72FFEFFF777F90122C5
:1044B0000521104600F0A2FAFDF702FD39A2012104
:1044C0000846FDF743FE4FF4FA70FEF71DFEFDF7B8
:1044D000F7FC0020374908703749086010BD00001C
:1044E00042616C6C2042616C616E63652043617255
:1044F00000000000496E697469616C697A696E67D1
:104500002E2E2E00547261636B20496E69742E2E1C
:104510002E000000547261636B204F4B202020203E
:1045200020000000494D5520496E69742E2E2E2022
:1045300020000000494D55204F4B202020202020F6
:104540002000000043616D65726120496E69742E20
:104550002E00000043616D657261204F4B202020CA
:10456000200000004D6F746F7220496E69742E2E0A
:104570002E0000004D6F746F72204F4B20202020C2
:1045800020000000536572766F20496E69742E2EEC
:104590002E000000536572766F204F4B20202020A4
:1045A00020000000496E697420436F6D706C657463
:1045B00065000000000000200400002010B500F09D
:1045C000D1FB0020FEF7E2FAFEF7CCFA0020094901
:1045D000087001200849087000200849087008493F
:1045E000086008480068084908600020074908601A
:1045F00010BD00001000002011000020120000205B
:104600001400002004000020080000200C000020FE
:1046100010B51648006816490968401A154908601F
:104620000846006844F62061884205D300F09AFBF2
:1046300002201149087010BD00F0DCFBFEF788FD78
:1046400080B10E480078401C0C490870084600787C
:104650000B490978884205DB00F084FB02200649FB
:104660000870E8E7FEF798FA00BFE4E704000020CE
:10467000080000200C000020000000201000002096
:104680001100002010B500F06DFB0020FEF77EFA4F
:10469000FEF768FA002007490870074800680749D4
:1046A0000860054800680649086000200549086060
:1046B00010BD000018000020040000201C00002095
:1046C000080000200C00002010B531480068314976
:1046D0000968401A304908602D4800682F49096868
:1046E000441A00F03FFB2E48007805284BD2DFE843
:1046F00000F0030F1A2B36004FF4FA70FEF746FA5B
:1047000001202749087022480068244908603AE0DF
:10471000B4F5FA6F06D30220214908701C480068DE
:104720001E4908602FE040F2DC5084420BD3FEF7B4
:104730000FFA1C48FEF72AFA03201949087014489A
:104740000068164908601EE0B4F5FA6F06D304202D
:10475000134908700E4800681049086013E040F2E1
:10476000DC50844205D20C48006841F2883188420E
:1047700008D3FEF7EDF90020FEF708FA04200A49F5
:10478000087010BD00BF00BFFEF706FA00BFF8E7D3
:1047900004000020080000200C0000201C00002065
:1047A000180000200CFEFFFF0000002010B500F0F4
:1047B000D9FA0020FEF7EAF9FEF7D4F900200849FB
:1047C00008700849087008490870084908600848D6
:1047D00000680849086000200749086010BD000013
:1047E0001000002011000020120000201400002002
:1047F00004000020080000200C00002010B515481F
:10480000006815490968401A14490860084600689C
:10481000B0F5FA5F05D300F0A5FA0620104908703C
:1048200010BD00F0E7FAFEF793FC70B10D48007878
:10483000401C0C49087008460078012805DB00F090
:1048400091FA062006490870EAE7FEF7A5F900BFCD
:10485000E6E7000004000020080000200C00002013
:10486000000000201000002010B500F07BFA0020AE
:10487000FEF78CF9FEF776F900200949087001204F
:10488000084908700020084908700849086008486D
:1048900000680849086000200749086010BD000052
:1048A0001000002011000020120000201400002041
:1048B00004000020080000200C00002010B516485D
:1048C000006816490968401A1549086008460068DA
:1048D00047F23051884205D300F044FA08201149CC
:1048E000087010BD00F086FAFEF732FC80B10E4869
:1048F0000078401C0C490870084600780B4909787C
:10490000884205DB00F02EFA082006490870E8E727
:10491000FEF742F900BFE4E7040000200800002091
:104920000C000020000000201000002011000020DA
:1049300010B500F017FA0C480068FEF727F9FEF7EB
:1049400011F9002009490870012009490870002068
:104950000849087008490860084800680849086064
:1049600000200849086010BD200000201000002031
:10497000110000201200002014000020040000207C
:10498000080000200C00002010B5164800681649E9
:104990000968401A154908600846006847F2305116
:1049A000884205D300F0DEF90A201149087010BDD5
:1049B00000F020FAFEF7CCFB80B10E480078401CD6
:1049C0000C490870084600780B490978884205DBD5
:1049D00000F0C8F90A2006490870E8E7FEF7DCF89D
:1049E00000BFE4E704000020080000200C000020C5
:1049F00000000020100000201100002070B50446C7
:104A00000D4616461748C0690121A14008431549C3
:104A1000C86105EB85004000401E134951F8241081
:104A2000888541F61F40104951F8241008850E482A
:104A300050F82400008840F001000B4951F8241080
:104A40000880094850F82400808940F00100064998
:104A500051F82410888104F11C00C1B23046FDF7E2
:104A600009FA70BD001002403C0100202DE9F84F0A
:104A7000002000900120FEF7A5FB04460220FEF76F
:104A8000A1FB05460320FEF79DFB80460420FEF7B0
:104A900099FB81460520FEF795FB82460620FEF72E
:104AA00091FB83460720FEF78DFB06460820FEF7A4
:104AB00089FB0746A4B99DB9B8F1000F10D1B9F12F
:104AC000000F0DD1BAF1000F0AD1BBF1010F07D1D0
:104AD000012E05D1012F03D16FF00E000090E7E009
:104AE000012C12D1012D10D1B8F1010F0DD1B9F166
:104AF000000F0AD1BAF1000F07D1BBF1000F04D1AA
:104B00001EB917B90F200090D2E02CB925B91EB9F3
:104B100017B900200090CBE0012C14D1012D12D147
:104B2000B8F1010F0FD1B9F1000F0CD1BAF1010F9B
:104B300009D1BBF1010F06D1012E04D1012F02D101
:104B4000A01E0090B4E0012C14D1012D12D1B8F1B7
:104B5000000F0FD1B9F1000F0CD1BAF1010F09D13B
:104B6000BBF1010F06D1012E04D1012F02D1E01EAD
:104B700000909DE0012C14D19DB9B8F1000F10D127
:104B8000B9F1010F0DD1BAF1010F0AD1BBF1010F3B
:104B900007D1012E05D1012F03D16FF0070000903E
:104BA00086E0ACB9012D13D1B8F1010F10D1B9F1E4
:104BB000010F0DD1BAF1010F0AD1BBF1010F07D1DD
:104BC000012E05D1012F03D16FF0090000906FE095
:104BD000012C14D1012D12D1B8F1010F0FD1B9F16F
:104BE000010F0CD1BAF1000F09D1BBF1010F06D1B1
:104BF000012E04D1012F02D10120009058E0012C98
:104C000014D1012D12D1B8F1010F0FD1B9F1010F5B
:104C10000CD1BAF1000F09D1BBF1000F06D1012E62
:104C200004D1012F02D10220009041E0012C13D1C8
:104C3000012D11D1B8F1010F0ED1B9F1010F0BD136
:104C4000BAF1010F08D1BBF1000F05D126B9012F30
:104C500002D1082000902BE0012C13D1012D11D19D
:104C6000B8F1010F0ED1B9F1010F0BD1BAF1010F5B
:104C700008D1BBF1010F05D1012E03D117B90A20CC
:104C8000009015E0012C13D1012D11D1B8F1010FC5
:104C90000ED1B9F1000F0BD1BAF1000F08D1BBF161
:104CA000010F05D1012E03D1012F01D10020009069
:104CB0000098FDF77FFA074908600A461268C2F1BA
:104CC0007801044A126802F17800FEF713FFBDE88C
:104CD000F88F00007C00002070B504460D461F4888
:104CE00000686E30844205DD1C4800686E301B4948
:104CF00008600CE0194800686E38A04205DD1748CE
:104D000000686E381549086001E0144804601448D2
:104D100000686E30854205DD114800686E3010492C
:104D200008600CE00E4800686E38A84205DD0C48AB
:104D300000686E380A49086001E0094805600848C3
:104D4000008803B20648008802B20448008801B215
:104D50000248008800B2FEF71FF970BD3C00002039
:104D60004000002010B5002009490860094908608A
:104D7000094908700949087009490870094908700B
:104D800000231A4619461846FEF706F910BD000022
:104D90003C0000204000002046000020470000208A
:104DA0004F0000205000002010B500224FF4E131E8
:104DB000104600F0ADFB00F001F810BD10B502A1E7
:104DC000002000F013FC10BD24302C312C312300C6
:104DD00010B50446502C03DD0120FEF7C4FE10BDC3
:104DE00014F1500F04DA4FF0FF30FEF7BCFEF6E787
:104DF0000020F4E72DE9F05FFFF75CFAFE49087048
:104E00000846007800F000FCFB480078FDF70AFF38
:104E1000FA490860FA480078032801DB012000E025
:104E200000200646F7480078002801DD012000E058
:104E300000200746F048007800F0030060B1F24817
:104E40000078FF2804DAF0480078401CEE4908702A
:104E50000020EE49087016E0E748007800F0C00036
:104E600060B1EA480078FF2804DAE8480078401C7E
:104E7000E64908700020E449087004E00020E24997
:104E80000870E2490870E0480078022808DBDB4837
:104E90000068B0F5967F03DADD48D849086021E064
:104EA000DA480078022809DBD448006810F5967FBC
:104EB00004DD4FF49670D149086013E046B1CF4845
:104EC0000068502804DD4FF4A570CC49086009E063
:104ED00046B1CA48006810F1500F03DACC481E38BA
:104EE000C6490860CB480078D0B1C348007800F0CC
:104EF000180090B1C8480078FF2804DAC648007846
:104F0000401CC5490870C4480078022808DB00200E
:104F1000C0490870C049087002E00020BE4908700E
:104F2000B748007848B9BB4890F90000002804DD74
:104F30004FF4A570B14908600BE0B148007840B962
:104F4000B44890F90000002803DAB1481E38AB4994
:104F5000086056B9AC480078022806DAAB480078F9
:104F6000022802DAAB48007860B1A448006800EB80
:104F7000C000AA49096808440A2190FBF1F09F4942
:104F800008600AE09D480068A449096801EB8000B8
:104F9000052190FBF1F099490860A1480078FF28AD
:104FA00004DA9F480078401C9D4908709C480078AE
:104FB000642803DDFFF7D6FEBDE8F09F9048007837
:104FC000D0BB002090490870904908709249087041
:104FD00094480078FF2804DA92480078401C9149F0
:104FE000087090480078782805DD0020894908700D
:104FF000FFF7B8FEE0E78748007828B1854890F9C8
:105000000000FEF73EF91DE084480068002807DD37
:1050100082480068FFF7DCFE0546FEF732F911E032
:105020007E480068002808DA7C480068FFF7D0FE58
:105030000546FEF726F905E005E0FDF713FF0546F6
:10504000FEF71FF9B8E7002076490870714800782C
:1050500090B16948007800F0180068B1684800789D
:10506000042809DC00206B4908706B4908706E4900
:10507000087019206349087061480078052821DB11
:10508000002061490870614908706248007818B9C9
:10509000FDF75AFF5F49087063480078042807DA73
:1050A00061480078401C6049087000F04BF904E04A
:1050B000584890F90000FEF7E4F850480068574956
:1050C000086079E70020584908700FB1A02001E07E
:1050D0005648006880460FB1462001E054480068F9
:1050E00081464648006808FB00F0444909684B4A7D
:1050F0001268891A09FB0100642190FBF1F04D4907
:1051000008604FF4AA7251424A480068FEF75CFBFF
:105110004849086039480068002802DB37480068C1
:1051200002E03648006840420546B5F5967F05DD49
:10513000F52132480068FEF713FB06E08C2D04DDF4
:1051400078212E480068FEF70BFB2D4800780328D5
:1051500005DBC82129480068FEF702FB18E0284853
:105160000078022814DC782D12DA2A48007878B901
:1051700000F060F92F49096808442E4908604FF48F
:10518000AA7251422B480068FEF71EFB29490860AD
:10519000B5F5967F01DD62240FE00FB158240CE0D5
:1051A0002846E91705EB5171C910C1F18A048A221A
:1051B00062212046FEF708FB044610480068B0F55F
:1051C000967F08DC0D48006810F5967F03DB0C48DD
:1051D0000078032836DB17490968601804F5AA72BD
:1051E0006FF01D01FEF7F0FA834612490968601A54
:1051F00004F5AA7220E000002A0000203000002000
:105200002B0000204F00002044000020450000201B
:10521000D4FEFFFF4600002047000020340000209D
:10522000280000202F000020500000205400002003
:1052300058000020380000206FF01D01FEF7C4FA6E
:10524000824611E012490968601804F5AA72192112
:10525000FEF7BAFA83460E490968601A04F5AA7285
:105260001921FEF7B1FA824651465846FFF734FD40
:10527000084800680849086008480078002804DDEC
:1052800006480078401E0549087000BF94E60000FB
:105290003800002030000020340000204F000020A3
:1052A00030B589B005461C4800788DF804001B48CD
:1052B00000788DF805001A4800788DF80600194826
:1052C00000788DF80700184800788DF80800174816
:1052D00000788DF80900164800788DF80A00154806
:1052E00000788DF80B00144800680390134800689C
:1052F0000490002407E0124830F8141005A820F8A4
:105300001410601CC4B2082CF5DB202201A9284629
:10531000FBF7A2F809B030BD290000202A000020C8
:105320002B000020280000202C0000202D00002051
:105330002E0000202F000020300000203800002028
:105340007802002010B50020054908600549086072
:1053500000231A4619461846FDF71EFE10BD000030
:105360003C0000204000002070B50546242D0ED1E1
:1053700001202C49087000202B490870084601784C
:105380000078401C284A10702848455470BD2548B4
:10539000007800B9FAE72448007864280ED3002486
:1053A00004E0002021490855601CC4B2642CF8D3E5
:1053B00000201C4908701C490870E7E71A4801786A
:1053C0000078401C184A107018484554232D14D1F9
:1053D000002408E01548005D1549085500201349D0
:1053E0000855601CC4B2642CF4D300200D49087029
:1053F0000D490870FDF7FCFDC8E70B4800786428EC
:105400000DD3002404E0002008490855601CC4B2F4
:10541000642CF8D30020034908700349087000BFCA
:10542000B4E700006400002065000020B001002007
:10543000140200200C480078102805DA0A48007889
:10544000401C0949087008E0002007490870074817
:105450000078404240B205490870044890F90000C5
:1054600016214843704700004E0000204D000020E8
:105470002DE9F04F89B081468A46B9F1000F01D17C
:105480001F4C00E01F4C4FEA0A1094FBF0FB5846FB
:1054900000F08FFBCDE90401504600F073FB074696
:1054A0000022194B00F098FB05460E46204600F0FE
:1054B0001FFF074600F084FD2A463346CDE9000170
:1054C00000F008FACDE90201DDE9042300F08EFCCA
:1054D000CDE9060100F01CF908904FF083410898CF
:1054E00000F066FF0890089800F0E2FE00EB0B1059
:1054F000064951F82910088109B0BDE8F08F000075
:1055000000A24A040051250200003040480100205A
:1055100070B504460E46154634B91448806940F407
:1055200080401249886108E01048C06904F1100108
:1055300001228A4010430D49C861204600F01AF844
:1055400031462046FFF794FF094850F8240080892F
:1055500042F22C010843064951F82410888104F1D5
:105560002500C1B22846FCF785FC70BD0010024042
:105570004801002010B5044624B1012C0DD0022CA6
:1055800021D115E0032209210020FDF7E1FF0422CB
:105590000A210020FDF7DCFF15E003220221002094
:1055A000FDF7D6FF042203210020FDF7D1FF0AE01A
:1055B00003220A210120FDF7CBFF04220B21012049
:1055C000FDF7C6FF00BF00BF10BD000000BF064AC8
:1055D00052F82020128802F04002002AF7D0024A36
:1055E00052F82020918070474801002010B50446F1
:1055F0000B4604E013F8011B2046FFF7E7FF18787D
:105600000028F7D110BD00002DE9F041064606F054
:105610000F00FDF7E1FC04463009FDF7DDFC05460F
:105620000027002C02DD0DB97F1E0EE0002D02DDEB
:105630000CB9012709E0681C844202DD4FF0FF37F6
:1056400003E0601C854200DD0127002F0BDD2348AD
:1056500090F90000042806DA20480078401C40B287
:105660001E49087026E0002F0CDA1C4890F9000053
:1056700010F1040F06DD19480078401E40B21749AA
:10568000087017E0B7B9154890F90000002806DD4A
:1056900012480078401E40B2104908700AE00F48D6
:1056A00090F90000002805DA0C480078401C40B250
:1056B0000A490870094890F90000022803DB01201C
:1056C0000749087008E0054890F9000010F1020F42
:1056D00002DCFF2002490870BDE8F081490000208B
:1056E0004A00002010B500290AD00878002807D009
:1056F00005487844FBF79AFA002801D0002010BD35
:105700000248784410BD00002A180000221800004A
:1057100021F00042A2F16052B2F5801F01F0004377
:1057200028BFD2F17F6C0BD95FEA001C43EAC202AA
:1057300042EB507018BF704728BF20F0010070473F
:10574000B2F5801FBCBF184670474FEA410C1CF5EC
:10575000001F02D2084600F0F2BE70B500F0E6FA73
:1057600000000089FFF7F6BF4FF00040A0F5800071
:105770007047000010B591EA030F48BF83F0004363
:1057800000F13C83841A71EB030C05D2121943EB30
:105790000C03001B61EB0C01DFF824E14FEA11540C
:1057A000A4EB135C1EEA430F18BF9EEA445F73D05C
:1057B00023EA0E03DCF1200E21EA045143F48013A6
:1057C00032D322FA0CFE10EB0E0023FA0CFE41EB52
:1057D0000E01CCF1200E03FA0EFE10EB0E0051F17B
:1057E0000001B1F5801FCCF1200E32D201EB045143
:1057F00012FA0EF2BDE8104058BF7047401C38BF87
:105800005FEA420218BF7047002814BF20F0010071
:1058100041F100014FEA410313F5001F38BF704703
:10582000A1F1C04100F0D0BA012A43EB0302ACF170
:10583000200CDCF11F0E32BF4FF0000E23FA0CF3E8
:1058400010EB030041EB0451B4EB115FD0D0A1EB9E
:10585000045101F5801149085FEA300001EB045161
:105860000ED350F1000038BF12FA0EFE08D1BDE889
:105870001040C9E7401C38BF5FEA4202CAD1C3E703
:10588000BDE810404FEA410313F5001F38BF7047D1
:10589000A1F1C04100F098BA9EEA445F08D011EA35
:1058A0005E0FBDE8104004BF01F0004100207047CA
:1058B000BDE8104070B500F039FA00BF64FBBE3E91
:1058C0000000E0FF02494FF0000000F0F0BE00BF12
:1058D0000000F87F2DE9C04130B4DFF8A0C23CEAF7
:1058E000111418BF3CEA131400F0EC8081EA0305A0
:1058F0001CEA111444EAD57418BF1CEA131500F011
:10590000C780A4EB05044FF0004545EAC12145EAF4
:10591000C32341EA505143EA525304F17F74994240
:1059200004F500344FEAC0204FEAC22208BF90427B
:1059300000F09C804FEA13650FF24016765D4FEA47
:10594000134506FB05F7C7F1807706FB07F74FEA1B
:10595000D737A7FB03687642C8F58038A7FB06CE89
:1059600038BFA8F1010807FB08E64FF0000EA6FBC0
:10597000028CE6FB03CEDCF1000CCEF1004E38BF0A
:10598000AEF1010EA6FB0C584FF000074FF00005DA
:10599000E6FB0E87A1FB08C6A0FB07CE16EB0E06A2
:1059A00045F10005E1FB076515F1E04E7EBFA4F56A
:1059B00080345FEA46066D4116F1800745F1000527
:1059C0004FEA17274FEA066647EA0567A6F1DE4663
:1059D000B6F1805F4FEA15251FD9384624F0010C37
:1059E00005EBC471BCF1FE6F01EB0C1102D8F0BCE9
:1059F000BDE8008124425CBF01F5801E9EEAC47FA1
:105A000002D4F0BCBDE80081244238D4F0BCA1F13E
:105A1000C041BDE8004100F0D7B94FEAD22242EAC6
:105A200043524FEAD323A7FB02864FEAD02040EA35
:105A3000415007FB03661EEA0E0F4FEAD12105FB1A
:105A4000026658BFA6EB0056B6EB00564FEA520E60
:105A50004EEAC37E18EB0E0E56EB530EBDD518EB77
:105A600002085E417F1C55F10005B6E74FF4801532
:105A70004FF000074FF000064FF00008ADE7F0BC14
:105A80004FF0000001F1C04101F00041BDE800818C
:105A900011EA0C1F0CEA131500D00CE013EA0C1FDE
:105AA00000F025804FF00000F0BC81EA030101F016
:105AB0000041BDE80081F0BCBDE8004181EA03017E
:105AC00000F082B9F0BCBDE8004170B500F02EF9DD
:105AD000097EFC3E00F007B881EA03014FF00000A8
