:020000040800F2
:1000000090090020E9010008F1010008F30100084F
:10001000F5010008F7010008F901000800000000E0
:10002000000000000000000000000000FB010008CC
:10003000FD01000800000000FF01000801020008A7
:10004000030200080302000803020008030200087C
:1000500003020008030200083D14000855140008BC
:100060006D140008A9140008C11400080302000858
:10007000030200080302000803020008030200084C
:10008000030200080302000803020008030200083C
:10009000030200080302000803020008FD14000820
:1000A000030200080302000803020008030200081C
:1000B000F12200081123000835230008030200087C
:1000C00003020008030200080302000803020008FC
:1000D0000302000851230008792300089523000833
:1000E00003020008030200080302000800F002F8FF
:1000F00000F06AF80AA090E8000C82448344AAF158
:100100000107DA4501D100F05FF8AFF2090EBAE855
:100110000F0013F0010F18BFFB1A43F0010318473B
:1001200044570000645700000A444FF0000C10F8D8
:10013000013B13F0070408BF10F8014B1D1108BF65
:1001400010F8015B641E05D010F8016B641E01F805
:10015000016BF9D113F0080F1EBF10F8014BAD1C55
:100160000C1B09D16D1E58BF01F801CBFAD505E073
:1001700014F8016B01F8016B6D1EF9D59142D6D3CD
:10018000704700000023002400250026103A28BFF5
:1001900078C1FBD8520728BF30C148BF0B607047F9
:1001A000662904F03687642900F0568000207047E5
:1001B0001FB500F00DFC04000020002103F05AFFE1
:1001C000E0601FBD10B510BD00F002FD1146FFF745
:1001D000EFFF02F09DFE00F020FD03B4FFF7F2FFF9
:1001E00003BC02F068F9000009488047094800474D
:1001F000FEE7FEE7FEE7FEE7FEE7FEE7FEE7FEE7D7
:10020000FEE7FEE704480549054A064B7047000033
:1002100091220008ED0000089003002090090020C2
:100220009005002090050020704700000FB41CB519
:10023000084B06AA7B4469460090059800F0AFFB86
:1002400004460020694600F0BDFB20461CBC5DF85A
:1002500014FB00008D0700002DE9F0410646002444
:1002600010687529314616A510D0AFF3008000281C
:1002700002DA404213A507E031688A0701D512A5CA
:1002800002E0490704D511A5012401E0AFF3008085
:1002900000210A2206F1240709E0B0FBF2FCB0FBC2
:1002A000F2F302FB1C00303078541846491C002839
:1002B000F3D123462A463046BDE8F04100F002B9AA
:1002C000000000002D0000002B00000020000000B6
:1002D0002DE9F05F894604464FF0000ADFF874B15B
:1002E000FB44C0F820A02046E1688847002874D06D
:1002F000252806D0D4E901219047206A401C2062BD
:10030000F1E700265F462046E16888472028054639
:1003100007DB312D05D2781910F8200C08B10643FF
:10032000F1E7B00701D526F00406C4F81CA00027A9
:10033000C4F818A02A2D09D0284602F0B5F838B321
:1003400004EB8708303DC8F8185019E059F8041B31
:10035000204604EB87029161E1688847012F05463A
:1003600018D1E069002820DA26F020061DE0D8F830
:10037000180000EB800005EB40003038C8F818008A
:100380002046E1688847054602F08EF80028EED145
:10039000012F0AD02E2D08D12046E16888477F1C06
:1003A0000546022F46F02006C4DBA069002803DAC8
:1003B000404246F00106A061F00701D026F0100689
:1003C0006C2D0BD0682D09D04C2D39D06A2D35D02D
:1003D000742D35D07A2D33D016E038E0E1682F4601
:1003E00020468847B842054609D16C2F26D04FF4E5
:1003F0008060E168064320468847054604E06C2F8C
:100400001AD04FF4807006430DB3A5F141001928AE
:1004100002D8203546F400664A4629462046266022
:100420004E46FFF7BDFE80B101280BD0F61D26F029
:10043000070000F1080956E74020E4E78020D8E7EC
:100440000020D6E706F104094DE7284652E7206A66
:10045000BDE8F09F3454000010B5203AC0F00B8086
:10046000B1E81850203AA0E81850B1E81850A0E8B8
:100470001850BFF4F5AF5FEA027C24BFB1E8185012
:10048000A0E8185044BF18C918C0BDE810405FEA82
:10049000827C24BF51F8043B40F8043B08BF7047FE
:1004A000D20728BF31F8023B48BF11F8012B28BF03
:1004B00020F8023B48BF00F8012B70477047704797
:1004C000704770472DE9F0470D469946924604461D
:1004D00000F124080168880604D5E06921F01001C4
:1004E000216000E00120A84201DD471B00E0002759
:1004F000A1697A1902EB0900081AA0612078C006E8
:1005000002D42046AFF30080002608E0D4E90121A0
:100510001AF806009047206A401C761C20624E455F
:10052000F4DB2078C0060AD52046AFF3008006E051
:10053000D4E9012130209047206A401C2062381EF7
:10054000A7F10107F4DC07E0D4E9012118F8050060
:100550009047206A401C2062281EA5F10105F3DCAB
:100560002046AFF300802078000602D50220BDE8C7
:10057000F0870120FBE770472DE9FF4F0C461E4630
:100580004FF0FF378BB0D2E90001DDF860800A90B0
:100590008A46C1F30A5505B93D46002108464FF089
:1005A0000000BAF1000F00F4400005DA00EB800013
:1005B0004FF4400101EA50004FEA9059B9F1010FA0
:1005C00000DDB9460A9850EA4A000ED044F61050B1
:1005D000A5F2FF3545432F14B8F1000F1ED0754228
:1005E000291E1EDDC9F100021CE0B8F1010F4FF019
:1005F000000001D0302103E0F24305E02154401C0B
:10060000B042FBDB30460022002121540B99C1F897
:100610000880C1E900200FB0BDE8F08FBD1B6D1C44
:10062000DEE74A4600DA694206A800F05BFA06AB4C
:1006300093E8070003AB83E8070050460A9900F0EF
:1006400035FB8DE80700A0F500501F380090039897
:10065000002D0ADD42F21F014A460844002303A987
:100660000390684600F09EFD09E0A0F500504A4660
:100670001F38002303A90390684600F0A8FD8DE809
:1006800007000004000C03D04FF0FF30410800E0E9
:100690001046B8F1000F03D00022009215461EE06C
:1006A000751E05D400F098F9303262556D1EF9D5EB
:1006B000B3460122084302D000227F1C04E02078C8
:1006C000302801D100227F1E002A099784D01DE026
:1006D000112D07DA00F080F9303262556D1C50EAB6
:1006E0000102F5D1084302D00098C8B10EE0002104
:1006F000681E05E0235C625C63542254401E491C62
:100700008142F7DBAB46A81B401E0990002004F88D
:100710000B000B98099AC0F80880C0E9002B7AE713
:1007200011264FF0000857E72DE9F04F88460446A0
:10073000D21D22F0070191B0D1E90001CDE90A01F3
:1007400001F03CFE02460B98C00F01D02D2007E0BF
:100750002068810701D52B2002E0202101EAC0009A
:10076000032A099001D0072A05DB034641462046AB
:1007700000F078F90BE12078800601D5E06900E00F
:100780000620B8F1650F814606D0B8F1660F18D083
:10079000B8F1670F70D131E00020B9F1110F00906E
:1007A00001DB112301E009F101030AAA01A90CA848
:1007B000FFF7E2FEDDE90C70002609F10105834632
:1007C00047E001204B4600904FF000470AAA01A9DC
:1007D0000CA8FFF7D1FEDDE90DB00C995D460026AF
:1007E00010B909F101000D18B9EB050003D4C0F1EF
:1007F000FF3609F10105A5EB09002BE0B9F1010F66
:1008000001DA4FF001090020B9F1110F00904846BC
:1008100001DD112300E003460AAA01A90CA8FFF795
:10082000ABFEDDE90C704D460026834620780007BC
:100830000AD4AB4500DA5D4601A8012D04DD41195B
:1008400011F8011C302907D04F4502DA17F1040FC7
:1008500004DA012082460FE06D1EEEE7002F02DC75
:10086000ED1B3E4403E0781CA84200DD7D1CB81B54
:1008700000F1010A4FF000472078000703D4AA4591
:1008800001DB4FF0FF3A0021B7F1004F0DF14308B3
:100890008DF8431024D002202B23002F01DA7F4251
:1008A0002D230A21021EA0F1010000DC5FB197FB9D
:1008B000F1FC97FBF1F201FB1C7C17460CF1300CAC
:1008C00008F801CDEEE7A8F10100037021880905C1
:1008D00001D5452100E06521A0F1010800F8011CC7
:1008E00009980FA9A1EB0807FF1D00B101204119CC
:1008F00001EBEA70A1693844081A401EA061207813
:10090000C00602D42046AFF30080099828B1D4E98C
:1009100001219047206A401C20622078C00622D521
:100920002046AFF300801EE0002E04DBB34502DD5D
:1009300001A8805D00E03020D4E901219047206AC1
:10094000401C2062761CAAF101005FEA000A0AD16D
:1009500000F03EF8C0680168405CD4E9012190478E
:10096000206A401C2062281EA5F10105DCDC07E09E
:10097000D4E9012118F8010B9047206A401C20623D
:10098000381EA7F10107F3DC2046AFF300800320F7
:1009900011B041E601694A1C02610878704700B550
:1009A0008FB0CDE901310021059105497944CDE9A8
:1009B000031011466846FFF78BFC0FB000BD000026
:1009C000E5FFFFFF0A6802F8010B0A6070470000AC
:1009D000004870474C03002030B5B0F10A024FEADE
:1009E000900E71F100034EEA817EB0EB0E0061EBD8
:1009F00091014FEA101E4EEA017E10EB0E0041EB12
:100A000011114FEA102E4EEA016E10EB0E0041EB71
:100A100011214FEA104E4EEA014E10EB0E0041EB51
:100A20001141401841F100014FEAD00040EA417005
:100A30004FEAD10110EB80054FEA810444EA90743B
:100A400044EB01046D1944EB0404521BA3414FF025
:100A5000000348BF0A3200D530BD401C41F10001FF
:100A600030BD00002DE9F0411F4604460326016811
:100A7000072A01F4006004DB08B116A505E016A5FD
:100A800003E008B115A500E015A521F010002060D5
:100A9000A069C01EA0610FB1401EA0612046AFF347
:100AA00000804FB1D4E9012138469047206A401CAC
:100AB0002062C01C206206E0206AFAE7D4E9012126
:100AC00015F8010B9047761EF8D22046AFF3008050
:100AD000BDE8F0814E414E006E616E00494E460009
:100AE000696E66002DE9F047814616468AB03548A2
:100AF00078440DC88DE80D0032487844801C03AC62
:100B00000DC884E80D0041F69B300844372190FB66
:100B1000F1F290FBF1F5A5F1800501FB12041B3CFD
:100B200002D56442012000E00020DFF898A0804652
:100B30000027FA44AAF1BE0A0EE0E0070AD03246C6
:100B4000684607EB470101230AEB810100F03FFBF8
:100B50008DE8070064107F1C002CEED1194F7F44F4
:100B6000AE3F19E0E80715D007EB04100DF1180AA5
:100B700090E80E008AE80E00C068F04201D1981992
:100B800008903246012306A903A800F020FB03AB1E
:100B900083E807006D10641C002DE3D14FF00103C2
:100BA00032466946B8F1000F03A802D000F0FAFA05
:100BB00001E000F00CFBC9E90001C9F808200AB007
:100BC000BDE8F087584D0000004870472C03002016
:100BD0007546FFF7F9FFAE4605006946534620F01B
:100BE0000700854618B020B5FFF70CFBBDE8204094
:100BF0004FF000064FF000074FF000084FF0000BD9
:100C000021F00701AC46ACE8C009ACE8C009ACE88B
:100C1000C009ACE8C0098D46704710B50446AFF373
:100C200000802046BDE81040FFF7D7BA4FF0013CE6
:100C300050F8042B51F8043B9A4221D1A2EB0C034B
:100C4000934313EACC1317D150F8042B51F8043B0B
:100C50009A4215D1A2EB0C03934313EACC130BD1A8
:100C600050F8042B51F8043B9A4209D1A2EB0C0333
:100C7000934313EACC13DBD04FF00000704700BF62
:100C8000D01A01BAB1FA81F101F0180122FA01F08B
:100C9000CB40C1F12001DBB2C0B2C01A2CFA01F383
:100CA000D11A914311EAC311E6D170475FEA400CB3
:100CB00008BF91F0000F4FEA8C234FEAC12243EAAC
:100CC00051514FEA1C5018BF00F5F0404FEA300078
:100CD00018BF41F000415FEA6C5C00F02980BCF174
:100CE000FF3F08BF40F080407047130C06BF12045E
:100CF0004FF0100C4FF0000C130E04BF12020CF159
:100D0000080C130F04BF12010CF1040C930F04BF65
:100D100092000CF1020CD30F04BF52000CF1010C35
:100D200011464FF00002A0F11F00A0EB0C0070472D
:100D300011F0004F08BF704731F000413FF4D5AFCC
:100D40000B0C06BF09044FF0100C4FF0000C0B0EFB
:100D500004BF09020CF1080C0B0F04BF09010CF1D0
:100D6000040C8B0F04BF89000CF1020CCB0F04BFE5
:100D700049000CF1010CCCF12003A0EB0C0022FA8D
:100D800003F302FA0CF241EA030100F1010070479B
:100D900020F07F4C80EA030023F07F47ACEB070391
:100DA00003F57C5300F0004003F1FF032DE9804977
:100DB0004FEA154B09B44FEA144325EA0B4E24EAD7
:100DC00003480FF2042606EB132749083E785FEA32
:100DD000320203FB0667C7F5000707FB06F64FEA7A
:100DE00054374FEAD64606F1020607FB066CCCF1F3
:100DF000005C4FEA1C472CEA074C07FB06F40CFB8F
:100E000006F504EB15464FEA961634BF00204FF066
:100E100000404FEAD13706FB07FC4FEA1C4C0CFBA5
:100E20000BF7D21B03FB0CF761EB07010CFB0EF772
:100E3000B0EB074072EB17420CFB08F734BFA2EB94
:100E40000742B2EB074261EB17414FEA0C444FEA0D
:100E5000910706FB07FC4FEA1C4C0CFB0BF7B0EBB1
:100E6000C74072EB573203FB0CF734BFA2EBC7420B
:100E7000B2EBC74261EB57310CFB0EF7B0EBC7008A
:100E800072EB57720CFB08F734BFA2EBC702B2EB50
:100E9000C70261EB5771039F4FEA816141EA9211EA
:100EA00004EBCC044FEAD1374FEA826206FB07FC21
:100EB00042EA90124FEA80604FEA1C4C0CFB0BF7A1
:100EC000D21B03FB0CF761EB07010CFB0EF7B0EB39
:100ED000074072EB17420CFB08F734BFA2EB074246
:100EE000B2EB074261EB17414FEA8C554FEA91078D
:100EF00004EB9C2406FB07FC4FEA1C4C0CFB0BF795
:100F0000B0EBC74072EB573203FB0CF734BFA2EBD8
:100F1000C742B2EBC74261EB57310CFB0EF7B0EBA7
:100F2000C70072EB57720CFB08F734BFA2EBC70285
:100F3000B2EBC70261EB577115EB4C254FEA8161AB
:100F400041EA92114FEA82624FEAD13742EA9012A7
:100F500006FB07FC44F100044FEA80604FEA1C4C9A
:100F60000CFB0BF7D21B03FB0CF761EB07010CFB2F
:100F70000EF7B0EB074072EB17420CFB08F734BFDB
:100F8000A2EB0742B2EB074261EB174115EB1C15D0
:100F90004FEA813141EA92414FEA823242EA90427D
:100FA0004FEA80304FEA0C7644F1000448EA0343EC
:100FB0004EEA0B484FF0000EB2EB080C71EB030742
:100FC00024BF624639464EEB0E0E4FF0000B001860
:100FD000524149414BEB0B0BB2EB080C71EB030791
:100FE0007BF1000B24BF624639464EEB0E0E4FF0EC
:100FF000000B0018524149414BEB0B0BB2EB080CB4
:1010000071EB03077BF1000B24BF624639464EEBC0
:101010000E0E51EA020718BF46F0010616EB0E76D7
:1010200055F1000254F1000103D5BDE88901BDE886
:101030000088BDE88901BDE80048B619524141EB7E
:101040000101A3F10103704780807F7E7D7C7B7A64
:101050007978777676757473727171706F6E6E6D64
:101060006C6C6B6A6A69686867666665646463630A
:1010700062616160605F5F5E5E5D5D5C5C5B5B5A90
:101080005A595958585757565655555554545353FD
:1010900052525251515050504F4F4F4E4E4D4D4D58
:1010A0004C4C4C4B4B4B4A4A4A49494948484847A3
:1010B00047474746464645454544444444434343E1
:1010C0004342424242414141002B9C4630D477008A
:1010D0002BD01CB54FEA370703B44FF010004FF088
:1010E0001001BAF1000F06D0BCF1000FDCBF40F0D8
:1010F000080040F008014FF000000FBCBDE81040B0
:101100000BF1010BBBF1010F08BF5FEA170722BF0C
:1011100012F1010211F101014FF0004143F100030E
:1011200000F0004043EA00007047F9D35708D0E7C9
:1011300046EA064613F1400F4FEA16461FDD13F14B
:10114000200FDFBF16430A46002120335B42BED08A
:10115000C3F1200746EA064602FA07F74FEA1646A9
:1011600046EA0706C3F1200722FA03F201FA07F75D
:1011700021FA03F14FF0000342EA0702A7E746EA2B
:10118000020646EA06464FEA164646EA0106BCBF94
:1011900046EA0646360C4FF000034FF000024FF0CF
:1011A000000194E72DE9804C9A46934670B491E88B
:1011B000380007C831EA400C48BF34EA430C03D575
:1011C000FFF7E6FDFFF780FFF0BCBDE8008C2DE9DE
:1011D000804C9A46934670B491E8380007C810F0E6
:1011E000804F08BF13F0804F03D100F005F8FFF7E0
:1011F0006BFFF0BCBDE8008C20F07F4780EA030065
:1012000023F07F4C07EB0C03A3F57C5300F0004068
:10121000A3F1FE0392F0000F00F0B38095F0000FF1
:1012200000F077802DE901494FEA11404FEA14465A
:1012300021EA004800FB06FC24EA064708FB06F604
:1012400007FB08F800FB07F718EB06484CEB164CB9
:101250004FEA124B18EB07484FEA15464CEB174084
:1012600022EA0B4E0BFB06FC25EA06470EFB06F6B0
:1012700007FB0EFE0BFB07F71EEB064E4CEB164C66
:101280004FF000061EEB074E4CEB174B18EB0B080C
:1012900040F1000018EB0E0B58EB000840F1000085
:1012A0008F1A4FF000013CBFC943661B14BFB5EB5A
:1012B000040C00213CBFC943F61B4FEA17444EEA19
:1012C0008E0E27EA04454FEA1C4704FB07622CEA0E
:1012D000074C05FB07F70CFB05F604FB0CFC16EBB3
:1012E000074642EB174216EB0C4642EB1C421BEB47
:1012F000060658EB0202414146EA9E0601D5BDE8CA
:101300000189B619524141EB0101A3F10103BDE886
:1013100001894FEA14454FEA114724EA054621EABC
:10132000074C05FB07F406FB07F70CFB06F105FB72
:101330000CFC11EB074144EB17444FEA124711EB49
:101340000C4144EB1C4422EA074C05FB07F206FB68
:1013500007F70CFB06F605FB0CFC16EB074642EB09
:10136000174216EB0C4642EB1C456A1854F100017B
:1013700048BF7047B619524141EB0101A3F1010387
:10138000704795F0000F37D04FEA11424FEA1447EB
:1013900021EA024624EA074C02FB07F106FB07F7A5
:1013A0000CFB06F402FB0CFC14EB074441EB174169
:1013B0004FEA154714EB0C4441EB1C4125EA074C5E
:1013C00002FB07F506FB07F70CFB06F602FB0CFC1D
:1013D00016EB074645EB174516EB0C4645EB1C4252
:1013E000121951F1000148BF7047B619524141EB43
:1013F0000101A3F1010370474FEA14454FEA114779
:1014000024EA054621EA074C05FB07F106FB07F72E
:101410000CFB06F24FF0000605FB0CFC12EB07423A
:1014200041EB174112EB0C4251EB1C4148BF704796
:10143000921841EB0101A3F10103704704480068D1
:1014400000F0010010B10120014908607047000060
:10145000140401400448006800F0020010B10220AA
:1014600001490860704700001404014010B50C48A1
:10147000006800F0040090B10321002001F0EEFBB1
:1014800028B108480068401E0649086004E0054885
:101490000068401C0349086004200149086010BD31
:1014A00014040140500000200448006800F00800C7
:1014B00010B1082001490860704700001404014081
:1014C00010B50C48006800F0100090B10521002014
:1014D00001F0C4FB28B108480068401C06490860B8
:1014E00004E005480068401E0349086010200149D7
:1014F000086010BD14040140540000202DE9F84F8D
:101500009548006800F0200010B120209249086042
:101510009148006800F0400010B140208E490860FA
:101520008D48006800F0800000287DD000F07CFB32
:1015300000F044F98948B0F9000003F0A1FB064629
:10154000874903F09FFA0546864903F0E5FB044608
:1015500085480168204603F027FA834908608348DC
:10156000B0F9000003F08CFB06467D4903F08AFACF
:1015700005467C4903F0D0FB04467D4801682046BF
:1015800003F012FA7A4908607A48B0F9000003F0D3
:1015900077FB0646724903F075FA0546714903F078
:1015A000BBFB044674480168204603F0FDF972490C
:1015B00008607248B0F9000003F062FB834670488F
:1015C000B0F9000003F05CFB5946009003F05AFAB2
:1015D000824603F0BDF9804600F0CAFF06464FF090
:1015E000C042684B02F0C0FF044602F059FD664954
:1015F00008606248B0F9000003F042FB834663488C
:10160000B0F9000003F03CFB5946009003F03AFAB1
:10161000824603F09DF9064600F0AAFF81F00041E2
:1016200080464FF0C04200E082E0564B02F09CFF43
:10163000044602F035FD564908605448B0F90000F0
:1016400003F01EFB83464E48B0F9000003F018FB80
:101650005946009003F016FA824603F079F9804665
:1016600000F086FF06464FF0C042464B02F07CFF7A
:10167000044602F015FD474908604748B0F90000EC
:1016800003F0FEFA009003F063F906460F46434864
:10169000B0F9000003F0F4FA009003F059F9804625
:1016A00032463B4601F074F804464FF0C042354BD9
:1016B00002F05AFF824602F0F3FC394908602748DD
:1016C000B0F9000003F0DCFA0546254903F0DAF929
:1016D000044622462C480168324800F005FA324997
:1016E00008602248B0F9000003F0CAFA05461C4918
:1016F00003F0C8F904462246254801682B4800F04B
:10170000F3F92B4908601B48B0F9000003F0B8FA60
:101710000546134903F0B6F90446224620480168FD
:10172000244800F0E1F92449086080200A49086053
:101730000948006800F4807018B14FF480700649C1
:1017400008600548006800F4007018B14FF400709C
:1017500001490860BDE8F88F140401401E01002013
:10176000333383410AD7A33B24010020200100200A
:1017700028010020220100202C0100201C01002053
:101780001A010020E3A54C40300100201801002080
:1017900034010020380100204A01002048010020C7
:1017A00050010020900000203C010020C0000020DB
:1017B00040010020600000204401002070B5364840
:1017C000007898BB03213548007801F07FFB044680
:1017D00004213248007801F079FB054645EA0420EF
:1017E00000B22F49088007212C48007801F06EFBD9
:1017F000044608212948007801F068FB054645EABF
:10180000042000B22749088005212448007801F00F
:101810005DFB044606212148007801F057FB054690
:1018200045EA042000B22049088033E0FFE70021A8
:101830001A48007801F04AFB054601211748007854
:1018400001F044FB044645EA042000B21449088034
:1018500002211248007801F039FB054603210F48A8
:10186000007801F033FB044645EA042000B20D493C
:10187000088004210948007801F028FB054605216D
:101880000648007801F022FB044645EA042000B235
:101890000549088070BD000055010020540100205A
:1018A000480100204A0100204C01002010B501220F
:1018B0000B21104601F0B6FA012001F041F9012296
:1018C0000A21104601F0AEFA012001F039F9002298
:1018D0000A21012001F0A6FA10BD70B500250122F1
:1018E0000B21104601F09EFA002418E000220A2184
:1018F000012001F097FA012001F022F901220A21CA
:10190000104601F08FFA0B21012001F0A7F910B168
:10191000802020410543012001F012F9641C082CAD
:10192000E4DB00220A21012001F07CFA284670BD88
:1019300070B50546002422E080202041284028B1CF
:1019400001220B21104601F06DFA04E000220B2168
:10195000012001F067FA012001F0F2F801220A21CA
:10196000104601F05FFA012001F0EAF800220A2196
:10197000012001F057FA012001F0E2F8641C082C64
:10198000DADB70BD10B501220B21104601F04AFAD6
:1019900001220A21104601F045FA012001F0D0F899
:1019A00000220B21012001F03DFA012001F0C8F8CE
:1019B00000220A21012001F035FA10BD10B50022E5
:1019C0000B21012001F02EFA01220A21104601F01C
:1019D00029FA012001F0B4F801220B21104601F090
:1019E00021FA012001F0ACF810BD70B500240122ED
:1019F0000B21104601F016FA012001F0A1F8012296
:101A00000A21104601F00EFA012001F099F80AE0CF
:101A1000601CC4B2322C03DDFFF7D0FF012070BD83
:101A2000012001F08DF80B21012001F017F90028A9
:101A3000EED10B21012001F011F9054600220A2107
:101A4000012001F0EFF92846E9E7000010B5012276
:101A50004FF4E131104602F023FA1D48008820F0CF
:101A600020001B4908801BA001F038FB0A2001F070
:101A70005BF800231A461946184600F09DFF6420C3
:101A800001F052F8022000F0EFFB642001F04CF866
:101A9000142000F08FFB642001F046F80D2000F0C8
:101AA0009DFB642001F040F80E4800F0ABFB642081
:101AB00001F03AF84FF4C86000F0C0FB642001F078
:101AC00033F800231A461946184600F075FF10BD7A
:101AD0000C4400402475706C6F61643A302C302CDB
:101AE00030230000000040422DE9F05F04460D461F
:101AF00016463046E16A03F017FA8046E16903F0C2
:101B00000BF90746A16A02F04FFFA062E06AE062AB
:101B1000D4E9060103F000F98246E16903F0FCF81C
:101B20008046D4E9040102F03FFF8346E16903F0F7
:101B3000F3F88246E16803F0ECF98146414602F091
:101B400033FF0746216802F02FFFE060D4E9060169
:101B500003F0E2F80746216903F0DBF92061D4E9DC
:101B6000060103F0D9F80746616903F0D2F9606114
:101B70006168A06902F018FFA061D4E9021002F0C8
:101B800013FF07463946E06802F07CFF2062D4E983
:101B9000021002F009FF07463946606902F072FF41
:101BA00060622846A16A03F0BFF98046216A03F00B
:101BB000B3F80746A16A02F0F7FEA0622846A16AC0
:101BC00003F0B2F98046616A03F0A6F80746E16ABD
:101BD00002F0EAFEE0624FF07E50216A03F0A4F9C1
:101BE0000746E16803F098F8E0604FF07E50216A04
:101BF00003F09AF90746216903F08EF82061616AC3
:101C0000E06803F089F80746616903F082F96061D2
:101C1000616A206903F080F80746A16903F079F949
:101C2000A061A06ABDE8F09F70B53B2000F058F8B5
:101C300004463C2000F054F8054645EA042000B272
:101C4000214908803D2000F04BF804463E2000F07A
:101C500047F8054645EA042000B21C4908803F20A9
:101C600000F03EF80446402000F03AF8054645EA08
:101C7000042000B216490880432000F031F80446E1
:101C8000442000F02DF8054645EA042000B2114931
:101C90000880452000F024F80446462000F020F893
:101CA000054645EA042000B20B490880472000F0B1
:101CB00017F80446482000F013F8054645EA0420CA
:101CC00000B20649088070BD180100201A010020EA
:101CD0001C0100201E010020200100202201002004
:101CE00070B50446FFF74EFED020FFF721FEFFF748
:101CF0007CFE2046FFF71CFEFFF777FEFFF75EFE37
:101D0000FFF740FED120FFF713FEFFF76EFEFFF74F
:101D1000E4FD0546FFF7CAFDFFF750FE284670BDFB
:101D2000014607238B431A02054B18684FF6FF0341
:101D300018401043034B1843014B186070470000D4
:101D40000CED00E00000FA0570B505460C460420D5
:101D5000FFF7E6FF0E48005D00F0010646EA0510B9
:101D6000C1B20B4801552046E21704EBD262521172
:101D7000A4EB421301229A402146E31704EBD363FC
:101D80005B119B0003F1E023C3F8002170BD00004C
:101D900000E400E070B500240EE00021204600F0D1
:101DA000D1F8002504E0002000F05EF9681CC5B2FF
:101DB000802DF8DB601CC4B2082CEEDB70BD10B5C2
:101DC00002220821012000F05BFF022209210120EC
:101DD00000F056FF01220821104601F023F80122ED
:101DE0000921104601F01EF810BD70B5054600240B
:101DF00013E08020204100EA05020921012001F0C2
:101E000011F801220821104601F00CF800220821E7
:101E1000012001F007F8601CC4B2082CE9DB0122A4
:101E20000821104600F0FEFF00220821012000F0EA
:101E3000F9FF70BD10B501220921104600F0F2FF34
:101E400001220821104600F0EDFF002209210120A7
:101E500000F0E8FF00220821012000F0E3FF10BDA0
:101E600010B500220921012000F0DCFF0122082129
:101E7000104600F0D7FF01220921104600F0D2FFE2
:101E800010BD70B5002406E0002500E06D1CB5F51E
:101E90007A7FFBD3641CB4F57A7FF5D3FFF78FFF0D
:101EA000AE2000F0D1F8D52000F0CEF8802000F070
:101EB000CBF8A82000F0C8F83F2000F0C5F8D320E8
:101EC00000F0C2F8002000F0BFF8402000F0BCF89D
:101ED000A12000F0B9F8C82000F0B6F8DA2000F030
:101EE000B3F8122000F0B0F8812000F0ADF8CF2058
:101EF00000F0AAF8D92000F0A7F8F12000F0A4F82B
:101F0000DB2000F0A1F8302000F09EF8A42000F0C3
:101F10009BF8A62000F098F88D2000F095F814208A
:101F200000F092F8AF2000F08FF8FFF733FF70BD9C
:101F300010B50246012000E050430B1EA1F1010143
:101F4000FAD110BD70B505460C4645F0B00000F062
:101F50007BF8102141EA141000F076F804F00F002D
:101F600000F072F870BD00002DE9F04105460E4604
:101F70001746721ED206110E6A1E5206100EFFF789
:101F8000E1FF002409E0A7F12001134A02EB01114F
:101F9000085D00F069F8601CC4B2082CF3DB721E07
:101FA000D206110E6A1E012303EB4202D0B2FFF7E4
:101FB000C9FF00240BE0A7F12001074A02EB011240
:101FC00004F10801505C00F04FF8601CC4B2082C0A
:101FD000F1DBBDE8F0810000285100082DE9F04751
:101FE00080460E4617461D46002415E0281B411E5C
:101FF0000A20FFF79DFFB7FBF0F00A21B0FBF1F2DA
:1020000001FB120000F130093019C1B24A464046C6
:10201000FFF7AAFF601CC4B2AC42E7DBBDE8F08763
:102020002DE9F04107460E461546002407E02A5DDB
:102030003019C1B23846FFF797FF601CC4B2285D63
:102040000028F4D1BDE8F08110B50446FFF7F2FE98
:102050007820FFF7CAFE0020FFF7C7FE2046FFF7F3
:10206000C4FEFFF7FDFE10BD10B50446FFF7E2FE0B
:102070007820FFF7BAFE4020FFF7B7FE2046FFF7B3
:10208000B4FEFFF7EDFE10BD70B5044625460D48C1
:10209000006828440B490860002005EB450100EB6F
:1020A0008100094991F90010691A002202FB01061A
:1020B00068B20549087050225142304600F0FBFEDC
:1020C00070BD0000F8000020F400002010B500F002
:1020D00001F810BD0CB50020019000903348006855
:1020E00040F480303149086000BF3048006800F497
:1020F000003000900198401C0190009818B9019898
:10210000B0F5A06FF1D12948006800F4003010B19B
:102110000120009001E0002000900098012843D1A8
:102120002348006840F01000214908600846006814
:1021300020F0030008600846006840F002000860D4
:102140001A4840681949486008464068486008468F
:10215000406840F4806048600846406820F47C1085
:1021600048600846406840F4E81048600846006847
:1021700040F08070086000BF0C48006800F00070FC
:102180000028F9D00948406820F00300074948605A
:102190000846406840F00200486000BF03484068BD
:1021A00000F00C000828F9D10CBD0000001002401E
:1021B0000020024010B50446224604A10648FEF75E
:1021C00035F8054800F08AFF10BD0000246D7068E6
:1021D0006173653A256423005C02002010B5044653
:1021E000224604A10648FEF721F8054800F076FFD4
:1021F00010BD0000246D6C696E653A2564230000F3
:102200005C02002070B50446204602F0A1FB0546A2
:102210002A460B4603A10848FEF708F8064800F0D6
:102220005DFF70BD24776469616D657465723A25E0
:102230002E336623000000005C02002010B5044627
:10224000224604A10748FDF7F1FF064800F046FFCB
:1022500010BD000024646561647A6F6E653A256480
:10226000230000005C02002010B50446224604A1B1
:102270000648FDF7DBFF054800F030FF10BD000009
:10228000246D747970653A25642300005C02002097
:1022900010B51348006840F0010011490860084675
:1022A0004068104908400E494860084600680E49D9
:1022B00008400B4908600846006820F48020086048
:1022C0000846406820F4FE0048604FF41F00886014
:1022D000FFF7FCFE4FF000600449086010BD0000ED
:1022E000001002400000FFF8FFFFF6FE08ED00E0DE
:1022F0004FF08040008A00F0010038B14FF080407C
:10230000008A20F001004FF08041088270470000F1
:1023100010B50748008800F0010038B100F0DCFF7C
:102320000348008820F001000149088010BD00002A
:10233000100400400548008800F0010028B103485F
:10234000008820F001000149088070471008004013
:1023500070B50848058805F02E0048B10548001DF5
:102360000088C4B205F0200010B1204601F0C4FC82
:1023700070BD000000380140054A118801F02E02AE
:1023800022B1034A121D1288D0B200BF704700006C
:102390000044004070B50848058805F02E0048B19B
:1023A0000548001D0088C4B205F0200010B1204689
:1023B00001F0A2FC70BD000000480040490050EA56
:1023C000C12018BF04204A0D18BF40F0010040F2A0
:1023D000FF72B2EB515F08BF40F00200012808BF56
:1023E000052070472DE9F0414F1E00EBC701044660
:1023F000D1E9000115461E4637F006020DD02A46E7
:10240000334602F0B1F87F1E04EBC703D3E9002383
:1024100001F078FE37F00602F1D1022F25D0042F0B
:1024200013D0062F18BFBDE8F0812A46334602F0CC
:102430009BF8D4E90A2301F065FE2A46334602F0F0
:1024400093F8D4E9082301F05DFE2A46334602F0F2
:102450008BF8D4E9062301F055FE2A46334602F0F4
:1024600083F8D4E9042301F04DFE2A46334602F0F6
:102470007BF8D4E9022301F045FE2A46334602F0F8
:1024800073F8D4E90023BDE8F04101F03BBE01221E
:1024900002F0F3BD01F036BE024A0020110702F03F
:1024A000ECBD000001FDFFFF30380A2801D20120F9
:1024B00070470020704700BF70472DE9F041044687
:1024C0000D4617461E46DDF818800CB9BDE8F081B0
:1024D000257067700EB1012000E00020A070A4F804
:1024E0000880002060816071A0710EB1042000E0BE
:1024F000012002463946284600F0C2FB39462846EC
:1025000000F0ACFB20712079E07000BFDEE70146EF
:1025100009B9002070474A79002048711046F9E750
:1025200070B504460E4604B970BD6178207800F09D
:1025300095FB05462079A84203D0257100206081D3
:10254000F2E760892189884203DA6089304460813A
:10255000EAE7E078A84208D0E570A078A84202D166
:102560000120607101E00120A07100BFDCE70000E4
:102570002DE9F84F04460D4621F0004000917349C3
:10258000814211DC7249884201DC06D12CB120461F
:102590002946BDE8F84FFFF77ABF6E48002DCCBF43
:1025A0006D496E49BDE8F88F6D49814211DD6D4975
:1025B0008142D8BF4FF0FF366DDD20462946FFF738
:1025C000FDFE042808BFFFF767FF20462946BDE847
:1025D000F88F6549654F25F00045814233DD644938
:1025E000814219DD002632464FF0804320462946BD
:1025F00001F088FD80468A4601222046294602F0E5
:102600003CFD00223B4602F0B9F84246534601F039
:1026100029FE04460D463EE001260022BA463B460E
:102620002046294601F06EFD80460F4600225346A3
:102630002046294602F0A2F842463B4601F012FE2F
:1026400004460D4627E04B4981421BDDDFF828A1F7
:102650000226002253462046294601F085FF00222B
:102660003B4601F04FFD80460F4600225346204670
:10267000294602F083F842463B4601F0F3FD04464A
:102680000D4608E0032622462B4600203B4901F078
:10269000E9FD04460D4622462B461046194601F038
:1026A00063FF8B46824602460B4601F05DFF0746FC
:1026B0000246334888460B4606217844FFF792FECF
:1026C00052465B4601F050FF82462E488B463A4602
:1026D000434605217844FFF785FE3A46434601F01C
:1026E00043FF02460B46002E504659460CDA01F0D5
:1026F00009FD22462B4601F037FF01B022462B464A
:10270000BDE8F04F02F02EB801F0FCFC22462B464B
:1027100001F02AFF1C4A7A4402EBC603D3E90023E6
:1027200002F02CF822462B4602F028F8174A7A4489
:1027300002EBC603D3E9002302F014F8009A002A42
:10274000B8BF81F00041BDE8F88F000000001044E0
:102750000000F07F182D4454FB21F93FFB21F9BF05
:102760000000DC3F0000203E0000F33F0000F03F8F
:102770000000E63F008003400000F83F0000F0BF8B
:10278000DA3000009830000036300000FE2F0000E4
:102790002DE9F04D9446CCF1000423F000464CEABC
:1027A0000404524F46EAD4749A46884621F0004207
:1027B000BC4206D8454240EA050442EAD474BC4211
:1027C00004D9BDE8F04D6246FFF764BEAAF140555A
:1027D000A5F17F6555EA0C040BD0022404EAAA7423
:1027E000434DDFF810E144EAD87452EA000B04D0FC
:1027F0000CE0BDE8F04DFFF7BBBE002C14BF012C70
:10280000BDE8F08D022C30D0032C32D056EA0C0BF0
:102810000AD0BE4220D1BA4209D126F0804622F029
:1028200080423346114617E000291ADB25E0DFF825
:10283000C8B0FB44002C04BFDBE90001BDE8F08D0B
:10284000012C02BFDBE9000181F00041BDE8F08D01
:10285000022C0AD0032C0CD0BA4212D1B8F1000FCE
:102860000BDA23482549BDE8F08D28462449BDE808
:10287000F08D28467146BDE8F08D1D482149BDE820
:10288000F08D921B12153C2AC4BF19481D490EDC5D
:10289000BAF1000FBEBF12F13C0F0020014606DB6B
:1028A000624601F0DFFC21F00041FFF761FE002CE1
:1028B00008BFBDE8F08D012C04BF81F00041BDE8E8
:1028C000F08D114A114B022C07D001F057FF2A4618
:1028D000BDE8F04D0A4B01F051BF01F04FFF2A4611
:1028E000BDE8F04D064B01F03DBF00000000F07F59
:1028F000182D4454FB2109C0922F0000FB21F9BF81
:10290000FB210940FB21F93F075C143326A6A13CBB
:102910002DE9F041064600242448007818B92448DF
:102920000068BDE8F08121480078072802DB2048D4
:102930000068F6E7002509E00120A840304018B102
:102940001C4850F825000444681CC5B2082DF3DB70
:102950001648007894FBF0F414480078032823DB31
:1029600014F1500F20DD502C1EDA06F00F0000F09D
:1029700043F88046300900F03FF80746B84502DDCD
:102980006FF0C70410E0474501DDC8240CE008489B
:102990000068502801DDC82406E00548006810F1F1
:1029A000500F01DA6FF0C7042046BAE70F0000208D
:1029B00018000020085100082DE9FC4104460D468E
:1029C00016461F462B46224605A10A48CDE9006758
:1029D000FDF72CFC074800F081FBBDE8FC810000FE
:1029E000247370643A25642C25642C25642C25649A
:1029F000230000005C0200200146002004E001F0FA
:102A000001020244D0B249100029F8D170470000F9
:102A100010B5002200213D4B5B78442B24D10020CF
:102A200016E000EB80039B1D384CE35C302B05D097
:102A300000EB80039B1DE35C312B07D100EB80038F
:102A40009B1D324CE35C303B314C2354431CD8B2C9
:102A50000828E6DB2F4B1B78FF2B48DA2D4B1B7821
:102A60005B1C2C4C237042E0284B5B78412B3DD102
:102A700000202FE0254B1B5C782B29D1234C831C95
:102A8000E35C3A2B24D1431CE35C312B20DB431C59
:102A9000E35C382B1CDC431CE35C313BDAB20021E5
:102AA000C31CD8B209E0194B1B5C303B01EB81041D
:102AB00003EB440399B2431CD8B2144B1B5C302B7C
:102AC00003DB124B1B5C392BEDDD134B23F812108B
:102AD000431CD8B26428CDD3104B1B78FF2B06DAE9
:102AE0000E4B1B785B1C0D4C237000E010BD0C4B93
:102AF0001B78FF2B04DA0A4B1B785B1C084C2370F5
:102B00000023084C237000BFF0E70000C80100203C
:102B100040000020110000202C02002012000020A4
:102B2000100000200C00002000B5034603E04FF425
:102B30007A7000F005F8181EA3F10103F7D100BD6B
:102B400000EBC001C9004FF0E0225161002191610A
:102B50000521116100BF4FF0E021096901F48031C6
:102B60000029F8D004214FF0E0221161704770B5C0
:102B700004460025092C56D2DFE804F055050F194C
:102B8000232D37414B000C21012000F067F801286C
:102B900001D1012500E0002545E00D21012000F0D4
:102BA0005DF8012801D1012500E000253BE00E2160
:102BB000012000F053F8012801D1012500E0002593
:102BC00031E00F21012000F049F8012801D1012551
:102BD00000E0002527E00821002000F03FF8012850
:102BE00001D1012500E000251DE00D21022000F0AB
:102BF00035F8012801D1012500E0002513E00E2160
:102C0000022000F02BF8012801D1012500E0002569
:102C100009E00F21022000F021F8012801D101254F
:102C200000E0002500BF00BF284670BD02460B46ED
:102C3000002A05DA52420BB9012000E000200346C9
:102C4000142092FBF0F1B1F57A7F01DD4FF47A7137
:102C50000BB108B27047484200B2FBE710B502461C
:102C6000064850F82200806801248C4000EA0403E2
:102C70000BB1012010BD0020FCE70000FC0000208B
:102C800070B5654CA469042585402C43624DAC6148
:102C900008295DDA614C54F8204024688E000F2525
:102CA000B540AC435D4D55F820502C601AB1032A55
:102CB00001D0022A0FD10124944044F003048D0076
:102CC000AC40564D55F820502D682C43534D55F8C7
:102CD00020502C609FE0012A01D0042A2AD14F4CB9
:102CE00054F8204024688E000825B5402C434B4DF5
:102CF00055F820502C60012A0ED1484C54F8204041
:102D0000E46801258D4024EA050301248C401C431E
:102D1000424D55F82050EC60042A7CD13F4C54F8C9
:102D20002040E56801248C40A5433C4C54F82040E9
:102D3000E56070E0042494408D00AC40374D55F8B8
:102D400020502D682C43354D55F820502C6062E002
:102D5000324C54F820406468A1F10805AE000F25FC
:102D6000B540AC432D4D55F820506C601AB1032A84
:102D700001D0022A11D10124944044F00304A1F1AE
:102D80000805AD00AC40254D55F820506D682C432A
:102D9000224D55F820506C603DE0012A01D0042AF4
:102DA0002AD11E4C54F820406468A1F10805AE00F9
:102DB0000825B5402C43194D55F820506C60012A68
:102DC0000CD1174C256801248C4025EA040301240A
:102DD0008C401C43114D55F82050EC60042A1AD148
:102DE0000E4C54F82040E46801258D40AC430B4D57
:102DF00055F82050EC600EE004249440A1F1080541
:102E0000AD00AC40054D55F820506D682C43034D86
:102E100055F820506C6070BD00100240FC0000208E
:102E20000C08014030B57AB10D4C54F82040E468EC
:102E300001258D4024EA050301248C401C43084DE4
:102E400055F82050EC600AE0054C54F82040E46846
:102E500001258D40AC43024D55F82050EC6030BD4B
:102E6000FC00002070B506460C46304600F0CEFC53
:102E70000546002D06DD09480068A04202DA074831
:102E8000046009E0002D07DA0448006861428842C6
:102E900002DD60420149086070BD00001C00002096
:102EA00003468B4201DA08467047934201DD104623
:102EB000FAE71846F8E703468B4201DA08467047FE
:102EC000934201DD1046FAE71846F8E770B504466C
:102ED0000D46FEF757FD2046FEF72AFDFEF785FD5D
:102EE0002846FEF725FDFEF780FDFEF767FDFEF79D
:102EF00049FD44F00100FEF71BFDFEF776FDFEF7ED
:102F0000ECFC0646FEF7D2FCFEF758FD304670BDDD
:102F100088B001224FF4E131104600F0C1FF0023D8
:102F20001A4619461846FFF747FD3220FFF7FCFD09
:102F300000F09EF800F034FCFEF7A3FFFEF72AFF36
:102F400000F050FC4FF49670FFF7EEFD14200023C4
:102F50000122114600902648FFF7AFFAFEF71AFF4C
:102F600045E00A212248FFF7DBFA2148FFF7CFFAB4
:102F700070B12048007828B100201E49087000F088
:102F80000FFC05E001201B49087000201A49086069
:102F900018480078C8B1184800680A301649086017
:102FA00000F046FC684600F055FE1348006844F601
:102FB0002061884203D29DF80200042804DB00F05F
:102FC000EFFB00200B49087001E000F0E9FB0B4823
:102FD00000680A300949086008460068C82803D319
:102FE0000020086000F08EF80A20FFF79DFDB8E78A
:102FF00058010020040000200800002000000020EC
:1030000010B50446094801782046FFF70FFE08492D
:1030100008800848B0F90030B0F900200846B0F93F
:103020000010B0F90000FFF7C7FC10BD4C000020F5
:103030005C0000205E00002010B5044609480178BD
:103040002046FFF7F3FD084908800846B0F9003034
:10305000B0F900200548B0F90010B0F90000FFF702
:10306000ABFC10BD4D0000205E0000205C00002085
:1030700010B5FEF7EBFC10BD70B505460C46002DF3
:1030800008DB012011490870284601F0F9FD1049BC
:10309000086007E000200D490870684201F0F0FD6B
:1030A0000B490860002C08DB01200A490870204603
:1030B00001F0E6FD0849086007E0002005490870B6
:1030C000604201F0DDFD0449086070BD4C00002045
:1030D000900200204D000020C402002010B50446DC
:1030E0002146012000F04AFF10BD0146002901DD04
:1030F00001207047002902DA4FF0FF30F9E7002085
:10310000F7E7000010B588B0684600F0A3FD354829
:10311000007808B134A000E035A00246012108463D
:10312000FEF77EFF34A206210120FEF779FF334827
:1031300008210268012000F085F931A20121022056
:10314000FEF76EFF032302210846029A00F052F9AF
:103150002CA207210220FEF763FF0323082102208F
:10316000039A00F047F928A20D210220FEF758FF2C
:103170009DF8022001230F210220FEF72FFF0024DB
:1031800014E09DF80100C4F10703184100F00100AC
:1031900008B1312000E02D200246012000EB440060
:1031A000C1B20320FEF7E0FE601CC4B2082CE8DBCD
:1031B00016A201210420FEF733FF9DF8042003230B
:1031C00002210420FEF70AFF11A206210420FEF7C7
:1031D00027FF9DF80720032307210420FEF7FEFEAA
:1031E00008B010BD0400002052554E200000000021
:1031F00053544F5000000000543A000008000020D3
:10320000450000005400000041430000460000005B
:103210004C0000002DE9F0410446D4E9000101F022
:1032200083FEA060206B01282DD1D4E9020101F0BA
:103230007BFE0546616901F06FFD2062A168A0690F
:1032400001F06AFDA0624FF08040E16801F064FD8A
:103250000746A16801F05DFE0646216901F0A4FB66
:103260000546E16901F058FD6062A16A206A01F03B
:103270009BFB0646616A01F097FB0546E16A01F097
:1032800093FBE06221E0206BF8B9A168606901F06E
:1032900043FD2062A168A06901F03EFD0546A16AD8
:1032A00001F082FBA062D4E9020101F03DFE054677
:1032B000E16901F031FD6062A16A206A01F074FBEE
:1032C0000546616A01F070FBE062E1682161A16876
:1032D000E160BDE8F081000010B500F0DDF82148A4
:1032E000007830B12048006801F0CAFC1F494860EE
:1032F00006E01D480068404201F0C2FC1B494860DE
:103300001B48007830B11B48006801F0B9FC1A492D
:10331000486006E017480068404201F0B1FC1649D9
:103320004860002010490860124908600F48FFF704
:1033300071FF1148FFF76EFF0C4800F01FF80E48B0
:1033400000F01CF80949C86A01F05EFC0446FFF76A
:1033500057FE0949C86A01F057FC0446FFF76CFEA6
:1033600010BD00004C000020500000209002002002
:103370004D00002054000020C402002010B5044677
:103380000749E06A01F094FD01D80548E062002198
:10339000E06A01F08DFC01D80020E06210BD000061
:1033A00000504347002000220F4B1A700F4B1A7039
:1033B000002115E00E4A525C3AB101228A400A4BC4
:1033C0001B781A43084B1A7008E001228A40024316
:1033D000D0B2064A1278521C044B1A704A1CD1B261
:1033E0000829E7DB704700000D0000200F000020D7
:1033F000400000202DE9F04106460C4615461F46C8
:10340000002D0CDA0DA221463046FEF709FE601CA5
:10341000C1B23B466A423046FEF7E0FD0BE008A22F
:1034200021463046FEF7FCFD601CC1B23B462A46F1
:103430003046FEF7D3FDBDE8F08100002D0000000E
:10344000200000002DE9F04106460C4615464FF4D9
:103450007A70B5FBF0F087B24FF47A70B5FBF0F1FB
:1034600000FB11500A21B0FBF1F802233A46214635
:103470003046FEF7B3FDA01CC1B206A23046FEF7EF
:10348000CFFDE01CC1B2022342463046FEF7A6FD46
:10349000BDE8F0812E0000002DE9F84F00200090DB
:1034A0000120FFF764FB04460220FFF760FB05469E
:1034B0000320FFF75CFB80460420FFF758FB8146A2
:1034C0000520FFF754FB82460620FFF750FB83469A
:1034D0000720FFF74CFB06460820FFF748FB07468E
:1034E000A4B99DB9B8F1000F10D1B9F1000F0DD1F9
:1034F000BAF1000F0AD1BBF1010F07D1012E05D19E
:10350000012F03D16FF00E000090E7E0012C12D1E3
:10351000012D10D1B8F1010F0DD1B9F1000F0AD171
:10352000BAF1000F07D1BBF1000F04D11EB917B9D2
:103530000F200090D2E02CB925B91EB917B9002090
:103540000090CBE0012C14D1012D12D1B8F1010F64
:103550000FD1B9F1000F0CD1BAF1010F09D1BBF1B4
:10356000010F06D1012E04D1012F02D1A01E00901F
:10357000B4E0012C14D1012D12D1B8F1000F0FD1FC
:10358000B9F1000F0CD1BAF1010F09D1BBF1010F54
:1035900006D1012E04D1012F02D1E01E00909DE042
:1035A000012C14D19DB9B8F1000F10D1B9F1010F60
:1035B0000DD1BAF1010F0AD1BBF1010F07D1012ED4
:1035C00005D1012F03D16FF00700009086E0ACB960
:1035D000012D13D1B8F1010F10D1B9F1010F0DD1A7
:1035E000BAF1010F0AD1BBF1010F07D1012E05D1AC
:1035F000012F03D16FF0090000906FE0012C14D16E
:10360000012D12D1B8F1010F0FD1B9F1010F0CD179
:10361000BAF1000F09D1BBF1010F06D1012E04D17F
:10362000012F02D10120009058E0012C14D1012D6E
:1036300012D1B8F1010F0FD1B9F1010F0CD1BAF1CC
:10364000000F09D1BBF1000F06D1012E04D1012FCB
:1036500002D10220009041E0012C13D1012D11D1A3
:10366000B8F1010F0ED1B9F1010F0BD1BAF1010F71
:1036700008D1BBF1000F05D126B9012F02D10820D6
:1036800000902BE0012C13D1012D11D1B8F1010FC5
:103690000ED1B9F1010F0BD1BAF1010F08D1BBF175
:1036A000010F05D1012E03D117B90A20009015E0B2
:1036B000012C13D1012D11D1B8F1010F0ED1B9F1A7
:1036C000000F0BD1BAF1000F08D1BBF1010F05D1EA
:1036D000012E03D1012F01D1002000900098FEF7A8
:1036E000D3FC074908600A461268C2F17801044A0F
:1036F000126802F17800FFF7BFFCBDE8F88F000008
:10370000F000002070B504460D46234800686E3076
:10371000844205DD204800686E301F4908600CE0D7
:103720001D4800686E38A04205DD1B4800686E38F1
:103730001949086001E018480460184800686E30B4
:10374000854205DD154800686E30144908600CE0BC
:10375000124800686E38A84205DD104800686E38CF
:103760000E49086001E00D4805600C4A128852427B
:103770000A3A11B2094A128852420A3A10B2064A6B
:103780001288C2F10A0213B2034A1288C2F10A0275
:1037900012B2FFF711F970BD2000002024000020B4
:1037A00010B50020094908600949086009490870F6
:1037B00009490870094908700949087000231A4628
:1037C00019461846FFF7F8F810BD00002000002049
:1037D000240000202A0000202B00002033000020BD
:1037E0003400002010B500224FF4E131104600F003
:1037F00057FB00F001F810BD10B502A1002000F049
:10380000BDFB10BD24302C312C31230010B50446F3
:10381000502C03DD0120FFF768FC10BD14F1500FA0
:1038200004DA4FF0FF30FFF760FCF6E70020F4E722
:103830002DE9F84FFFF7B6FDF64908700846007805
:1038400000F0AAFBF3480078FFF762F8F24908603D
:10385000F2480078032801DB012000E00020064642
:10386000EF480078002801DD012000E00020074635
:10387000E848007800F0030060B1EA480078FF28CB
:1038800004DAE8480078401CE64908700020E64960
:10389000087016E0DF48007800F0C00060B1E24830
:1038A0000078FF2804DAE0480078401CDE49087000
:1038B0000020DC49087004E00020DA490870DA4989
:1038C0000870D8480078022808DBD3480068B0F5B3
:1038D000967F03DAD548D049086021E0D2480078C5
:1038E000022809DBCC48006810F5967F04DD4FF410
:1038F0009670C949086013E046B1C748006850286F
:1039000004DD4FF4A570C449086009E046B1C2481F
:10391000006810F1500F03DAC4481E38BE49086031
:10392000C3480078D0B1BB48007800F0180090B1CF
:10393000C0480078FF2804DABE480078401CBD4922
:103940000870BC480078022808DB0020B8490870DD
:10395000B849087002E00020B6490870AF48007806
:1039600048B9B34890F90000002804DD4FF4A57071
:10397000A94908600BE0A948007840B9AC4890F923
:103980000000002803DAA9481E38A349086056B988
:10399000A4480078022806DAA3480078022802DA50
:1039A000A348007860B19C48006800EBC000A249C1
:1039B000096808440A2190FBF1F0974908600AE081
:1039C000954800689C49096801EB8000052190FB3F
:1039D000F1F09149086099480078FF2804DA974887
:1039E0000078401C9549087094480078642803DDED
:1039F000FFF7D6FEBDE8F88F88480078F0B90020C0
:103A000088490870884908708A4908708C4800788D
:103A1000FF2804DA8A480078401C894908708848E1
:103A20000078782805DD002081490870FFF7B8FE8E
:103A3000E0E737210846FFF765FEDBE70020804915
:103A400008707B48007890B17248007800F0180048
:103A500068B172480078042809DC002074490870B5
:103A6000744908707749087019206D4908706B48CF
:103A7000007805280ADB00206A4908706A49087046
:103A80006B490870644800686B49086000206D4904
:103A900008700FB1A02001E06B48006880460FB1AC
:103AA000462001E06948006881465B48006808FBE1
:103AB00000F059490968604A1268891A09FB010037
:103AC000642190FBF1F0624908603C225142604859
:103AD0000068FFF7E5F95E4908604F480068002874
:103AE00002DB4D48006802E04B4800684042054652
:103AF000B5F5967F05DDF52147480068FFF7B2F977
:103B000006E08C2D04DD782143480068FFF7AAF910
:103B100042480078032805DBC8213F480068FFF7CA
:103B2000A1F917E03D480078022813DC782D11DA5E
:103B30003F48007870B900F045F9454909680844E4
:103B4000434908603C22514241480068FFF7A8F908
:103B50003F490860B5F5967F01DD962411E00FB16D
:103B600058240EE04FF0C80A2846E91705EB5171BA
:103B7000AAEBE104C82296212046FFF791F90446FA
:103B800000BF25480068B0F5967F08DC2248006831
:103B900010F5967F03DB21480078032814DB2C49BD
:103BA0000968601804F13C026FF01D01FFF778F915
:103BB000009027490968601A04F13C026FF01D016A
:103BC000FFF76EF9834611E021490968601804F196
:103BD0003C021921FFF764F900901D490968601A39
:103BE00004F13C021921FFF75BF98346594600981E
:103BF000FFF788FD084800680F490860084800780A
:103C0000002804DD06480078401E0549087000BF02
:103C1000F0E600000E000020140000200F0000203D
:103C2000330000202800002029000020D4FEFFFFE0
:103C30002A0000202B000020180000200C0000208B
:103C40001300002034000020380000203C00002039
:103C50001C00002030B589B005461C4800788DF85E
:103C600004001B4800788DF805001A4800788DF88C
:103C70000600194800788DF80700184800788DF87C
:103C80000800174800788DF80900164800788DF86C
:103C90000A00154800788DF80B001448006803905E
:103CA000134800680490002407E0124830F814100C
:103CB00005A820F81410601CC4B2082CF5DB2022E3
:103CC00001A92846FCF7C8FB09B030BD0D00002053
:103CD0000E0000200F0000200C000020100000202B
:103CE000110000201200002013000020140000200A
:103CF0001C0000202C02002070B50546242D0ED19A
:103D000001202C49087000202B49087008460178D2
:103D10000078401C284A10702848455470BD25483A
:103D2000007800B9FAE72448007864280ED300240C
:103D300004E0002021490855601CC4B2642CF8D36B
:103D400000201C4908701C490870E7E71A480178F0
:103D50000078401C184A107018484554232D14D17F
:103D6000002408E01548005D154908550020134956
:103D70000855601CC4B2642CF4D300200D490870AF
:103D80000D490870FEF744FEC8E70B480078642828
:103D90000DD3002404E0002008490855601CC4B27B
:103DA000642CF8D30020034908700349087000BF51
:103DB000B4E7000048000020490000206401002012
:103DC000C80100200C480078102805DA0A4800785D
:103DD000401C0949087008E000200749087007489E
:103DE0000078404240B205490870044890F900004C
:103DF00016214843704700003200002031000020A7
:103E00002DE9F04F89B081468A46B9F1000F01D102
:103E10001F4C00E01F4C4FEA0A1094FBF0FB584681
:103E200000F08FFBCDE90401504600F073FB07461C
:103E30000022194B00F098FB05460E46204600F084
:103E40001FFF074600F084FD2A463346CDE90001F6
:103E500000F008FACDE90201DDE9042300F08EFC50
:103E6000CDE9060100F01CF908904FF08341089855
:103E700000F052FF0890089800F0E2FE00EB0B10F3
:103E8000064951F82910088109B0BDE8F08F0000FB
:103E900000A24A0400512502000030400801002021
:103EA00070B504460E46154634B91448806940F48E
:103EB00080401249886108E01048C06904F110018F
:103EC00001228A4010430D49C861204600F01AF8CB
:103ED00031462046FFF794FF094850F824008089B6
:103EE00042F22C010843064951F82410888104F15C
:103EF0002500C1B22846FDF727FF70BD0010024023
:103F00000801002010B5044624B1012C0DD0022C6C
:103F100021D115E0032209210020FEF7B1FE042281
:103F20000A210020FEF7ACFE15E00322022100204A
:103F3000FEF7A6FE042203210020FEF7A1FE0AE000
:103F400003220A210120FEF79BFE04220B210120FF
:103F5000FEF796FE00BF00BF10BD000000BF064A7E
:103F600052F82020128802F04002002AF7D0024ABC
:103F700052F82020918070470801002010B50446B7
:103F80000B4604E013F8011B2046FFF7E7FF187803
:103F90000028F7D110BD00002DE9F041064606F0DB
:103FA0000F00FEF729FD04463009FEF725FD054602
:103FB0000027002C02DD0DB97F1E0EE0002D02DD72
:103FC0000CB9012709E0681C844202DD4FF0FF377D
:103FD00003E0601C854200DD0127002F0BDD234834
:103FE00090F90000042806DA20480078401C40B20E
:103FF0001E49087026E0002F0CDA1C4890F90000DA
:1040000010F1040F06DD19480078401E40B2174930
:10401000087017E0B7B9154890F90000002806DDD0
:1040200012480078401E40B2104908700AE00F485C
:1040300090F90000002805DA0C480078401C40B2D6
:104040000A490870094890F90000022803DB0120A2
:104050000749087008E0054890F9000010F1020FC8
:1040600002DCFF2002490870BDE8F0812D0000202D
:104070002E00002010B500290AD00878002807D0AB
:1040800005487844FCF7D2FD002801D0002010BD7F
:104090000248784410BD000002180000FA17000022
:1040A00021F00042A2F16052B2F5801F01F00043FE
:1040B00028BFD2F17F6C0BD95FEA001C43EAC20231
:1040C00042EB507018BF704728BF20F001007047C6
:1040D000B2F5801FBCBF184670474FEA410C1CF573
:1040E000001F02D2084600F0DEBE70B500F0E6FA0E
:1040F00000000089FFF7F6BF4FF00040A0F58000F8
:104100007047000010B591EA030F48BF83F00043E9
:1041100000F13C83841A71EB030C05D2121943EBB6
:104120000C03001B61EB0C01DFF824E14FEA115492
:10413000A4EB135C1EEA430F18BF9EEA445F73D0E2
:1041400023EA0E03DCF1200E21EA045143F480132C
:1041500032D322FA0CFE10EB0E0023FA0CFE41EBD8
:104160000E01CCF1200E03FA0EFE10EB0E0051F101
:104170000001B1F5801FCCF1200E32D201EB0451C9
:1041800012FA0EF2BDE8104058BF7047401C38BF0D
:104190005FEA420218BF7047002814BF20F00100F8
:1041A00041F100014FEA410313F5001F38BF70478A
:1041B000A1F1C04100F0D0BA012A43EB0302ACF1F7
:1041C000200CDCF11F0E32BF4FF0000E23FA0CF36F
:1041D00010EB030041EB0451B4EB115FD0D0A1EB25
:1041E000045101F5801149085FEA300001EB0451E8
:1041F0000ED350F1000038BF12FA0EFE08D1BDE810
:104200001040C9E7401C38BF5FEA4202CAD1C3E789
:10421000BDE810404FEA410313F5001F38BF704757
:10422000A1F1C04100F098BA9EEA445F08D011EABB
:104230005E0FBDE8104004BF01F000410020704750
:10424000BDE8104070B500F039FA00BF64FBBE3E17
:104250000000E0FF02494FF0000000F0DCBE00BFAC
:104260000000F87F2DE9C04130B4DFF8A0C23CEA7D
:10427000111418BF3CEA131400F0EC8081EA030526
:104280001CEA111444EAD57418BF1CEA131500F097
:10429000C780A4EB05044FF0004545EAC12145EA7B
:1042A000C32341EA505143EA525304F17F749942C7
:1042B00004F500344FEAC0204FEAC22208BF904202
:1042C00000F09C804FEA13650FF24016765D4FEACE
:1042D000134506FB05F7C7F1807706FB07F74FEAA2
:1042E000D737A7FB03687642C8F58038A7FB06CE10
:1042F00038BFA8F1010807FB08E64FF0000EA6FB47
:10430000028CE6FB03CEDCF1000CCEF1004E38BF90
:10431000AEF1010EA6FB0C584FF000074FF0000560
:10432000E6FB0E87A1FB08C6A0FB07CE16EB0E0628
:1043300045F10005E1FB076515F1E04E7EBFA4F5F0
:1043400080345FEA46066D4116F1800745F10005AD
:104350004FEA17274FEA066647EA0567A6F1DE46E9
:10436000B6F1805F4FEA15251FD9384624F0010CBD
:1043700005EBC471BCF1FE6F01EB0C1102D8F0BC6F
:10438000BDE8008124425CBF01F5801E9EEAC47F27
:1043900002D4F0BCBDE80081244238D4F0BCA1F1C5
:1043A000C041BDE8004100F0D7B94FEAD22242EA4D
:1043B00043524FEAD323A7FB02864FEAD02040EABC
:1043C000415007FB03661EEA0E0F4FEAD12105FBA1
:1043D000026658BFA6EB0056B6EB00564FEA520EE7
:1043E0004EEAC37E18EB0E0E56EB530EBDD518EBFE
:1043F00002085E417F1C55F10005B6E74FF48015B9
:104400004FF000074FF000064FF00008ADE7F0BC9A
:104410004FF0000001F1C04101F00041BDE8008112
:1044200011EA0C1F0CEA131500D00CE013EA0C1F64
:1044300000F025804FF00000F0BC81EA030101F09C
:104440000041BDE80081F0BCBDE8004181EA030104
:1044500000F082B9F0BCBDE8004170B500F02EF963
:10446000097EFC3E00F007B881EA03014FF000002E
:1044700001F00041704781EA030100F06DB9F0BC22
:10448000BDE800414FF0000021497047FFFDFBF9F6
:10449000F7F5F4F2F0EEEDEBE9E8E6E4E3E1E0DE77
:1044A000DDDBDAD8D7D5D4D3D1D0CFCDCCCBCAC8E9
:1044B000C7C6C5C4C2C1C0BFBEBDBCBBBAB9B8B710
:1044C000B6B5B4B3B2B1B0AFAEADACABAAA9A8A803
:1044D000A7A6A5A4A3A3A2A1A09F9F9E9D9C9C9BD1
:1044E0009A9999989797969595949393929191907C
:1044F0008F8F8E8E8D8C8C8B8B8A8989888887870D
:104500008685858484838382828181800000FF0781
:104510000000F87F10F0004248BF4042B0FA80F33C
:1045200010FA03F10AD0C3F11D0303F580634FEACB
:10453000415002EB035202EBD12170474FF00000D3
:104540007047B0FA80F310FA03F10AD0C3F11D03EB
:1045500003F580634FEA41504FEA035202EBD12149
:1045600070474FF000007047DFF848C170B51CEA93
:10457000111E1EBF1CEA13159EEA0C0F95EA0C0FC4
:1045800000F06F8081EA030423EA4C134EEAD47EE4
:1045900021EA4C1141F4801143F48013AE44A1FB95
:1045A000024CA0FB0365AEF17F7E361955EB0C057E
:1045B000A1FB034C4CF10003A0FB021C16EB0C0604
:1045C000654153F10003094218BF46F0010613F498
:1045D000007F0BD14FEA03314FEA0530340341EA43
:1045E000155140EA16506FF003020AE04FEAC3216A
:1045F0004FEAC520F40241EA555140EA56506FF0A7
:10460000020202EB2E4201EB025585EACE710AD07E
:104610005FEA440C18BF24F0004450F1000041F15F
:10462000000120EAD47040F2FE7C624500D270BDE9
:10463000A84214BF4FF080444FF04044002E08BF02
:104640000024BEF1806FA8BFA1F1C041BDE8704059
:1046500080F282804FF0000001F1C04101F0004182
:1046600070479EEA0C0F0CEA131518BF95EA0C0F61
:1046700006D04FF0000081EA030E0EF0004170BD3D
:1046800000F01CF88900013E00F007B800F009B8FE
:104690004FEA430C5FEA5C5C08D081EA030100F05A
:1046A0005BB84FEA410C5FEA5C5CF6D14FF000006A
:1046B000014970470000FF070000F87F0EF1020E6D
:1046C0002EF0030E5EF8046B364205D4012A43EB4C
:1046D000030515F5001F12D8012841EB010C1CF54C
:1046E000001F0CD80ED14FEAD17C15F5001F0CEB42
:1046F0004C0C0CF1020C08BF4CEBD37C04E04FF0E7
:10470000080C01E04FEAD37C0CEB4C0526FA05F6C9
:1047100006F00706B6F1040C06D20EEB860CBDE8D7
:1047200070404CF0010C6047DFE80CF0090B02020E
:104730004FF000414FF00000A1F5002170BD194677
:104740001046012851EB010418BFD4F5001484BFB2
:10475000002001F0004170BD0808A0F500114FEAEB
:104760003101704791EA030F10B581F000413FF528
:10477000D1AC83F0004300F009B8000010B591EA15
:10478000030F48BF83F000433FF5C4AC841A71EBBC
:10479000030C07D212198CF0004C43EB0C03001BE6
:1047A00061EB0C01DFF8A4E14FEA1154A4EB135CB8
:1047B0001EEA430F18BF9EEA445F00F0B08023EA70
:1047C0006E03524221EA0451C3EB6E0338BF5B1EF5
:1047D000DCF1200E25D322FA0CFE10EB0E0043FA7A
:1047E0000CFE41EB0E01CCF1200E03FA0EFE10EB95
:1047F0000E0051F10001CCF1200E29D412FA0EF274
:1048000001EB0451BDE8104058BF7047401C1CBF6D
:10481000B2F1004F704700280CBF491C20F0010086
:10482000704712EB020E43EB030218BF4FF0010E6C
:104830004EEA4202ACF1200CDCF11E0E54D943FAD0
:104840000CFE10EB0E0051F1FF31CCF11E0ED5D550
:104850000EF1010E12FA0EFE404141EB010101EB97
:10486000445C5FEA5C5C10D910EBDE7001EB045134
:1048700038BFBEF1004FBDE8104018BF7047002898
:104880000CBF491C20F00100704730D24FEAD42CF5
:1048900011F5001124F400641BD0B1FA81F20B3A37
:1048A000A41AA41ED2F12003914030FA03F3194355
:1048B000904001EBCC71002C01EB0451BDE810409D
:1048C000A8BF704701F1C0414FF0000001F0004166
:1048D0007047B0FA80F310FA03F100D110BDE41A6A
:1048E000173C4805C90AE4E701EB045110BD491023
:1048F00001EB0451BDE810404FEA300002E04FF0F8
:10490000000170474A0008BF0042F8D0B2F5001F0E
:1049100028BF704701F000414FF0000070479EEA49
:10492000445F07D011EA5E0FBDE8104004BF0021CC
:1049300000207047BDE8104070B5FFF7BFFE00BF14
:1049400040DFF63E83F00041104670470000E0FF74
:1049500043004FEAD30C4FEA3C0C43401FBF4007D3
:104960000CF1605113F0FE4F70471CF0006F03D143
:1049700000200CF0004170470CF0004343EA5070F7
:1049800010B540EACC0000F048FA00BF00000092E9
:104990004FEA0001FFF7E0BE4FF000414FF000008A
:1049A000A1F500217047000090EA010F48BF81F097
:1049B000004100F1C082421A3CBF801A89184FEAB8
:1049C000D0524FF07F4C1CEA410FA2EBD15318BFDD
:1049D0009CEA026F00F03B804FF0004C4CEA002054
:1049E0004CEA012121FA03FC10EB0C0C1ED202F15F
:1049F000FF325FEA1C2040EBC25038BF70471CF00A
:104A00007F0F4FEA400C18BFBCF17F4F38BF704793
:104A1000C3F12003994008BF20F00100BCF17F4F93
:104A200038BF7047A0F1C04000F03DBA4FEA3C00EB
:104A3000000A40EBC25028BF1CF0FF0F4FEA400CA9
:104A4000E6D018BFBCF17F4F38BF7047EAE79CEA59
:104A5000026F05D010EA5C0F08BF00F000407047FD
:104A600010B500F0DAF900BF64FBBE3E401058BF3D
:104A7000C0F14040491058BFC1F140418142EFF3BD
:104A8000008070474FF47F0C1CEAD0121EBF1CEA56
:104A9000D11392EA0C0F93EA0C0F00F0858090EA94
:104AA000010F48BF42F4807240F4000C41F4000052
:104AB0002CF07F4120F07F4000B58142A2EB030241
:104AC0000FF2081CACEB504EC0F100009EF800E065
:104AD0004FEA4E0E00FB0EFC38BF49004FEA2C1C7B
:104AE00002F5FA020CFB0EF34FEACE1E4FEA112C30
:104AF0004FEAC1210EEB635E42EB22420EFB0CFC3F
:104B00004FEA1C5300FB03114FEA112C4FEA01310D
:104B10000EFB0CFC4FEADC4C00FB0C11C14228BF21
:104B200009184CEB03335DF804EB10EB410143EB48
:104B3000C250B2F57C0F38BF704729D512F0F00F84
:104B40001CBF00F1C04000F000407047008182832C
:104B50008485868788898B8C8D8E8F91929395968C
:104B600097999A9C9D9FA0A2A3A5A7A8AAACAEB016
:104B7000B2B3B5B7B9BCBEC0C2C5C7C9CCCED1D41B
:104B8000D7D9DCDFE2E6E9ECF0F3F7FAFE0000004B
:104B90004FEA400C0CF1807CBCF17E4F28BF70477F
:104BA000B0F1C04000F07FB990EA010F0CEAD113D8
:104BB00048BF42F48072624538BF634507D213F4A0
:104BC0007F0F16D080EA010000F00040704710B55A
:104BD00000F023F9097EFC3E00F005B880EA0100F0
:104BE00000F00040704780EA010000F0004000F053
:104BF0005AB912F47F0F04BF0248704780EA0100DF
:104C000000F051B90000C07F41000B0ED3F19E02AD
:104C100008D950F400034FEA032323FA02F048BFF7
:104C20004042704710B500F0F8F800BF4992248068
:104C3000002070476FF0004282EA200070470000B9
:104C4000C10DD1F19E0206DB4FEA002343F0004381
:104C500023FA02F07047004207D54FEA4001B1F154
:104C6000FE4F02D24FF00000704710B500F0D5F8AB
:104C700049922480002070476FEA200070470000AE
:104C800010F0004148BF4042B0FA80F310FA03F23E
:104C9000C3F19D030BD051EAC35101EB122053061F
:104CA00038BF704700F1010008BF20F001007047D5
:104CB00050EA010C00F113801CF5000F58BFBCF541
:104CC000000F01D48842704707D710F5000F58BF76
:104CD00011F5000F15D488427047894270471CF5C2
:104CE000000F04D5BCF5000FF7D5814270474FF097
:104CF000807C1CEB400F38BF1CEB410F01D281427E
:104D0000704710B500F089F8922449004FF0005028
:104D10004FF08051FFF7AABE4FF47F0C1CEAD0126F
:104D20001EBF1CEAD11392EA0C0F93EA0C0F00F09D
:104D3000478090EA010F48BF42F480724FF0004C68
:104D40004CEA00204CEA012102EB0302A0FB011314
:104D5000A2F50002002918BF43F001035B0028BF41
:104D60004FEA330342EB22425FEA132C4CEBC25072
:104D70002EBFBCEB436FB2F57C0F70474FEA036C5C
:104D8000BCF1004F08BF20F00100B2F57C0F38BF26
:104D900070470BD582F0FF0212F5803FC8BF704705
:104DA00000F1C040D8BF00F00040704700F5000C93
:104DB0005FEA4C0C48BF7047B0F1C04000F073B8D8
:104DC00090EA010F0CEAD11348BF42F480726245A9
:104DD00038BF634504D280EA010000F0004070470C
:104DE00010B500F01AF800BF8900013E00F007B8C6
:104DF00000F009B85FEA410C5FEA1C6C08D080EA59
:104E0000010000F050B85FEA400C5FEA1C6CF6D17C
:104E10004FF00040A0F5800070470EF1020E2EF01A
:104E2000030E5EF8044B244204D44FEA4102B2F16F
:104E30007F4F11D84FEA4003B3F17F4F0CD80ED10A
:104E40004FEAD07CB2F17F4F0CEB4C0C0CF1020C12
:104E500008BF4CEBD17C04E04FF0080C01E04FEAB6
:104E6000D17C0CEB4C0324FA03F404F00704B4F1F6
:104E7000040C06D20EEB840CBDE810404CF0010C83
:104E80006047DFE80CF0070802024FF00040A0F591
:104E9000800010BD0846420018BFD2F1807288BF62
:104EA00000F0004010BDFF2141EAD050C00570471E
:104EB00051EA000C00F113801CF5000F58BFBCF53F
:104EC000000F01D48142704707D711F5000F58BF7A
:104ED00010F5000F15D481427047894270471CF5C8
:104EE000000F04D5BCF5000FF7D5884270474FF08E
:104EF000807C1CEB410F38BF1CEB400F01D2884275
:104F0000704780EA010081EA000180EA0100FFF7B2
:104F1000F8BE80F0004090EA010F7FF54CAD81F0C3
:104F2000004100F008B8000090EA010F48BF81F08E
:104F300000413FF540AD421A04D882F00042A0EB98
:104F4000020011444FEAD0524FF07F4C1CEA410F4F
:104F5000A2EBD15318BF9CEA026F4AD04FF0004C2D
:104F60004CEA00204CEA012121FA03FCB0EB0C0CC6
:104F70000FD412F0FE0F36D05FEA4C001DD50012A0
:104F800040EBC25038BF70471CF03F0F18BF70474E
:104F90000BE0A2F101025FEA1C2040EBC25038BFD7
:104FA00070471CF07F0F18BF7047C3F12003994072
:104FB00014BF401E20F00100704780084FEA122302
:104FC00008BF7047B0FA80FCA2EB0C02CCF1280CB1
:104FD00060FA0CF093EA122F04BF00EBC250704746
:104FE0004FEAC3707047130A5FEADC1008BF7047CE
:104FF000F6E79CEA026F04D010EA5C0F08BF0020BD
:10500000704710B5FFF709FF40DFF63E81F0004022
:105010007047FBF789BB0CF00F03092B08BF082072
:1050200000F059800A2B0BD0082B18BF704708BF1F
:105030001CF0400F0AD04FF000004FF00001704705
:105040001CF0400F18BF4FF0004070471CF0100FCD
:1050500008D020F0704300F07F4242EAD3014FEACB
:105060004370704700F0604021F07F4242EA000246
:1050700001F07F4040EA727070474FF0FF0C4CF433
:10508000E06C1CEA11531CBF9CEA030C9445C2BFA0
:10509000DA4201EB02517047002B0DD0BCF1000F3A
:1050A0000FD0002A01F00041A4BF41F0E04141F0DF
:1050B0007F614FF00000704701F000414FF00000A9
:1050C000704750EA01334FF09B0C18BF4CF0806CD6
:1050D0007FF4C0A870471CF4801F11D01CF4E02F8F
:1050E00003D06FEACC31490070474FF04050EFF3E6
:1050F000008222F0704242EA000282F30088704788
:105100004FF000007047000056FFFFFF7EFFFFFFDB
:10511000BAFFFFFFE2FFFFFF1E0000004600000095
:1051200082000000AA000000000000000000000053
:105130000000000000000000000000F80000000077
:10514000000000333000000000100C06100C0600B8
:10515000000000000000000040C07840C07840001F
:10516000043F04043F040400007088FC0830000081
:10517000001820FF211E0000F008F000E0180000D9
:1051800000211C031E211E0000F008887000000092
:105190001E2123241927211010160E0000000000E4
:1051A0000000000000000000000000E01804020001
:1051B000000000071820400000020418E000000072
:1051C0000040201807000000404080F08040400070
:1051D0000202010F01020200000000F000000000C6
:1051E0000101011F0101010000000000000000009A
:1051F00080B070000000000000000000000000000F
:105200000001010101010101000000000000000097
:105210000030300000000000000000008060180432
:10522000006018060100000000E010080810E0000F
:10523000000F102020100F00001010F800000000D8
:105240000020203F2020000000700808088870001F
:10525000003028242221300000300888884830009F
:105260000018202020110E000000C02010F80000BF
:1052700000070424243F240000F808888808080058
:105280000019212020110E0000E01088881800006D
:10529000000F112020110E0000380808C83808003F
:1052A0000000003F000000000070880808887000BF
:1052B000001C222121221C0000E010080810E00040
:1052C0000000312222110F00000000C0C0000000C9
:1052D00000000030300000000000008000000000EE
:1052E00000008060000000000000804020100800E6
:1052F00000010204081020004040404040404000AF
:105300000404040404040400000810204080000089
:105310000020100804020100007048080808F0008E
:105320000000003036010000C030C828E810E0005E
:105330000718272423140B000000C038E0000000E9
:10534000203C23020227382008F888888870000053
:10535000203F202020110E00C03008080808380027
:10536000071820202010080008F808080810E0009E
:10537000203F202020100F0008F88888E80810003F
:10538000203F20202320180008F88888E808100013
:10539000203F200003000000C0300808083800004B
:1053A00007182020221E020008F808000008F8084C
:1053B000203F210101213F20000808F808080000D3
:1053C0000020203F2020000000000808F808080006
:1053D000C08080807F00000008F888C0281808007E
:1053E000203F20012638200008F8080000000000B7
:1053F000203F20202020300008F8F800F8F80800AE
:10540000203F003F003F200008F830C00008F808A7
:10541000203F200007183F00E01008080810E000B7
:105420000F10202020100F0008F808080808F000CE
:10543000203F210101010000E01008080810E000F1
:105440000F18242438504F0008F888888888700086
:10545000203F2000030C3020007088080808380026
:105460000038202121221C00180808F8080818001C
:105470000000203F2000000008F808000008F8089D
:10548000001F202020201F000878880000C838084E
:10549000000007380E010000F80800F80008F800C6
:1054A000033C0700073C0300081868808068180860
:1054B00020302C03032C30200838C800C8380800DE
:1054C0000000203F2000000010080808C83808002D
:1054D0002038262120201800000000FE02020200D1
:1054E0000000007F40404000000C30C00000000081
:1054F000000000010638C00000020202FE000000A9
:10550000004040407F00000000000402020204004E
:10551000000000000000000000000000000000008B
:105520008080808080808080000202040000000073
:10553000000000000000000000008080808000006B
:105540000019242222223F2008F800808000000059
:10555000003F112020110E0000000080808000001C
:10556000000E112020201100000000808088F8002B
:10557000000E112020103F2000008080808000005D
:10558000001F222222221300008080F088888818C1
:105590000020203F202000000000808080808000CC
:1055A000006B94949493600008F800808080000061
:1055B000203F210000203F2000809898000000003C
:1055C0000020203F2020000000000080989800006C
:1055D00000C08080807F000008F80000808080008C
:1055E000203F24022D302000000808F800000000B1
:1055F0000020203F2020000080808080808080006C
:10560000203F20003F20003F8080008080800000FD
:10561000203F210000203F2000008080808000008B
:10562000001F202020201F008080008080000000BC
:1056300080FFA12020110E000000008080808000EB
:10564000000E112020A0FF808080800080808000DC
:1056500020203F2120000100000080808080800009
:105660000033242424241900008080E0808000007E
:105670000000001F202000008080000000808000CB
:10568000001F202020103F2080808000008080802C
:1056900000010E30080601008080008000808080BC
:1056A0000F300C030C300F000080800080808000E1
:1056B0000020312E0E31200080808000008080800C
:1056C00080818E70180601000080808080808000BC
:1056D0000021302C2221300000000000807C0202DA
:1056E00000000000003F404000000000FF000000FC
:1056F00000000000FF0000000002027C80000000AB
:105700000040403F000000000006010102020404C6
:10571000000000000000000004000008000000007D
:105720000000000200010000100000000000000066
:105730004FBB610567ACDD3F182D4454FB21E93FA9
:105740009BF681D20B73EF3F182D4454FB21F93F98
:10575000E2652F227F2B7A3C075C143326A6813C1E
:10576000BDCBF07A8807703C075C143326A6913CC9
:10577000C4EB98999999C9BF711623FEC671BCBF35
:105780006D9A74AFF2B0B3BF9AFDDE522DDEADBF9D
:105790002F6C6A2C44B4A2BF0D5555555555D53FB5
:1057A000FF8300922449C23F6E204CC5CD45B73FD0
:1057B000513DD0A0660DB13FEB0D76244B7BA93F48
:1057C00011DA22E33AAD903F000000000000000033
:1057D00002400000000000A00000000005400000A2
:1057E000000000C8000000000C4000000000409CC9
:1057F00000000000194000000020BCBE00000000B6
:1058000034400000BFC91B8E00000004B5400000FA
:10581000504BCFD06607E2CF010000006C41000082
:105820003E8251AADFEEA73401000000D9420000F9
:10583000DCB5A0E23A301F97FFFFFFFFB445000040
:10584000FD25A0C8E9A3C14FFFFFFFFFFF3F0000F8
:105850000000008000000000FF3F0000000000800A
:1058600000000000A05800080000002058010000BF
:1058700028010008E45800085801002038080000FA
:10588000840100081C00000043000000F8FFFFFF37
:105890000C0000000E0000000F0000002E000000B1
:1058A000012C2AFF03620172505A0101490C0112B6
:1058B00030096F12833AA69B443B223F1A80048131
:1058C0000F6E803FCDCC4C3D30D1140801401A0CF6
:1058D000041A10041A3804124412401A4804013FF2
:0458E000323C000056
:04000005080000ED02
:00000001FF
