:020000040800F2
:1000000090090020E9010008F1010008F30100084F
:10001000F5010008F7010008F901000800000000E0
:10002000000000000000000000000000FB010008CC
:10003000FD01000800000000FF01000801020008A7
:10004000030200080302000803020008030200087C
:1000500003020008030200083D14000855140008BC
:100060006D140008A9140008C11400080302000858
:10007000030200080302000803020008030200084C
:10008000030200080302000803020008030200083C
:10009000030200080302000803020008FD14000820
:1000A000030200080302000803020008030200081C
:1000B000F12200081123000835230008030200087C
:1000C00003020008030200080302000803020008FC
:1000D0000302000851230008792300089523000833
:1000E00003020008030200080302000800F002F8FF
:1000F00000F06AF80AA090E8000C82448344AAF158
:100100000107DA4501D100F05FF8AFF2090EBAE855
:100110000F0013F0010F18BFFB1A43F0010318473B
:10012000445B0000645B00000A444FF0000C10F8D0
:10013000013B13F0070408BF10F8014B1D1108BF65
:1001400010F8015B641E05D010F8016B641E01F805
:10015000016BF9D113F0080F1EBF10F8014BAD1C55
:100160000C1B09D16D1E58BF01F801CBFAD505E073
:1001700014F8016B01F8016B6D1EF9D59142D6D3CD
:10018000704700000023002400250026103A28BFF5
:1001900078C1FBD8520728BF30C148BF0B607047F9
:1001A000662905F03881642900F0568000207047E8
:1001B0001FB500F00DFC04000020002104F05CF9E4
:1001C000E0601FBD10B510BD00F002FD1146FFF745
:1001D000EFFF02F043FF00F020FD03B4FFF7F2FF52
:1001E00003BC02F062F90000094880470948004753
:1001F000FEE7FEE7FEE7FEE7FEE7FEE7FEE7FEE7D7
:10020000FEE7FEE704480549054A064B7047000033
:1002100091220008ED0000089003002090090020C2
:100220009005002090050020704700000FB41CB519
:10023000084B06AA7B4469460090059800F0AFFB86
:1002400004460020694600F0BDFB20461CBC5DF85A
:1002500014FB00008D0700002DE9F0410646002444
:1002600010687529314616A510D0AFF3008000281C
:1002700002DA404213A507E031688A0701D512A5CA
:1002800002E0490704D511A5012401E0AFF3008085
:1002900000210A2206F1240709E0B0FBF2FCB0FBC2
:1002A000F2F302FB1C00303078541846491C002839
:1002B000F3D123462A463046BDE8F04100F002B9AA
:1002C000000000002D0000002B00000020000000B6
:1002D0002DE9F05F894604464FF0000ADFF874B15B
:1002E000FB44C0F820A02046E1688847002874D06D
:1002F000252806D0D4E901219047206A401C2062BD
:10030000F1E700265F462046E16888472028054639
:1003100007DB312D05D2781910F8200C08B10643FF
:10032000F1E7B00701D526F00406C4F81CA00027A9
:10033000C4F818A02A2D09D0284602F0AFF838B327
:1003400004EB8708303DC8F8185019E059F8041B31
:10035000204604EB87029161E1688847012F05463A
:1003600018D1E069002820DA26F020061DE0D8F830
:10037000180000EB800005EB40003038C8F818008A
:100380002046E1688847054602F088F80028EED14B
:10039000012F0AD02E2D08D12046E16888477F1C06
:1003A0000546022F46F02006C4DBA069002803DAC8
:1003B000404246F00106A061F00701D026F0100689
:1003C0006C2D0BD0682D09D04C2D39D06A2D35D02D
:1003D000742D35D07A2D33D016E038E0E1682F4601
:1003E00020468847B842054609D16C2F26D04FF4E5
:1003F0008060E168064320468847054604E06C2F8C
:100400001AD04FF4807006430DB3A5F141001928AE
:1004100002D8203546F400664A4629462046266022
:100420004E46FFF7BDFE80B101280BD0F61D26F029
:10043000070000F1080956E74020E4E78020D8E7EC
:100440000020D6E706F104094DE7284652E7206A66
:10045000BDE8F09F3858000010B5203AC0F00B807E
:10046000B1E81850203AA0E81850B1E81850A0E8B8
:100470001850BFF4F5AF5FEA027C24BFB1E8185012
:10048000A0E8185044BF18C918C0BDE810405FEA82
:10049000827C24BF51F8043B40F8043B08BF7047FE
:1004A000D20728BF31F8023B48BF11F8012B28BF03
:1004B00020F8023B48BF00F8012B70477047704797
:1004C000704770472DE9F0470D469946924604461D
:1004D00000F124080168880604D5E06921F01001C4
:1004E000216000E00120A84201DD471B00E0002759
:1004F000A1697A1902EB0900081AA0612078C006E8
:1005000002D42046AFF30080002608E0D4E90121A0
:100510001AF806009047206A401C761C20624E455F
:10052000F4DB2078C0060AD52046AFF3008006E051
:10053000D4E9012130209047206A401C2062381EF7
:10054000A7F10107F4DC07E0D4E9012118F8050060
:100550009047206A401C2062281EA5F10105F3DCAB
:100560002046AFF300802078000602D50220BDE8C7
:10057000F0870120FBE770472DE9FF4F0C461E4630
:100580004FF0FF378BB0D2E90001DDF860800A90B0
:100590008A46C1F30A5505B93D46002108464FF089
:1005A0000000BAF1000F00F4400005DA00EB800013
:1005B0004FF4400101EA50004FEA9059B9F1010FA0
:1005C00000DDB9460A9850EA4A000ED044F61050B1
:1005D000A5F2FF3545432F14B8F1000F1ED0754228
:1005E000291E1EDDC9F100021CE0B8F1010F4FF019
:1005F000000001D0302103E0F24305E02154401C0B
:10060000B042FBDB30460022002121540B99C1F897
:100610000880C1E900200FB0BDE8F08FBD1B6D1C44
:10062000DEE74A4600DA694206A800F05BFA06AB4C
:1006300093E8070003AB83E8070050460A9900F0EF
:1006400035FB8DE80700A0F500501F380090039897
:10065000002D0ADD42F21F014A460844002303A987
:100660000390684600F09EFD09E0A0F500504A4660
:100670001F38002303A90390684600F0A8FD8DE809
:1006800007000004000C03D04FF0FF30410800E0E9
:100690001046B8F1000F03D00022009215461EE06C
:1006A000751E05D400F098F9303262556D1EF9D5EB
:1006B000B3460122084302D000227F1C04E02078C8
:1006C000302801D100227F1E002A099784D01DE026
:1006D000112D07DA00F080F9303262556D1C50EAB6
:1006E0000102F5D1084302D00098C8B10EE0002104
:1006F000681E05E0235C625C63542254401E491C62
:100700008142F7DBAB46A81B401E0990002004F88D
:100710000B000B98099AC0F80880C0E9002B7AE713
:1007200011264FF0000857E72DE9F04F88460446A0
:10073000D21D22F0070191B0D1E90001CDE90A01F3
:1007400001F036FE02460B98C00F01D02D2007E0C5
:100750002068810701D52B2002E0202101EAC0009A
:10076000032A099001D0072A05DB034641462046AB
:1007700000F078F90BE12078800601D5E06900E00F
:100780000620B8F1650F814606D0B8F1660F18D083
:10079000B8F1670F70D131E00020B9F1110F00906E
:1007A00001DB112301E009F101030AAA01A90CA848
:1007B000FFF7E2FEDDE90C70002609F10105834632
:1007C00047E001204B4600904FF000470AAA01A9DC
:1007D0000CA8FFF7D1FEDDE90DB00C995D460026AF
:1007E00010B909F101000D18B9EB050003D4C0F1EF
:1007F000FF3609F10105A5EB09002BE0B9F1010F66
:1008000001DA4FF001090020B9F1110F00904846BC
:1008100001DD112300E003460AAA01A90CA8FFF795
:10082000ABFEDDE90C704D460026834620780007BC
:100830000AD4AB4500DA5D4601A8012D04DD41195B
:1008400011F8011C302907D04F4502DA17F1040FC7
:1008500004DA012082460FE06D1EEEE7002F02DC75
:10086000ED1B3E4403E0781CA84200DD7D1CB81B54
:1008700000F1010A4FF000472078000703D4AA4591
:1008800001DB4FF0FF3A0021B7F1004F0DF14308B3
:100890008DF8431024D002202B23002F01DA7F4251
:1008A0002D230A21021EA0F1010000DC5FB197FB9D
:1008B000F1FC97FBF1F201FB1C7C17460CF1300CAC
:1008C00008F801CDEEE7A8F10100037021880905C1
:1008D00001D5452100E06521A0F1010800F8011CC7
:1008E00009980FA9A1EB0807FF1D00B101204119CC
:1008F00001EBEA70A1693844081A401EA061207813
:10090000C00602D42046AFF30080099828B1D4E98C
:1009100001219047206A401C20622078C00622D521
:100920002046AFF300801EE0002E04DBB34502DD5D
:1009300001A8805D00E03020D4E901219047206AC1
:10094000401C2062761CAAF101005FEA000A0AD16D
:1009500000F03EF8C0680168405CD4E9012190478E
:10096000206A401C2062281EA5F10105DCDC07E09E
:10097000D4E9012118F8010B9047206A401C20623D
:10098000381EA7F10107F3DC2046AFF300800320F7
:1009900011B041E601694A1C02610878704700B550
:1009A0008FB0CDE901310021059105497944CDE9A8
:1009B000031011466846FFF78BFC0FB000BD000026
:1009C000E5FFFFFF0A6802F8010B0A6070470000AC
:1009D000004870475003002030B5B0F10A024FEADA
:1009E000900E71F100034EEA817EB0EB0E0061EBD8
:1009F00091014FEA101E4EEA017E10EB0E0041EB12
:100A000011114FEA102E4EEA016E10EB0E0041EB71
:100A100011214FEA104E4EEA014E10EB0E0041EB51
:100A20001141401841F100014FEAD00040EA417005
:100A30004FEAD10110EB80054FEA810444EA90743B
:100A400044EB01046D1944EB0404521BA3414FF025
:100A5000000348BF0A3200D530BD401C41F10001FF
:100A600030BD00002DE9F0411F4604460326016811
:100A7000072A01F4006004DB08B116A505E016A5FD
:100A800003E008B115A500E015A521F010002060D5
:100A9000A069C01EA0610FB1401EA0612046AFF347
:100AA00000804FB1D4E9012138469047206A401CAC
:100AB0002062C01C206206E0206AFAE7D4E9012126
:100AC00015F8010B9047761EF8D22046AFF3008050
:100AD000BDE8F0814E414E006E616E00494E460009
:100AE000696E66002DE9F047814616468AB03548A2
:100AF00078440DC88DE80D0032487844801C03AC62
:100B00000DC884E80D0041F69B300844372190FB66
:100B1000F1F290FBF1F5A5F1800501FB12041B3CFD
:100B200002D56442012000E00020DFF898A0804652
:100B30000027FA44AAF1BE0A0EE0E0070AD03246C6
:100B4000684607EB470101230AEB810100F03FFBF8
:100B50008DE8070064107F1C002CEED1194F7F44F4
:100B6000AE3F19E0E80715D007EB04100DF1180AA5
:100B700090E80E008AE80E00C068F04201D1981992
:100B800008903246012306A903A800F020FB03AB1E
:100B900083E807006D10641C002DE3D14FF00103C2
:100BA00032466946B8F1000F03A802D000F0FAFA05
:100BB00001E000F00CFBC9E90001C9F808200AB007
:100BC000BDE8F0875851000000487047300300200E
:100BD0007546FFF7F9FFAE4605006946534620F01B
:100BE0000700854618B020B5FFF70CFBBDE8204094
:100BF0004FF000064FF000074FF000084FF0000BD9
:100C000021F00701AC46ACE8C009ACE8C009ACE88B
:100C1000C009ACE8C0098D46704710B50446AFF373
:100C200000802046BDE81040FFF7D7BA4FF0013CE6
:100C300050F8042B51F8043B9A4221D1A2EB0C034B
:100C4000934313EACC1317D150F8042B51F8043B0B
:100C50009A4215D1A2EB0C03934313EACC130BD1A8
:100C600050F8042B51F8043B9A4209D1A2EB0C0333
:100C7000934313EACC13DBD04FF00000704700BF62
:100C8000D01A01BAB1FA81F101F0180122FA01F08B
:100C9000CB40C1F12001DBB2C0B2C01A2CFA01F383
:100CA000D11A914311EAC311E6D170475FEA400CB3
:100CB00008BF91F0000F4FEA8C234FEAC12243EAAC
:100CC00051514FEA1C5018BF00F5F0404FEA300078
:100CD00018BF41F000415FEA6C5C00F02980BCF174
:100CE000FF3F08BF40F080407047130C06BF12045E
:100CF0004FF0100C4FF0000C130E04BF12020CF159
:100D0000080C130F04BF12010CF1040C930F04BF65
:100D100092000CF1020CD30F04BF52000CF1010C35
:100D200011464FF00002A0F11F00A0EB0C0070472D
:100D300011F0004F08BF704731F000413FF4D5AFCC
:100D40000B0C06BF09044FF0100C4FF0000C0B0EFB
:100D500004BF09020CF1080C0B0F04BF09010CF1D0
:100D6000040C8B0F04BF89000CF1020CCB0F04BFE5
:100D700049000CF1010CCCF12003A0EB0C0022FA8D
:100D800003F302FA0CF241EA030100F1010070479B
:100D900020F07F4C80EA030023F07F47ACEB070391
:100DA00003F57C5300F0004003F1FF032DE9804977
:100DB0004FEA154B09B44FEA144325EA0B4E24EAD7
:100DC00003480FF2042606EB132749083E785FEA32
:100DD000320203FB0667C7F5000707FB06F64FEA7A
:100DE00054374FEAD64606F1020607FB066CCCF1F3
:100DF000005C4FEA1C472CEA074C07FB06F40CFB8F
:100E000006F504EB15464FEA961634BF00204FF066
:100E100000404FEAD13706FB07FC4FEA1C4C0CFBA5
:100E20000BF7D21B03FB0CF761EB07010CFB0EF772
:100E3000B0EB074072EB17420CFB08F734BFA2EB94
:100E40000742B2EB074261EB17414FEA0C444FEA0D
:100E5000910706FB07FC4FEA1C4C0CFB0BF7B0EBB1
:100E6000C74072EB573203FB0CF734BFA2EBC7420B
:100E7000B2EBC74261EB57310CFB0EF7B0EBC7008A
:100E800072EB57720CFB08F734BFA2EBC702B2EB50
:100E9000C70261EB5771039F4FEA816141EA9211EA
:100EA00004EBCC044FEAD1374FEA826206FB07FC21
:100EB00042EA90124FEA80604FEA1C4C0CFB0BF7A1
:100EC000D21B03FB0CF761EB07010CFB0EF7B0EB39
:100ED000074072EB17420CFB08F734BFA2EB074246
:100EE000B2EB074261EB17414FEA8C554FEA91078D
:100EF00004EB9C2406FB07FC4FEA1C4C0CFB0BF795
:100F0000B0EBC74072EB573203FB0CF734BFA2EBD8
:100F1000C742B2EBC74261EB57310CFB0EF7B0EBA7
:100F2000C70072EB57720CFB08F734BFA2EBC70285
:100F3000B2EBC70261EB577115EB4C254FEA8161AB
:100F400041EA92114FEA82624FEAD13742EA9012A7
:100F500006FB07FC44F100044FEA80604FEA1C4C9A
:100F60000CFB0BF7D21B03FB0CF761EB07010CFB2F
:100F70000EF7B0EB074072EB17420CFB08F734BFDB
:100F8000A2EB0742B2EB074261EB174115EB1C15D0
:100F90004FEA813141EA92414FEA823242EA90427D
:100FA0004FEA80304FEA0C7644F1000448EA0343EC
:100FB0004EEA0B484FF0000EB2EB080C71EB030742
:100FC00024BF624639464EEB0E0E4FF0000B001860
:100FD000524149414BEB0B0BB2EB080C71EB030791
:100FE0007BF1000B24BF624639464EEB0E0E4FF0EC
:100FF000000B0018524149414BEB0B0BB2EB080CB4
:1010000071EB03077BF1000B24BF624639464EEBC0
:101010000E0E51EA020718BF46F0010616EB0E76D7
:1010200055F1000254F1000103D5BDE88901BDE886
:101030000088BDE88901BDE80048B619524141EB7E
:101040000101A3F10103704780807F7E7D7C7B7A64
:101050007978777676757473727171706F6E6E6D64
:101060006C6C6B6A6A69686867666665646463630A
:1010700062616160605F5F5E5E5D5D5C5C5B5B5A90
:101080005A595958585757565655555554545353FD
:1010900052525251515050504F4F4F4E4E4D4D4D58
:1010A0004C4C4C4B4B4B4A4A4A49494948484847A3
:1010B00047474746464645454544444444434343E1
:1010C0004342424242414141002B9C4630D477008A
:1010D0002BD01CB54FEA370703B44FF010004FF088
:1010E0001001BAF1000F06D0BCF1000FDCBF40F0D8
:1010F000080040F008014FF000000FBCBDE81040B0
:101100000BF1010BBBF1010F08BF5FEA170722BF0C
:1011100012F1010211F101014FF0004143F100030E
:1011200000F0004043EA00007047F9D35708D0E7C9
:1011300046EA064613F1400F4FEA16461FDD13F14B
:10114000200FDFBF16430A46002120335B42BED08A
:10115000C3F1200746EA064602FA07F74FEA1646A9
:1011600046EA0706C3F1200722FA03F201FA07F75D
:1011700021FA03F14FF0000342EA0702A7E746EA2B
:10118000020646EA06464FEA164646EA0106BCBF94
:1011900046EA0646360C4FF000034FF000024FF0CF
:1011A000000194E72DE9804C9A46934670B491E88B
:1011B000380007C831EA400C48BF34EA430C03D575
:1011C000FFF7E6FDFFF780FFF0BCBDE8008C2DE9DE
:1011D000804C9A46934670B491E8380007C810F0E6
:1011E000804F08BF13F0804F03D100F005F8FFF7E0
:1011F0006BFFF0BCBDE8008C20F07F4780EA030065
:1012000023F07F4C07EB0C03A3F57C5300F0004068
:10121000A3F1FE0392F0000F00F0B38095F0000FF1
:1012200000F077802DE901494FEA11404FEA14465A
:1012300021EA004800FB06FC24EA064708FB06F604
:1012400007FB08F800FB07F718EB06484CEB164CB9
:101250004FEA124B18EB07484FEA15464CEB174084
:1012600022EA0B4E0BFB06FC25EA06470EFB06F6B0
:1012700007FB0EFE0BFB07F71EEB064E4CEB164C66
:101280004FF000061EEB074E4CEB174B18EB0B080C
:1012900040F1000018EB0E0B58EB000840F1000085
:1012A0008F1A4FF000013CBFC943661B14BFB5EB5A
:1012B000040C00213CBFC943F61B4FEA17444EEA19
:1012C0008E0E27EA04454FEA1C4704FB07622CEA0E
:1012D000074C05FB07F70CFB05F604FB0CFC16EBB3
:1012E000074642EB174216EB0C4642EB1C421BEB47
:1012F000060658EB0202414146EA9E0601D5BDE8CA
:101300000189B619524141EB0101A3F10103BDE886
:1013100001894FEA14454FEA114724EA054621EABC
:10132000074C05FB07F406FB07F70CFB06F105FB72
:101330000CFC11EB074144EB17444FEA124711EB49
:101340000C4144EB1C4422EA074C05FB07F206FB68
:1013500007F70CFB06F605FB0CFC16EB074642EB09
:10136000174216EB0C4642EB1C456A1854F100017B
:1013700048BF7047B619524141EB0101A3F1010387
:10138000704795F0000F37D04FEA11424FEA1447EB
:1013900021EA024624EA074C02FB07F106FB07F7A5
:1013A0000CFB06F402FB0CFC14EB074441EB174169
:1013B0004FEA154714EB0C4441EB1C4125EA074C5E
:1013C00002FB07F506FB07F70CFB06F602FB0CFC1D
:1013D00016EB074645EB174516EB0C4645EB1C4252
:1013E000121951F1000148BF7047B619524141EB43
:1013F0000101A3F1010370474FEA14454FEA114779
:1014000024EA054621EA074C05FB07F106FB07F72E
:101410000CFB06F24FF0000605FB0CFC12EB07423A
:1014200041EB174112EB0C4251EB1C4148BF704796
:10143000921841EB0101A3F10103704704480068D1
:1014400000F0010010B10120014908607047000060
:10145000140401400448006800F0020010B10220AA
:1014600001490860704700001404014010B50C48A1
:10147000006800F0040090B10321002001F094FC0A
:1014800028B108480068401E0649086004E0054885
:101490000068401C0349086004200149086010BD31
:1014A00014040140540000200448006800F00800C3
:1014B00010B1082001490860704700001404014081
:1014C00010B50C48006800F0100090B10521002014
:1014D00001F06AFC28B108480068401C0649086011
:1014E00004E005480068401E0349086010200149D7
:1014F000086010BD14040140580000202DE9F84F89
:101500009548006800F0200010B120209249086042
:101510009148006800F0400010B140208E490860FA
:101520008D48006800F0800000287DD000F07CFB32
:1015300000F044F98948B0F9000003F0A3FD064625
:10154000874903F0A1FC0546864903F0E7FD044600
:1015500085480168204603F029FC834908608348D8
:10156000B0F9000003F08EFD06467D4903F08CFCC7
:1015700005467C4903F0D2FD04467D4801682046BB
:1015800003F014FC7A4908607A48B0F9000003F0CF
:1015900079FD0646724903F077FC0546714903F070
:1015A000BDFD044674480168204603F0FFFB724904
:1015B00008607248B0F9000003F064FD834670488B
:1015C000B0F9000003F05EFD5946009003F05CFCAA
:1015D000824603F0BFFB804600F0C4FF06464FF092
:1015E000C042684B03F0C2F9044602F05BFF664953
:1015F00008606248B0F9000003F044FD8346634888
:10160000B0F9000003F03EFD5946009003F03CFCA9
:10161000824603F09FFB064600F0A4FF81F00041E4
:1016200080464FF0C04200E082E0564B03F09EF946
:10163000044602F037FF564908605448B0F90000EC
:1016400003F020FD83464E48B0F9000003F01AFD78
:101650005946009003F018FC824603F07BFB80465D
:1016600000F080FF06464FF0C042464B03F07EF983
:10167000044602F017FF474908604748B0F90000E8
:1016800003F000FD009003F065FB06460F4643485B
:10169000B0F9000003F0F6FC009003F05BFB80461D
:1016A00032463B4601F06EF804464FF0C042354BDF
:1016B00003F05CF9824602F0F5FE394908602748DC
:1016C000B0F9000003F0DEFC0546254903F0DCFB21
:1016D000044622462C480168324800F005FA324997
:1016E00008602248B0F9000003F0CCFC05461C4914
:1016F00003F0CAFB04462246254801682B4800F047
:10170000F3F92B4908601B48B0F9000003F0BAFC5C
:101710000546134903F0B8FB0446224620480168F9
:10172000244800F0E1F92449086080200A49086053
:101730000948006800F4807018B14FF480700649C1
:1017400008600548006800F4007018B14FF400709C
:1017500001490860BDE8F88F14040140220100200F
:10176000333383410AD7A33B280100202401002002
:101770002C01002026010020300100202001002043
:101780001E010020E3A54C40340100201C01002074
:10179000380100203C0100204E0100204C010020B7
:1017A000540100209400002040010020C4000020CB
:1017B00044010020640000204801002070B5364834
:1017C000007898BB03213548007801F025FC0446D9
:1017D00004213248007801F01FFC054645EA042048
:1017E00000B22F49088007212C48007801F014FC32
:1017F000044608212948007801F00EFC054645EA18
:10180000042000B22749088005212448007801F00F
:1018100003FC044606212148007801F0FDFB054643
:1018200045EA042000B22049088033E0FFE70021A8
:101830001A48007801F0F0FB0546012117480078AE
:1018400001F0EAFB044645EA042000B2144908808E
:1018500002211248007801F0DFFB054603210F4802
:10186000007801F0D9FB044645EA042000B20D4996
:10187000088004210948007801F0CEFB05460521C7
:101880000648007801F0C8FB044645EA042000B28F
:101890000549088070BD0000590100205801002052
:1018A0004C0100204E0100205001002010B5012203
:1018B0000B21104601F05CFB012001F0D5F901225B
:1018C0000A21104601F054FB012001F0CDF900225D
:1018D0000A21012001F04CFB10BD70B5002501224A
:1018E0000B21104601F044FB002418E000220A21DD
:1018F000012001F03DFB012001F0B6F901220A218F
:10190000104601F035FB0B21012001F04DFA10B11A
:10191000802020410543012001F0A6F9641C082C19
:10192000E4DB00220A21012001F022FB284670BDE1
:1019300070B50546002422E080202041284028B1CF
:1019400001220B21104601F013FB04E000220B21C1
:10195000012001F00DFB012001F086F901220A218E
:10196000104601F005FB012001F07EF900220A215A
:10197000012001F0FDFA012001F076F9641C082C29
:10198000DADB70BD10B501220B21104601F0F0FA30
:1019900001220A21104601F0EBFA012001F064F95E
:1019A00000220B21012001F0E3FA012001F05CF993
:1019B00000220A21012001F0DBFA10BD10B500223F
:1019C0000B21012001F0D4FA01220A21104601F076
:1019D000CFFA012001F048F901220B21104601F055
:1019E000C7FA012001F040F910BD70B500240122B2
:1019F0000B21104601F0BCFA012001F035F901225B
:101A00000A21104601F0B4FA012001F02DF90AE094
:101A1000601CC4B2322C03DDFFF7D0FF012070BD83
:101A2000012001F021F90B21012001F0BDF900286E
:101A3000EED10B21012001F0B7F9054600220A2161
:101A4000012001F095FA2846E9E7000010B50122CF
:101A50004FF4E131104602F025FC1D48008820F0CB
:101A600020001B4908801BA001F044FC0A2001F063
:101A7000EFF800231A461946184601F031F86420A1
:101A800001F0E6F8022000F0EFFB642001F0E0F83E
:101A9000142000F08FFB642001F0DAF80D2000F034
:101AA0009DFB642001F0D4F80E4800F0ABFB6420ED
:101AB00001F0CEF84FF4C86000F0C0FB642001F0E4
:101AC000C7F800231A461946184601F009F810BD58
:101AD0000C4400402475706C6F61643A302C302CDB
:101AE00030230000000040422DE9F05F04460D461F
:101AF00016463046E16A03F019FC8046E16903F0BE
:101B00000DFB0746A16A03F051F9A062E06AE062AA
:101B1000D4E9060103F002FB8246E16903F0FEFA14
:101B20008046D4E9040103F041F98346E16903F0FA
:101B3000F5FA8246E16803F0EEFB8146414603F088
:101B400035F90746216803F031F9E060D4E9060170
:101B500003F0E4FA0746216903F0DDFB2061D4E9D4
:101B6000060103F0DBFA0746616903F0D4FB60610C
:101B70006168A06903F01AF9A061D4E9021003F0CA
:101B800015F907463946E06803F07EF92062D4E98A
:101B9000021003F00BF907463946606903F074F947
:101BA00060622846A16A03F0C1FB8046216A03F007
:101BB000B5FA0746A16A03F0F9F8A0622846A16ABF
:101BC00003F0B4FB8046616A03F0A8FA0746E16AB5
:101BD00003F0ECF8E0624FF07E50216A03F0A6FBC0
:101BE0000746E16803F09AFAE0604FF07E50216A00
:101BF00003F09CFB0746216903F090FA2061616ABB
:101C0000E06803F08BFA0746616903F084FB6061CA
:101C1000616A206903F082FA0746A16903F07BFB41
:101C2000A061A06ABDE8F09F70B53B2000F058F8B5
:101C300004463C2000F054F8054645EA042000B272
:101C4000214908803D2000F04BF804463E2000F07A
:101C500047F8054645EA042000B21C4908803F20A9
:101C600000F03EF80446402000F03AF8054645EA08
:101C7000042000B216490880432000F031F80446E1
:101C8000442000F02DF8054645EA042000B2114931
:101C90000880452000F024F80446462000F020F893
:101CA000054645EA042000B20B490880472000F0B1
:101CB00017F80446482000F013F8054645EA0420CA
:101CC00000B20649088070BD1C0100201E010020E2
:101CD00020010020220100202401002026010020F4
:101CE00070B50446FFF74EFED020FFF721FEFFF748
:101CF0007CFE2046FFF71CFEFFF777FEFFF75EFE37
:101D0000FFF740FED120FFF713FEFFF76EFEFFF74F
:101D1000E4FD0546FFF7CAFDFFF750FE284670BDFB
:101D2000014607238B431A02054B18684FF6FF0341
:101D300018401043034B1843014B186070470000D4
:101D40000CED00E00000FA0570B505460C460420D5
:101D5000FFF7E6FF0E48005D00F0010646EA0510B9
:101D6000C1B20B4801552046E21704EBD262521172
:101D7000A4EB421301229A402146E31704EBD363FC
:101D80005B119B0003F1E023C3F8002170BD00004C
:101D900000E400E070B500240EE00021204600F0D1
:101DA000D1F8002504E0002000F05EF9681CC5B2FF
:101DB000802DF8DB601CC4B2082CEEDB70BD10B5C2
:101DC00002220821012001F001F80222092101204C
:101DD00000F0FCFF01220821104601F0C9F80122A1
:101DE0000921104601F0C4F810BD70B50546002465
:101DF00013E08020204100EA05020921012001F0C2
:101E0000B7F801220821104601F0B2F8002208219B
:101E1000012001F0ADF8601CC4B2082CE9DB0122FE
:101E20000821104601F0A4F800220821012001F049
:101E30009FF870BD10B501220921104601F098F8F5
:101E400001220821104601F093F800220921012007
:101E500001F08EF800220821012001F089F810BD60
:101E600010B500220921012001F082F80122082189
:101E7000104601F07DF801220921104601F078F8A2
:101E800010BD70B5002406E0002500E06D1CB5F51E
:101E90007A7FFBD3641CB4F57A7FF5D3FFF78FFF0D
:101EA000AE2000F0D1F8D52000F0CEF8802000F070
:101EB000CBF8A82000F0C8F83F2000F0C5F8D320E8
:101EC00000F0C2F8002000F0BFF8402000F0BCF89D
:101ED000A12000F0B9F8C82000F0B6F8DA2000F030
:101EE000B3F8122000F0B0F8812000F0ADF8CF2058
:101EF00000F0AAF8D92000F0A7F8F12000F0A4F82B
:101F0000DB2000F0A1F8302000F09EF8A42000F0C3
:101F10009BF8A62000F098F88D2000F095F814208A
:101F200000F092F8AF2000F08FF8FFF733FF70BD9C
:101F300010B50246012000E050430B1EA1F1010143
:101F4000FAD110BD70B505460C4645F0B00000F062
:101F50007BF8102141EA141000F076F804F00F002D
:101F600000F072F870BD00002DE9F04105460E4604
:101F70001746721ED206110E6A1E5206100EFFF789
:101F8000E1FF002409E0A7F12001134A02EB01114F
:101F9000085D00F069F8601CC4B2082CF3DB721E07
:101FA000D206110E6A1E012303EB4202D0B2FFF7E4
:101FB000C9FF00240BE0A7F12001074A02EB011240
:101FC00004F10801505C00F04FF8601CC4B2082C0A
:101FD000F1DBBDE8F08100002C5500082DE9F04749
:101FE00080460E4617461D46002415E0281B411E5C
:101FF0000A20FFF79DFFB7FBF0F00A21B0FBF1F2DA
:1020000001FB120000F130093019C1B24A464046C6
:10201000FFF7AAFF601CC4B2AC42E7DBBDE8F08763
:102020002DE9F04107460E461546002407E02A5DDB
:102030003019C1B23846FFF797FF601CC4B2285D63
:102040000028F4D1BDE8F08110B50446FFF7F2FE98
:102050007820FFF7CAFE0020FFF7C7FE2046FFF7F3
:10206000C4FEFFF7FDFE10BD10B50446FFF7E2FE0B
:102070007820FFF7BAFE4020FFF7B7FE2046FFF7B3
:10208000B4FEFFF7EDFE10BD70B5044625460D48C1
:10209000006828440B490860002005EB450100EB6F
:1020A0008100094991F90010691A002202FB01061A
:1020B00068B20549087050225142304600F0A1FF35
:1020C00070BD0000FC000020F800002010B500F0FA
:1020D00001F810BD0CB50020019000903348006855
:1020E00040F480303149086000BF3048006800F497
:1020F000003000900198401C0190009818B9019898
:10210000B0F5A06FF1D12948006800F4003010B19B
:102110000120009001E0002000900098012843D1A8
:102120002348006840F01000214908600846006814
:1021300020F0030008600846006840F002000860D4
:102140001A4840681949486008464068486008468F
:10215000406840F4806048600846406820F47C1085
:1021600048600846406840F4E81048600846006847
:1021700040F08070086000BF0C48006800F00070FC
:102180000028F9D00948406820F00300074948605A
:102190000846406840F00200486000BF03484068BD
:1021A00000F00C000828F9D10CBD0000001002401E
:1021B0000020024010B50446224604A10648FEF75E
:1021C00035F8054801F096F810BD0000246D7068E0
:1021D0006173653A256423006002002010B504464F
:1021E000224604A10648FEF721F8054801F082F8CE
:1021F00010BD0000246D6C696E653A2564230000F3
:102200006002002070B50446204602F0A3FD05469A
:102210002A460B4603A10848FEF708F8064801F0D5
:1022200069F870BD24776469616D657465723A25DB
:102230002E336623000000006002002010B5044623
:10224000224604A10748FDF7F1FF064801F052F8C5
:1022500010BD000024646561647A6F6E653A256480
:10226000230000006002002010B50446224604A1AD
:102270000648FDF7DBFF054801F03CF810BD000003
:10228000246D747970653A25642300006002002093
:1022900010B51348006840F0010011490860084675
:1022A0004068104908400E494860084600680E49D9
:1022B00008400B4908600846006820F48020086048
:1022C0000846406820F4FE0048604FF41F00886014
:1022D000FFF7FCFE4FF000600449086010BD0000ED
:1022E000001002400000FFF8FFFFF6FE08ED00E0DE
:1022F0004FF08040008A00F0010038B14FF080407C
:10230000008A20F001004FF08041088270470000F1
:1023100010B50748008800F0010038B101F034F929
:102320000348008820F001000149088010BD00002A
:10233000100400400548008800F0010028B103485F
:10234000008820F001000149088070471008004013
:1023500070B50848058805F02E0048B10548001DF5
:102360000088C4B205F0200010B1204601F0C6FE7E
:1023700070BD000000380140054A118801F02E02AE
:1023800022B1034A121D1288D0B200BF704700006C
:1023900000440040054A118801F02E0222B1034A90
:1023A000121D1288D0B200BF7047000000480040E4
:1023B000490050EAC12018BF04204A0D18BF40F060
:1023C000010040F2FF72B2EB515F08BF40F0020023
:1023D000012808BF052070472DE9F0414F1E00EB92
:1023E000C7010446D1E9000115461E4637F0060232
:1023F0000DD02A46334602F0B9FA7F1E04EBC7031C
:10240000D3E9002302F080F837F00602F1D1022F61
:1024100025D0042F13D0062F18BFBDE8F0812A461F
:10242000334602F0A3FAD4E90A2302F06DF82A46F3
:10243000334602F09BFAD4E9082302F065F82A46F5
:10244000334602F093FAD4E9062302F05DF82A46F7
:10245000334602F08BFAD4E9042302F055F82A46F9
:10246000334602F083FAD4E9022302F04DF82A46FB
:10247000334602F07BFAD4E90023BDE8F04102F0D4
:1024800043B8012202F0FBBF02F03EB8024A00202E
:10249000110702F0F4BF000001FDFFFF30380A28E9
:1024A00001D2012070470020704700BF70472DE91E
:1024B000F04104460D4617461E46DDF818800CB95B
:1024C000BDE8F081257067700EB1012000E00020AA
:1024D000A070A4F80880002060816071A0710EB126
:1024E000042000E0012002463946284600F06EFC38
:1024F0003946284600F058FC20712079E07000BF72
:10250000DEE7014609B9002070474A79002048718A
:102510001046F9E770B504460E4604B970BD6178FF
:10252000207800F041FC05462079A84203D02571AF
:1025300000206081F2E760892189884203DA60899E
:1025400030446081EAE7E078A84208D0E570A078DE
:10255000A84202D10120607101E00120A07100BFFA
:10256000DCE700002DE9F84F04460D4621F000405D
:1025700000917349814211DC7249884201DC06D125
:102580002CB120462946BDE8F84FFFF77ABF6E48C8
:10259000002DCCBF6D496E49BDE8F88F6D49814271
:1025A00011DD6D498142D8BF4FF0FF366DDD204609
:1025B0002946FFF7FDFE042808BFFFF767FF204606
:1025C0002946BDE8F88F6549654F25F000458142F1
:1025D00033DD6449814219DD002632464FF08043E5
:1025E0002046294601F090FF80468A460122204677
:1025F000294602F044FF00223B4602F0C1FA42465F
:10260000534602F031F804460D463EE00126002212
:10261000BA463B462046294601F076FF80460F46E3
:10262000002253462046294602F0AAFA42463B467B
:1026300002F01AF804460D4627E04B4981421BDDA3
:10264000DFF828A10226002253462046294602F040
:102650008DF900223B4601F057FF80460F460022CD
:1026600053462046294602F08BFA42463B4601F08B
:10267000FBFF04460D4608E0032622462B460020B9
:102680003B4901F0F1FF04460D4622462B46104619
:10269000194602F06BF98B46824602460B4602F061
:1026A00065F907460246334888460B4606217844BA
:1026B000FFF792FE52465B4602F058F982462E48DA
:1026C0008B463A46434605217844FFF785FE3A4655
:1026D000434602F04BF902460B46002E504659463F
:1026E0000CDA01F011FF22462B4602F03FF901B04F
:1026F00022462B46BDE8F04F02F036BA01F004FF47
:1027000022462B4602F032F91C4A7A4402EBC603F9
:10271000D3E9002302F034FA22462B4602F030FAC5
:10272000174A7A4402EBC603D3E9002302F01CFAED
:10273000009A002AB8BF81F00041BDE8F88F000080
:10274000000010440000F07F182D4454FB21F93F95
:10275000FB21F9BF0000DC3F0000203E0000F33FFA
:102760000000F03F0000E63F008003400000F83F1B
:102770000000F0BFE6340000A43400004234000042
:102780000A3400002DE9F04D9446CCF1000423F00A
:1027900000464CEA0404524F46EAD4749A468846EE
:1027A00021F00042BC4206D8454240EA050442EA14
:1027B000D474BC4204D9BDE8F04D6246FFF764BE54
:1027C000AAF14055A5F17F6555EA0C040BD002240F
:1027D00004EAAA74434DDFF810E144EAD87452EADF
:1027E000000B04D00CE0BDE8F04DFFF7BBBE002CA1
:1027F00014BF012CBDE8F08D022C30D0032C32D058
:1028000056EA0C0B0AD0BE4220D1BA4209D126F0BA
:10281000804622F080423346114617E000291ADB39
:1028200025E0DFF8C8B0FB44002C04BFDBE9000161
:10283000BDE8F08D012C02BFDBE9000181F0004111
:10284000BDE8F08D022C0AD0032C0CD0BA4212D174
:10285000B8F1000F0BDA23482549BDE8F08D284672
:102860002449BDE8F08D28467146BDE8F08D1D482D
:102870002149BDE8F08D921B12153C2AC4BF1948AE
:102880001D490EDCBAF1000FBEBF12F13C0F002053
:10289000014606DB624601F0E7FE21F00041FFF74A
:1028A00061FE002C08BFBDE8F08D012C04BF81F053
:1028B0000041BDE8F08D114A114B022C07D002F007
:1028C0005FF92A46BDE8F04D0A4B02F059B902F013
:1028D00057F92A46BDE8F04D064B02F045B9000015
:1028E0000000F07F182D4454FB2109C09E330000E6
:1028F000FB21F9BFFB210940FB21F93F075C1433A1
:1029000026A6A13C2DE9F041064600242448007883
:1029100018B924480068BDE8F081214800780728EC
:1029200002DB20480068F6E7002509E00120A84006
:10293000304018B11C4850F825000444681CC5B24A
:10294000082DF3DB1648007894FBF0F41448007867
:10295000032823DB14F1500F20DD502C1EDA06F083
:102960000F0000F0DDF88046300900F0D9F8074686
:10297000B84502DD6FF0C70410E0474501DDC8240B
:102980000CE008480068502801DDC82406E005482E
:10299000006810F1500F01DA6FF0C7042046BAE763
:1029A000130000201C0000200C55000810B51B4827
:1029B000007818B1194890F9000010BD1848007847
:1029C00018B1174890F90000F7E71648006850283A
:1029D00003DD012000F095FCEFE71248006810F1DC
:1029E000500F04DA4FF0FF3000F08BFCE5E70E48A3
:1029F0000078192805DA0C480078401C0A4908704C
:102A000008E000200849087008480078404240B2B9
:102A100006490870054890F90000CEE73200002012
:102A2000300000201C000020340000203300002073
:102A300010B504461348007818B1124890F9000008
:102A400010BD1148007818B10F4890F90000F7E761
:102A50001CB1204600F055FCF2E70C4800685028F5
:102A600003DD012000F04DFCEAE70848006810F1A2
:102A7000500F04DA4FF0FF3000F043FCE0E74FF076
:102A8000FF30DDE732000020300000201C00002075
:102A900010B51048006801F04DF804460CB120460E
:102AA00010BD0D48007818B10B4890F90000F7E709
:102AB0000A480068502804DC0848006810F1500FEC
:102AC00004DA0648006801F035F8E9E70020FFF76E
:102AD000AFFFE5E7180000202E0000201C000020BA
:102AE0002DE9FC4104460D4616461F462B4622465C
:102AF00005A10A48CDE90067FDF798FB074800F0FB
:102B0000F9FBBDE8FC810000247370643A25642C55
:102B100025642C25642C256423000000600200201D
:102B20000146002004E001F001020244D0B2491045
:102B30000029F8D17047000010B5002200213D4B5C
:102B40005B78442B24D1002016E000EB80039B1D12
:102B5000384CE35C302B05D000EB80039B1DE35C1D
:102B6000312B07D100EB80039B1D324CE35C303BE3
:102B7000314C2354431CD8B20828E6DB2F4B1B787A
:102B8000FF2B48DA2D4B1B785B1C2C4C237042E04A
:102B9000284B5B78412B3DD100202FE0254B1B5C5F
:102BA000782B29D1234C831CE35C3A2B24D1431C82
:102BB000E35C312B20DB431CE35C382B1CDC431C27
:102BC000E35C313BDAB20021C31CD8B209E0194BF7
:102BD0001B5C303B01EB810403EB440399B2431CC3
:102BE000D8B2144B1B5C302B03DB124B1B5C392B14
:102BF000EDDD134B23F81210431CD8B26428CDD35B
:102C0000104B1B78FF2B06DA0E4B1B785B1C0D4C10
:102C1000237000E010BD0C4B1B78FF2B04DA0A4B2D
:102C20001B785B1C084C23700023084C237000BFEA
:102C3000F0E70000CC010020440000201500002037
:102C40003002002016000020140000201000002098
:102C500000B5034603E04FF47A7000F005F8181E43
:102C6000A3F10103F7D100BD00EBC001C9004FF093
:102C7000E0225161002191610521116100BF4FF0F7
:102C8000E021096901F480310029F8D004214FF0D6
:102C9000E0221161704770B504460025092C56D218
:102CA000DFE804F055050F19232D37414B000C21A7
:102CB000012000F079F8012801D1012500E000256C
:102CC00045E00D21012000F06FF8012801D1012518
:102CD00000E000253BE00E21012000F065F801280E
:102CE00001D1012500E0002531E00F21012000F095
:102CF0005BF8012801D1012500E0002527E008212B
:102D0000002000F051F8012801D1012500E0002544
:102D10001DE00D21022000F047F8012801D1012516
:102D200000E0002513E00E21022000F03DF801280C
:102D300001D1012500E0002509E00F21022000F06B
:102D400033F8012801D1012500E0002500BF00BFB4
:102D5000284670BD70B5054640F22714002D05DAEF
:102D600021466FF03B0000F069FE04E06FF03B018C
:102D7000204600F063FE70BD02460B46002A05DACD
:102D800052420BB9012000E000200346142092FBC0
:102D9000F0F1B1F57A7F01DD4FF47A710BB108B231
:102DA0007047484200B2FBE710B50246064850F8AB
:102DB0002200806801248C4000EA04030BB101204A
:102DC00010BD0020FCE700000001002070B5654C3C
:102DD000A469042585402C43624DAC6108295DDA65
:102DE000614C54F8204024688E000F25B540AC4358
:102DF0005D4D55F820502C601AB1032A01D0022AEB
:102E00000FD10124944044F003048D00AC40564D92
:102E100055F820502D682C43534D55F820502C6008
:102E20009FE0012A01D0042A2AD14F4C54F82040B7
:102E300024688E000825B5402C434B4D55F8205092
:102E40002C60012A0ED1484C54F82040E46801253A
:102E50008D4024EA050301248C401C43424D55F863
:102E60002050EC60042A7CD13F4C54F82040E568A7
:102E700001248C40A5433C4C54F82040E56070E0B0
:102E8000042494408D00AC40374D55F820502D68F7
:102E90002C43354D55F820502C6062E0324C54F8EC
:102EA00020406468A1F10805AE000F25B540AC4391
:102EB0002D4D55F820506C601AB1032A01D0022A1A
:102EC00011D10124944044F00304A1F10805AD00A0
:102ED000AC40254D55F820506D682C43224D55F8D7
:102EE00020506C603DE0012A01D0042A2AD11E4CFA
:102EF00054F820406468A1F10805AE000825B540EB
:102F00002C43194D55F820506C60012A0CD1174CF8
:102F1000256801248C4025EA040301248C401C43CD
:102F2000114D55F82050EC60042A1AD10E4C54F87B
:102F30002040E46801258D40AC430B4D55F82050EE
:102F4000EC600EE004249440A1F10805AD00AC4013
:102F5000054D55F820506D682C43034D55F8205011
:102F60006C6070BD00100240000100200C080140A0
:102F700030B57AB10D4C54F82040E46801258D40FD
:102F800024EA050301248C401C43084D55F82050C9
:102F9000EC600AE0054C54F82040E46801258D40BF
:102FA000AC43024D55F82050EC6030BD00010020CC
:102FB00070B506460C46304600F0BCFD0546002DB7
:102FC00006DD09480068A04202DA0748046009E00B
:102FD000002D07DA044800686142884202DD604241
:102FE0000149086070BD00002000002003468B42AC
:102FF00001DA08467047934201DD1046FAE71846A9
:10300000F8E703468B4201DA08467047934201DD38
:103010001046FAE71846F8E770B504460D46FEF785
:10302000B1FC2046FEF784FCFEF7DFFC2846FEF7E5
:103030007FFCFEF7DAFCFEF7C1FCFEF7A3FC44F0D0
:103040000100FEF775FCFEF7D0FCFEF746FC0646D5
:10305000FEF72CFCFEF7B2FC304670BD88B00024B1
:1030600000260025002700F0F3F8FEF70AFFFEF720
:1030700091FE46A201210846FEF7D2FF4FF4FA70F6
:10308000FFF7E6FD00F042FD4FF49670FFF7E0FD1C
:1030900000F0DAF800F018FD4FF49670FFF7D8FD55
:1030A000FEF778FE3DA201210846FEF7B9FF3EA2D9
:1030B00001210220FEF7B4FF3EA201210320FEF70A
:1030C000AFFF142000230122114600903C48FFF777
:1030D000EEF90AE000F0F8FC00F0F8FF0A213848A9
:1030E000FFF718FA0A20FFF7B3FD3548FFF709FA92
:1030F0000028EFD0FEF74EFE32A201210846FEF76F
:103100008FFF0127264600202F4908702F490860AD
:103110002F49086038E00A341FB3A51B00F01CFDDE
:10312000684600F06FFF46F2A810854202D300F017
:10313000CBFC00272146684600F006FB10B100F0EA
:10314000C3FC0027234800680A302249086008466B
:103150000068C82804D300200860284600F022F93F
:103160000FE000F0B1FC1B4800680A301949086004
:1031700008460068C82804D300200860284600F0EC
:10318000CDF80A20FFF764FDC5E700005461736BBA
:10319000323A2031204C617000000000506C6163B5
:1031A00065206174204100005072657373205042A5
:1031B00031000000746F20537461727400000000CD
:1031C0005C010020474F2100040000200C0000207B
:1031D000080000200000002010B5044609480178CE
:1031E0002046FFF7C9FD084908800848B0F90030BB
:1031F000B0F900200846B0F90010B0F90000FFF760
:103200006FFC10BD50000020600000206200002014
:1032100010B50446094801782046FFF7ADFD08497E
:1032200008800846B0F90030B0F900200548B0F930
:103230000010B0F90000FFF753FC10BD5100002052
:10324000620000206000002010B5FEF7FFFB10BDFB
:1032500010B501224FF4E131104601F023F80B487C
:10326000008820F020000949088000240AE000239B
:103270001A4619461846FFF733FC1420FFF7E8FCFE
:10328000601CC4B2052CF2DB10BD00000C440040F1
:1032900070B505460C46002D08DB01201149087069
:1032A000284601F0EFFE1049086007E000200D49B4
:1032B0000870684201F0E6FE0B490860002C08DB4C
:1032C00001200A490870204601F0DCFE0849086028
:1032D00007E0002005490870604201F0D3FE044970
:1032E000086070BD500000209402002051000020B2
:1032F000C802002010B504462146012001F040F824
:1033000010BD0146002901DD01207047002902DAC5
:103310004FF0FF30F9E70020F7E7000010B5044652
:1033200011A201210846FEF77BFE13A20121022013
:10333000FEF776FE22460621022000F0DBF944F675
:103340002060844205D80EA201210320FEF768FE0A
:1033500004E00EA201210320FEF762FE0EA201216D
:103360000420FEF75DFE10BD3D3D3D46494E4953EC
:10337000483D3D3D0000000054696D653A00000085
:1033800050415353203C3D32307300004F5645525C
:103390002032307321000000507265737320525345
:1033A0005400000010B588B00446684600F02AFEBC
:1033B00034A201210846FEF733FE224603210120F4
:1033C00000F098F930A209210120FEF729FE30A271
:1033D00001210220FEF724FE2E48007828B92EA2F3
:1033E00004210220FEF71CFE0EE02A480078012886
:1033F00005D12BA204210220FEF712FE04E02AA22E
:1034000004210220FEF70CFE29A201210320FEF771
:1034100007FE032302211846029A00F043F925A271
:1034200007210320FEF7FCFD9DF80220012309215E
:103430000320FEF7D3FD20A20C210320FEF7F0FDB0
:103440009DF8042002230D210320FEF7C7FD1BA2D7
:1034500001210420FEF7E4FD9DF80320022303214F
:103460000420FEF7BBFD16A207210420FEF7D8FDBD
:103470009DF80720032308210420FEF7AFFD08B0C4
:1034800010BD0000543A00004C6170310000000093
:1034900053743A00040000204C65617665410000D9
:1034A00041726D6564200000444F4E4520200000AD
:1034B0004500000041430000460000004E46000069
:1034C0004C0000002DE9F0410446D4E9000101F070
:1034D0002DFFA060206B01282DD1D4E9020101F05D
:1034E00025FF0546616901F019FE2062A168A06907
:1034F00001F014FEA0624FF08040E16801F00EFE82
:103500000746A16801F007FF0646216901F04EFC5D
:103510000546E16901F002FE6062A16A206A01F0DD
:1035200045FC0646616A01F041FC0546E16A01F08E
:103530003DFCE06221E0206BF8B9A168606901F010
:10354000EDFD2062A168A06901F0E8FD0546A16AD1
:1035500001F02CFCA062D4E9020101F0E7FE05466F
:10356000E16901F0DBFD6062A16A206A01F01EFCE6
:103570000546616A01F01AFCE062E1682161A16818
:10358000E160BDE8F081000010B500F021F92148AC
:10359000007830B12048006801F074FD1F49486090
:1035A00006E01D480068404201F06CFD1B49486080
:1035B0001B48007830B11B48006801F063FD1A49D0
:1035C000486006E017480068404201F05BFD16497C
:1035D0004860002010490860124908600F48FFF752
:1035E00071FF1148FFF76EFF0C4800F01FF80E48FE
:1035F00000F01CF80949C86A01F008FD0446FFF70D
:10360000EBFD0949C86A01F001FD0446FFF700FE21
:1036100010BD000050000020540000209402002043
:103620005100002058000020C802002010B50446B8
:103630000749E06A01F03EFE01D80548E06200213A
:10364000E06A01F037FD01D80020E06210BD000003
:1036500000504347002000220F4B1A700F4B1A7086
:10366000002115E00E4A525C3AB101228A400A4B11
:103670001B781A43084B1A7008E001228A40024363
:10368000D0B2064A1278521C044B1A704A1CD1B2AE
:103690000829E7DB7047000011000020130000201C
:1036A000440000202DE9F04106460C4615461F4611
:1036B000002D0CDA0DA221463046FEF7B1FC601C4D
:1036C000C1B23B466A423046FEF788FC0BE008A2D6
:1036D00021463046FEF7A4FC601CC1B23B462A4698
:1036E0003046FEF77BFCBDE8F08100002D000000B5
:1036F000200000002DE9F04106460C4615464FF427
:103700007A70B5FBF0F087B24FF47A70B5FBF0F148
:1037100000FB11500A21B0FBF1F802233A46214682
:103720003046FEF75BFCA01CC1B206A23046FEF795
:1037300077FCE01CC1B2022342463046FEF74EFC45
:10374000BDE8F0812E00000002461E48007820B13E
:1037500001281BD0022831D12EE09078042811DAFC
:103760001948006808B91848016017480068081A25
:10377000B0F5FA7F09D90120124B18700020134BC5
:10378000186002E00020104B186017E090780428C1
:103790000EDB0E48006808B90C4801600B48006851
:1037A000081A1E2807D90220064B187001207047FE
:1037B0000020064B186001E00120F8E700BF002060
:1037C000F5E70000040000200C00002008000020A5
:1037D0002DE9F84F002000900120FFF75CFA044625
:1037E0000220FFF758FA05460320FFF754FA8046F7
:1037F0000420FFF750FA81460520FFF74CFA824675
:103800000620FFF748FA83460720FFF744FA0646EA
:103810000820FFF740FA0746A4B99DB9B8F1000F98
:1038200010D1B9F1000F0DD1BAF1000F0AD1BBF1DF
:10383000010F07D1012E05D1012F03D16FF00E002A
:103840000090E7E0012C12D1012D10D1B8F1010F49
:103850000DD1B9F1000F0AD1BAF1000F07D1BBF1B8
:10386000000F04D11EB917B90F200090D2E02CB977
:1038700025B91EB917B900200090CBE0012C14D156
:10388000012D12D1B8F1010F0FD1B9F1000F0CD1F8
:10389000BAF1010F09D1BBF1010F06D1012E04D1FC
:1038A000012F02D1A01E0090B4E0012C14D1012DF3
:1038B00012D1B8F1000F0FD1B9F1000F0CD1BAF14C
:1038C000010F09D1BBF1010F06D1012E04D1012F47
:1038D00002D1E01E00909DE0012C14D19DB9B8F1F9
:1038E000000F10D1B9F1010F0DD1BAF1010F0AD1BA
:1038F000BBF1010F07D1012E05D1012F03D16FF0CC
:103900000700009086E0ACB9012D13D1B8F1010F8A
:1039100010D1B9F1010F0DD1BAF1010F0AD1BBF1EC
:10392000010F07D1012E05D1012F03D16FF009003E
:1039300000906FE0012C14D1012D12D1B8F1010FCC
:103940000FD1B9F1010F0CD1BAF1000F09D1BBF1C0
:10395000010F06D1012E04D1012F02D101200090C8
:1039600058E0012C14D1012D12D1B8F1010F0FD163
:10397000B9F1010F0CD1BAF1000F09D1BBF1000F61
:1039800006D1012E04D1012F02D10220009041E086
:10399000012C13D1012D11D1B8F1010F0ED1B9F1C4
:1039A000010F0BD1BAF1010F08D1BBF1000F05D106
:1039B00026B9012F02D1082000902BE0012C13D151
:1039C000012D11D1B8F1010F0ED1B9F1010F0BD1B9
:1039D000BAF1010F08D1BBF1010F05D1012E03D1BE
:1039E00017B90A20009015E0012C13D1012D11D137
:1039F000B8F1010F0ED1B9F1000F0BD1BAF1000FE0
:103A000008D1BBF1010F05D1012E03D1012F01D146
:103A1000002000900098FEF737FB074908600A462F
:103A20001268C2F17801044A126802F17800FFF7C7
:103A30002FFCBDE8F88F0000F400002070B50446AC
:103A40000D461F4800686E30844205DD1C48006842
:103A50006E301B4908600CE0194800686E38A042BF
:103A600005DD174800686E381549086001E0144804
:103A70000460144800686E30854205DD1148006816
:103A80006E30104908600CE00E4800686E38A8429D
:103A900005DD0C4800686E380A49086001E00948F5
:103AA00005600848008803B20648008802B204484E
:103AB000008801B20248008800B2FFF711F870BD1B
:103AC000240000202800002010B5002009490860CB
:103AD00009490860094908700949087009490870CE
:103AE0000949087000231A4619461846FEF7F8FFE0
:103AF00010BD000024000020280000202E0000201F
:103B00002F000020370000203800002010B50022D0
:103B10004FF4E131104600F0C5FB00F001F810BD94
:103B200010B502A1002000F02BFC10BD24302C3178
:103B30002C31230010B50446502C03DD0120FFF783
:103B4000E0FB10BD14F1500F04DA4FF0FF30FFF727
:103B5000D8FBF6E70020F4E72DE9F05FFFF77AFDE8
:103B6000FE4908700846007800F018FCFB48007811
:103B7000FEF7C8FEFA490860FA480078032801DB1E
:103B8000012000E000200646F7480078002801DD0B
:103B9000012000E000200746F048007800F0030014
:103BA00060B1F2480078FF2804DAF0480078401C41
:103BB000EE4908700020EE49087016E0E7480078EA
:103BC00000F0C00060B1EA480078FF2804DAE84855
:103BD0000078401CE64908700020E449087004E0C1
:103BE0000020E2490870E2490870E04800780228A5
:103BF00008DBDB480068B0F5967F03DADD48D8497A
:103C0000086021E0DA480078022809DBD44800681F
:103C100010F5967F04DD4FF49670D149086013E0EB
:103C200046B1CF480068502804DD4FF4A570CC4958
:103C3000086009E046B1CA48006810F1500F03DA85
:103C4000CC481E38C6490860CB480078D0B1C3487C
:103C5000007800F0180090B1C8480078FF2804DA16
:103C6000C6480078401CC5490870C448007802283E
:103C700008DB0020C0490870C049087002E000203D
:103C8000BE490870B748007848B9BB4890F90000B1
:103C9000002804DD4FF4A570B14908600BE0B1487D
:103CA000007840B9B44890F90000002803DAB14820
:103CB0001E38AB49086056B9AC480078022806DACD
:103CC000AB480078022802DAAB48007860B1A4481B
:103CD000006800EBC000AA49096808440A2190FB6B
:103CE000F1F09F4908600AE09D480068A44909680E
:103CF00001EB8000052190FBF1F099490860A14893
:103D00000078FF2804DA9F480078401C9D4908701D
:103D10009C480078642803DDFFF7D6FEBDE8F09FDD
:103D200090480078D0BB00209049087090490870F6
:103D30009249087094480078FF2804DA9248007885
:103D4000401C9149087090480078782805DD0020D3
:103D500089490870FFF7B8FEE0E78748007828B186
:103D6000854890F90000FEF7F5FF1DE084480068E3
:103D7000002807DD82480068FFF7DCFE0546FEF7F5
:103D8000E9FF11E07E480068002808DA7C480068F6
:103D9000FFF7D0FE0546FEF7DDFF05E005E0FEF784
:103DA00005FE0546FEF7D6FFB8E700207649087005
:103DB0007148007890B16948007800F0180068B147
:103DC00068480078042809DC00206B4908706B49BA
:103DD00008706E49087019206349087061480078BE
:103DE000052821DB0020614908706149087062489C
:103DF000007818B9FEF74CFE5F49087063480078F8
:103E0000042807DA61480078401C6049087000F017
:103E10004BF904E0584890F90000FEF79BFF50482A
:103E200000685749086079E70020584908700FB1C9
:103E3000A02001E05648006880460FB1462001E00E
:103E40005448006881464648006808FB00F0444931
:103E500009684B4A1268891A09FB0100642190FB2A
:103E6000F1F04D4908604FF4AA7251424A48006887
:103E7000FFF7BCF84849086039480068002802DBB1
:103E80003748006802E03648006840420546B5F50C
:103E9000967F05DDF52132480068FFF789F806E0D6
:103EA0008C2D04DD78212E480068FFF781F82D481D
:103EB0000078032805DBC82129480068FFF778F857
:103EC00018E028480078022814DC782D12DA2A48F5
:103ED000007878B900F078F92F49096808442E492C
:103EE00008604FF4AA7251422B480068FFF77EF831
:103EF00029490860B5F5967F01DD96240FE00FB1E2
:103F000058240CE02846E91705EB5171C910C1F19E
:103F1000C804C82296212046FFF768F804461048D6
:103F20000068B0F5967F08DC0D48006810F5967FB4
:103F300003DB0C480078032836DB17490968601852
:103F400004F5AA726FF01D01FFF750F8834612497D
:103F50000968601A04F5AA7220E00000120000202F
:103F60001800002013000020370000202C00002043
:103F70002D000020D4FEFFFF2E0000202F00002087
:103F80001C00002010000020170000203800002036
:103F90003C00002040000020200000206FF01D01A8
:103FA000FFF724F8824611E012490968601804F509
:103FB000AA721921FFF71AF883460E490968601A98
:103FC00004F5AA721921FFF711F8824651465846A6
:103FD000FFF734FD08480068084908600848007881
:103FE000002804DD06480078401E0549087000BF1F
:103FF00094E6000020000020180000201C00002093
:104000003700002030B589B005461C4800788DF88F
:1040100004001B4800788DF805001A4800788DF8D8
:104020000600194800788DF80700184800788DF8C8
:104030000800174800788DF80900164800788DF8B8
:104040000A00154800788DF80B00144800680390AA
:10405000134800680490002407E0124830F8141058
:1040600005A820F81410601CC4B2082CF5DB20222F
:1040700001A92846FCF7F0F909B030BD1100002075
:104080001200002013000020100000201400002067
:104090001500002016000020170000201800002046
:1040A000200000203002002010B5002005490860E3
:1040B0000549086000231A4619461846FEF710FD08
:1040C00010BD0000240000202800002010B5FFF7DC
:1040D000C1FA084908700846007800F05FF9064800
:1040E000007808B9002010BD02480078FEF70AFCED
:1040F000F9E70000120000201300002070B505460B
:10410000242D0ED101202C49087000202B49087065
:10411000084601780078401C284A10702848455409
:1041200070BD2548007800B9FAE724480078642873
:104130000ED3002404E0002021490855601CC4B2BD
:10414000642CF8D300201C4908701C490870E7E76C
:104150001A4801780078401C184A107018484554D5
:10416000232D14D1002408E01548005D1549085599
:10417000002013490855601CC4B2642CF4D30020FD
:104180000D4908700D490870FEF7D6FCC8E70B48CA
:10419000007864280DD3002404E000200849085565
:1041A000601CC4B2642CF8D3002003490870034992
:1041B000087000BFB4E700004C0000204D00002054
:1041C00068010020CC0100200C480078102805DA96
:1041D0000A480078401C0949087008E00020074997
:1041E000087007480078404240B20549087004480A
:1041F00090F9000016214843704700003600002067
:10420000350000202DE9F04F89B081468A46B9F18A
:10421000000F01D11F4C00E01F4C4FEA0A1094FB25
:10422000F0FB584600F08FFBCDE90401504600F04A
:1042300073FB07460022194B00F098FB05460E461B
:10424000204600F01FFF074600F084FD2A46334653
:10425000CDE9000100F008FACDE90201DDE904230F
:1042600000F08EFCCDE9060100F01CF908904FF03B
:104270008341089800F052FF0890089800F0E2FE91
:1042800000EB0B10064951F82910088109B0BDE870
:10429000F08F000000A24A040051250200003040C7
:1042A0000C01002070B504460E46154634B914487A
:1042B000806940F480401249886108E01048C06974
:1042C00004F1100101228A4010430D49C8612046C3
:1042D00000F01AF831462046FFF794FF094850F8DD
:1042E0002400808942F22C010843064951F8241029
:1042F000888104F12500C1B22846FDF725FD70BD77
:10430000001002400C01002010B5044624B1012C1D
:104310000DD0022C21D115E0032209210020FEF747
:1043200055FD04220A210020FEF750FD15E003226E
:1043300002210020FEF74AFD042203210020FEF79F
:1043400045FD0AE003220A210120FEF73FFD042279
:104350000B210120FEF73AFD00BF00BF10BD000099
:1043600000BF064A52F82020128802F04002002ABC
:10437000F7D0024A52F82020918070470C010020AB
:1043800010B504460B4604E013F8011B2046FFF766
:10439000E7FF18780028F7D110BD00002DE9F041A3
:1043A000064606F00F00FEF7BBFB04463009FEF799
:1043B000B7FB05460027002C02DD0DB97F1E0EE07D
:1043C000002D02DD0CB9012709E0681C844202DDE2
:1043D0004FF0FF3703E0601C854200DD0127002F0E
:1043E0000BDD234890F90000052806DA2048007804
:1043F000401C40B21E49087026E0002F0CDA1C4811
:1044000090F9000010F1050F06DD19480078401EF4
:1044100040B21749087017E0B7B9154890F9000085
:10442000002806DD12480078401E40B2104908708E
:104430000AE00F4890F90000002805DA0C480078DF
:10444000401C40B20A490870094890F9000002284F
:1044500003DB01200749087008E0054890F90000D7
:1044600010F1020F02DCFF2002490870BDE8F08164
:10447000310000203200002010B500290AD0087851
:10448000002807D005487844FCF7D0FB002801D06D
:10449000002010BD0248784410BD0000FE17000047
:1044A000F617000021F00042A2F16052B2F5801F21
:1044B00001F0004328BFD2F17F6C0BD95FEA001CEA
:1044C00043EAC20242EB507018BF704728BF20F089
:1044D00001007047B2F5801FBCBF184670474FEA15
:1044E000410C1CF5001F02D2084600F0DEBE70B57C
:1044F00000F0E6FA00000089FFF7F6BF4FF0004039
:10450000A0F580007047000010B591EA030F48BF86
:1045100083F0004300F13C83841A71EB030C05D255
:10452000121943EB0C03001B61EB0C01DFF824E1D3
:104530004FEA1154A4EB135C1EEA430F18BF9EEA26
:10454000445F73D023EA0E03DCF1200E21EA04510C
:1045500043F4801332D322FA0CFE10EB0E0023FA40
:104560000CFE41EB0E01CCF1200E03FA0EFE10EB17
:104570000E0051F10001B1F5801FCCF1200E32D2B6
:1045800001EB045112FA0EF2BDE8104058BF70471B
:10459000401C38BF5FEA420218BF7047002814BFB2
:1045A00020F0010041F100014FEA410313F5001F23
:1045B00038BF7047A1F1C04100F0D0BA012A43EBE7
:1045C0000302ACF1200CDCF11F0E32BF4FF0000EE5
:1045D00023FA0CF310EB030041EB0451B4EB115F31
:1045E000D0D0A1EB045101F5801149085FEA3000F9
:1045F00001EB04510ED350F1000038BF12FA0EFE49
:1046000008D1BDE81040C9E7401C38BF5FEA42024C
:10461000CAD1C3E7BDE810404FEA410313F5001FBC
:1046200038BF7047A1F1C04100F098BA9EEA445FDC
:1046300008D011EA5E0FBDE8104004BF01F0004150
:1046400000207047BDE8104070B500F039FA00BF97
:1046500064FBBE3E0000E0FF02494FF0000000F0A6
:10466000DCBE00BF0000F87F2DE9C04130B4DFF8A8
:10467000A0C23CEA111418BF3CEA131400F0EC800D
:1046800081EA03051CEA111444EAD57418BF1CEA38
:10469000131500F0C780A4EB05044FF0004545EA70
:1046A000C12145EAC32341EA505143EA525304F180
:1046B0007F74994204F500344FEAC0204FEAC222C9
:1046C00008BF904200F09C804FEA13650FF240163D
:1046D000765D4FEA134506FB05F7C7F1807706FBC9
:1046E00007F74FEAD737A7FB03687642C8F580384B
:1046F000A7FB06CE38BFA8F1010807FB08E64FF07C
:10470000000EA6FB028CE6FB03CEDCF1000CCEF122
:10471000004E38BFAEF1010EA6FB0C584FF000075B
:104720004FF00005E6FB0E87A1FB08C6A0FB07CEF5
:1047300016EB0E0645F10005E1FB076515F1E04EAD
:104740007EBFA4F580345FEA46066D4116F180070E
:1047500045F100054FEA17274FEA066647EA056765
:10476000A6F1DE46B6F1805F4FEA15251FD938461F
:1047700024F0010C05EBC471BCF1FE6F01EB0C11D0
:1047800002D8F0BCBDE8008124425CBF01F5801E68
:104790009EEAC47F02D4F0BCBDE80081244238D434
:1047A000F0BCA1F1C041BDE8004100F0D7B94FEA2B
:1047B000D22242EA43524FEAD323A7FB02864FEAB2
:1047C000D02040EA415007FB03661EEA0E0F4FEA75
:1047D000D12105FB026658BFA6EB0056B6EB00568A
:1047E0004FEA520E4EEAC37E18EB0E0E56EB530EF6
:1047F000BDD518EB02085E417F1C55F10005B6E7F8
:104800004FF480154FF000074FF000064FF00008FE
:10481000ADE7F0BC4FF0000001F1C04101F00041F4
:10482000BDE8008111EA0C1F0CEA131500D00CE062
:1048300013EA0C1F00F025804FF00000F0BC81EA65
:10484000030101F00041BDE80081F0BCBDE800417A
:1048500081EA030100F082B9F0BCBDE8004170B507
:1048600000F02EF9097EFC3E00F007B881EA030152
:104870004FF0000001F00041704781EA030100F0B1
:104880006DB9F0BCBDE800414FF000002149704710
:10489000FFFDFBF9F7F5F4F2F0EEEDEBE9E8E6E405
:1048A000E3E1E0DEDDDBDAD8D7D5D4D3D1D0CFCD8C
:1048B000CCCBCAC8C7C6C5C4C2C1C0BFBEBDBCBBC5
:1048C000BAB9B8B7B6B5B4B3B2B1B0AFAEADACABC0
:1048D000AAA9A8A8A7A6A5A4A3A3A2A1A09F9F9E9A
:1048E0009D9C9C9B9A99999897979695959493934C
:1048F000929191908F8F8E8E8D8C8C8B8B8A8989E3
:104900008888878786858584848383828281818065
:104910000000FF070000F87F10F0004248BF40424F
:10492000B0FA80F310FA03F10AD0C3F11D0303F5C6
:1049300080634FEA415002EB035202EBD1217047F2
:104940004FF000007047B0FA80F310FA03F10AD07C
:10495000C3F11D0303F580634FEA41504FEA035250
:1049600002EBD12170474FF000007047DFF848C1DB
:1049700070B51CEA111E1EBF1CEA13159EEA0C0F2F
:1049800095EA0C0F00F06F8081EA030423EA4C13D0
:104990004EEAD47E21EA4C1141F4801143F4801395
:1049A000AE44A1FB024CA0FB0365AEF17F7E36193D
:1049B00055EB0C05A1FB034C4CF10003A0FB021CC2
:1049C00016EB0C06654153F10003094218BF46F08F
:1049D000010613F4007F0BD14FEA03314FEA053093
:1049E000340341EA155140EA16506FF003020AE021
:1049F0004FEAC3214FEAC520F40241EA555140EA8B
:104A000056506FF0020202EB2E4201EB025585EA8E
:104A1000CE710AD05FEA440C18BF24F0004450F174
:104A2000000041F1000120EAD47040F2FE7C6245B2
:104A300000D270BDA84214BF4FF080444FF04044F4
:104A4000002E08BF0024BEF1806FA8BFA1F1C041B5
:104A5000BDE8704080F282804FF0000001F1C0415B
:104A600001F0004170479EEA0C0F0CEA131518BFC5
:104A700095EA0C0F06D04FF0000081EA030E0EF00D
:104A8000004170BD00F01CF88900013E00F007B83D
:104A900000F009B84FEA430C5FEA5C5C08D081EA99
:104AA000030100F05BB84FEA410C5FEA5C5CF6D1B1
:104AB0004FF00000014970470000FF070000F87F39
:104AC0000EF1020E2EF0030E5EF8046B364205D492
:104AD000012A43EB030515F5001F12D8012841EB0D
:104AE000010C1CF5001F0CD80ED14FEAD17C15F536
:104AF000001F0CEB4C0C0CF1020C08BF4CEBD37CF0
:104B000004E04FF0080C01E04FEAD37C0CEB4C05BD
:104B100026FA05F606F00706B6F1040C06D20EEBEF
:104B2000860CBDE870404CF0010C6047DFE80CF0EB
:104B3000090B02024FF000414FF00000A1F50021E7
:104B400070BD19461046012851EB010418BFD4F579
:104B5000001484BF002001F0004170BD0808A0F5DA
:104B600000114FEA3101704791EA030F10B581F04F
:104B700000413FF5D1AC83F0004300F009B80000DC
:104B800010B591EA030F48BF83F000433FF5C4AC72
:104B9000841A71EB030C07D212198CF0004C43EB12
:104BA0000C03001B61EB0C01DFF8A4E14FEA115488
:104BB000A4EB135C1EEA430F18BF9EEA445F00F0AB
:104BC000B08023EA6E03524221EA0451C3EB6E0324
:104BD00038BF5B1EDCF1200E25D322FA0CFE10EB51
:104BE0000E0043FA0CFE41EB0E01CCF1200E03FA4D
:104BF0000EFE10EB0E0051F10001CCF1200E29D475
:104C000012FA0EF201EB0451BDE8104058BF704794
:104C1000401C1CBFB2F1004F704700280CBF491C5C
:104C200020F00100704712EB020E43EB030218BFA5
:104C30004FF0010E4EEA4202ACF1200CDCF11E0EE8
:104C400054D943FA0CFE10EB0E0051F1FF31CCF1B8
:104C50001E0ED5D50EF1010E12FA0EFE404141EBAB
:104C6000010101EB445C5FEA5C5C10D910EBDE7083
:104C700001EB045138BFBEF1004FBDE8104018BF32
:104C8000704700280CBF491C20F00100704730D24B
:104C90004FEAD42C11F5001124F400641BD0B1FAB2
:104CA00081F20B3AA41AA41ED2F12003914030FAEB
:104CB00003F31943904001EBCC71002C01EB04513C
:104CC000BDE81040A8BF704701F1C0414FF000009F
:104CD00001F000417047B0FA80F310FA03F100D1FF
:104CE00010BDE41A173C4805C90AE4E701EB04517A
:104CF00010BD491001EB0451BDE810404FEA3000EF
:104D000002E04FF0000170474A0008BF0042F8D0AF
:104D1000B2F5001F28BF704701F000414FF00000BE
:104D200070479EEA445F07D011EA5E0FBDE810406D
:104D300004BF002100207047BDE8104070B5FFF7A8
:104D4000BFFE00BF40DFF63E83F0004110467047D3
:104D50000000E0FF43004FEAD30C4FEA3C0C434015
:104D60001FBF40070CF1605113F0FE4F70471CF05D
:104D7000006F03D100200CF0004170470CF000439D
:104D800043EA507010B540EACC0000F048FA00BF8A
:104D9000000000924FEA0001FFF7E0BE4FF0004133
:104DA0004FF00000A1F500217047000090EA010FCC
:104DB00048BF81F0004100F1C082421A3CBF801A16
:104DC00089184FEAD0524FF07F4C1CEA410FA2EBFA
:104DD000D15318BF9CEA026F00F03B804FF0004CAB
:104DE0004CEA00204CEA012121FA03FC10EB0C0CE8
:104DF0001ED202F1FF325FEA1C2040EBC25038BFE6
:104E000070471CF07F0F4FEA400C18BFBCF17F4F7A
:104E100038BF7047C3F12003994008BF20F001005C
:104E2000BCF17F4F38BF7047A0F1C04000F03DBAE1
:104E30004FEA3C00000A40EBC25028BF1CF0FF0FB5
:104E40004FEA400CE6D018BFBCF17F4F38BF704727
:104E5000EAE79CEA026F05D010EA5C0F08BF00F099
:104E60000040704710B500F0DAF900BF64FBBE3EA9
:104E7000401058BFC0F14040491058BFC1F14041F7
:104E80008142EFF3008070474FF47F0C1CEAD01290
:104E90001EBF1CEAD11392EA0C0F93EA0C0F00F02C
:104EA000858090EA010F48BF42F4807240F4000C04
:104EB00041F400002CF07F4120F07F4000B581429A
:104EC000A2EB03020FF2081CACEB504EC0F1000045
:104ED0009EF800E04FEA4E0E00FB0EFC38BF490082
:104EE0004FEA2C1C02F5FA020CFB0EF34FEACE1E21
:104EF0004FEA112C4FEAC1210EEB635E42EB2242D6
:104F00000EFB0CFC4FEA1C5300FB03114FEA112C63
:104F10004FEA01310EFB0CFC4FEADC4C00FB0C119C
:104F2000C14228BF09184CEB03335DF804EB10EBCA
:104F3000410143EBC250B2F57C0F38BF704729D511
:104F400012F0F00F1CBF00F1C04000F000407047AD
:104F5000008182838485868788898B8C8D8E8F9152
:104F60009293959697999A9C9D9FA0A2A3A5A7A876
:104F7000AAACAEB0B2B3B5B7B9BCBEC0C2C5C7C9A2
:104F8000CCCED1D4D7D9DCDFE2E6E9ECF0F3F7FA06
:104F9000FE0000004FEA400C0CF1807CBCF17E4F1B
:104FA00028BF7047B0F1C04000F07FB990EA010F10
:104FB0000CEAD11348BF42F48072624538BF6345A2
:104FC00007D213F47F0F16D080EA010000F00040F2
:104FD000704710B500F023F9097EFC3E00F005B8DB
:104FE00080EA010000F00040704780EA010000F014
:104FF000004000F05AB912F47F0F04BF0248704716
:1050000080EA010000F051B90000C07F41000B0EA2
:10501000D3F19E0208D950F400034FEA032323FA88
:1050200002F048BF4042704710B500F0F8F800BFEA
:1050300049922480002070476FF0004282EA2000ED
:1050400070470000C10DD1F19E0206DB4FEA00233C
:1050500043F0004323FA02F07047004207D54FEABD
:105060004001B1F1FE4F02D24FF00000704710B581
:1050700000F0D5F849922480002070476FEA2000A4
:105080007047000010F0004148BF4042B0FA80F382
:1050900010FA03F2C3F19D030BD051EAC35101EBA7
:1050A0001220530638BF704700F1010008BF20F0FE
:1050B0000100704750EA010C00F113801CF5000F4D
:1050C00058BFBCF5000F01D48842704707D710F5D0
:1050D000000F58BF11F5000F15D488427047894260
:1050E00070471CF5000F04D5BCF5000FF7D58142C1
:1050F00070474FF0807C1CEB400F38BF1CEB410F1A
:1051000001D28142704710B500F089F8922449001D
:105110004FF000504FF08051FFF7AABE4FF47F0CC4
:105120001CEAD0121EBF1CEAD11392EA0C0F93EABC
:105130000C0F00F0478090EA010F48BF42F48072E4
:105140004FF0004C4CEA00204CEA012102EB030234
:10515000A0FB0113A2F50002002918BF43F00103D0
:105160005B0028BF4FEA330342EB22425FEA132C75
:105170004CEBC2502EBFBCEB436FB2F57C0F7047B7
:105180004FEA036CBCF1004F08BF20F00100B2F5FC
:105190007C0F38BF70470BD582F0FF0212F5803FBD
:1051A000C8BF704700F1C040D8BF00F00040704752
:1051B00000F5000C5FEA4C0C48BF7047B0F1C040EE
:1051C00000F073B890EA010F0CEAD11348BF42F423
:1051D0008072624538BF634504D280EA010000F066
:1051E0000040704710B500F01AF800BF8900013E7A
:1051F00000F007B800F009B85FEA410C5FEA1C6CE8
:1052000008D080EA010000F050B85FEA400C5FEA85
:105210001C6CF6D14FF00040A0F5800070470EF1F5
:10522000020E2EF0030E5EF8044B244204D44FEA23
:105230004102B2F17F4F11D84FEA4003B3F17F4FE3
:105240000CD80ED14FEAD07CB2F17F4F0CEB4C0C56
:105250000CF1020C08BF4CEBD17C04E04FF0080CC1
:1052600001E04FEAD17C0CEB4C0324FA03F404F088
:105270000704B4F1040C06D20EEB840CBDE8104018
:105280004CF0010C6047DFE80CF0070802024FF019
:105290000040A0F5800010BD0846420018BFD2F1C2
:1052A000807288BF00F0004010BDFF2141EAD0505D
:1052B000C005704751EA000C00F113801CF5000F87
:1052C00058BFBCF5000F01D48142704707D711F5D4
:1052D000000F58BF10F5000F15D481427047894266
:1052E00070471CF5000F04D5BCF5000FF7D58842B8
:1052F00070474FF0807C1CEB410F38BF1CEB400F18
:1053000001D28842704780EA010081EA000180EA08
:105310000100FFF7F8BE80F0004090EA010F7FF532
:105320004CAD81F0004100F008B8000090EA010F98
:1053300048BF81F000413FF540AD421A04D882F0E9
:105340000042A0EB020011444FEAD0524FF07F4CD4
:105350001CEA410FA2EBD15318BF9CEA026F4AD05E
:105360004FF0004C4CEA00204CEA012121FA03FCEA
:10537000B0EB0C0C0FD412F0FE0F36D05FEA4C00ED
:105380001DD5001240EBC25038BF70471CF03F0FD4
:1053900018BF70470BE0A2F101025FEA1C2040EB4E
:1053A000C25038BF70471CF07F0F18BF7047C3F161
:1053B0002003994014BF401E20F001007047800870
:1053C0004FEA122308BF7047B0FA80FCA2EB0C0230
:1053D000CCF1280C60FA0CF093EA122F04BF00EB1A
:1053E000C25070474FEAC3707047130A5FEADC107F
:1053F00008BF7047F6E79CEA026F04D010EA5C0F22
:1054000008BF0020704710B5FFF709FF40DFF63EE8
:1054100081F000407047FBF787B90CF00F03092BB0
:1054200008BF082000F059800A2B0BD0082B18BFAA
:10543000704708BF1CF0400F0AD04FF000004FF03B
:10544000000170471CF0400F18BF4FF0004070473C
:105450001CF0100F08D020F0704300F07F4242EAA9
:10546000D3014FEA4370704700F0604021F07F4263
:1054700042EA000201F07F4040EA727070474FF04C
:10548000FF0C4CF4E06C1CEA11531CBF9CEA030CAB
:105490009445C2BFDA4201EB02517047002B0DD098
:1054A000BCF1000F0FD0002A01F00041A4BF41F071
:1054B000E04141F07F614FF00000704701F0004192
:1054C0004FF00000704750EA01334FF09B0C18BFBB
:1054D0004CF0806C7FF4C0A870471CF4801F11D082
:1054E0001CF4E02F03D06FEACC31490070474FF035
:1054F0004050EFF3008222F0704242EA000282F351
:10550000008870474FF0000070470000A2FEFFFFC8
:1055100006FFFFFF6AFFFFFFCEFFFFFF3200000024
:1055200096000000FA0000005E010000000000008C
:10553000000000000000000000000000000000F873
:1055400000000000000000333000000000100C06D6
:10555000100C0600000000000000000040C0784071
:10556000C0784000043F04043F040400007088FC3D
:1055700008300000001820FF211E0000F008F00095
:10558000E018000000211C031E211E0000F0088806
:10559000700000001E2123241927211010160E0070
:1055A000000000000000000000000000000000E01B
:1055B0001804020000000007182040000002041830
:1055C000E00000000040201807000000404080F08C
:1055D000804040000202010F01020200000000F0C2
:1055E000000000000101011F010101000000000096
:1055F0000000000080B0700000000000000000000B
:105600000000000000010101010101010000000093
:10561000000000000030300000000000000000002A
:1056200080601804006018060100000000E0100807
:105630000810E000000F102020100F00001010F8DC
:10564000000000000020203F20200000007008081B
:10565000088870000030282422213000003008889B
:10566000884830000018202020110E000000C020C3
:1056700010F8000000070424243F240000F80888E4
:10568000880808000019212020110E0000E0108871
:1056900088180000000F112020110E0000380808A3
:1056A000C83808000000003F0000000000708808B3
:1056B00008887000001C222121221C0000E0100834
:1056C0000810E0000000312222110F00000000C08D
:1056D000C00000000000003030000000000000802A
:1056E000000000000000806000000000000080401A
:1056F0002010080000010204081020004040404033
:105700004040400004040404040404000008102085
:1057100040800000002010080402010000704808CA
:105720000808F0000000003036010000C030C82832
:10573000E810E0000718272423140B000000C038ED
:10574000E0000000203C23020227382008F8888867
:1057500088700000203F202020110E00C030080873
:1057600008083800071820202010080008F808084A
:105770000810E000203F202020100F0008F8888843
:10578000E8081000203F20202320180008F888880F
:10579000E8081000203F200003000000C030080887
:1057A0000838000007182020221E020008F8080010
:1057B0000008F808203F210101213F20000808F8D7
:1057C000080800000020203F2020000000000808FA
:1057D000F8080800C08080807F00000008F888C0BA
:1057E00028180800203F20012638200008F808006B
:1057F00000000000203F20202020300008F8F800A2
:10580000F8F80800203F003F003F200008F830C0B3
:105810000008F808203F200007183F00E0100808A3
:105820000810E0000F10202020100F0008F80808D2
:105830000808F000203F210101010000E0100808E5
:105840000810E0000F18242438504F0008F888880A
:1058500088887000203F2000030C302000708808EA
:10586000080838000038202121221C00180808F8F8
:10587000080818000000203F2000000008F8080079
:105880000008F808001F202020201F00087888004A
:1058900000C83808000007380E010000F80800F8BA
:1058A0000008F800033C0700073C03000818688064
:1058B0008068180820302C03032C30200838C800DA
:1058C000C83808000000203F200000001008080829
:1058D000C83808002038262120201800000000FECB
:1058E000020202000000007F40404000000C30C077
:1058F00000000000000000010638C00000020202A3
:10590000FE000000004040407F0000000000040254
:10591000020204000000000000000000000000007F
:10592000000000008080808080808080000202046F
:105930000000000000000000000000000000808067
:10594000808000000019242222223F2008F80080D5
:1059500080000000003F112020110E000000008098
:1059600080800000000E1120202011000000008027
:105970008088F800000E112020103F200000808059
:1059800080800000001F222222221300008080F06D
:10599000888888180020203F202000000000808098
:1059A00080808000006B94949493600008F80080DD
:1059B00080800000203F210000203F200080989838
:1059C000000000000020203F202000000000008098
:1059D0009898000000C08080807F000008F80000D8
:1059E00080808000203F24022D302000000808F82D
:1059F000000000000020203F2020000080808080E8
:105A000080808000203F20003F20003F8080008079
:105A100080800000203F210000203F200000808087
:105A200080800000001F202020201F008080008038
:105A30008000000080FFA12020110E0000000080E7
:105A400080808000000E112020A0FF8080808000D8
:105A50008080800020203F21200001000000808005
:105A6000808080000033242424241900008080E0FA
:105A7000808000000000001F2020000080800000C7
:105A800000808000001F202020103F2080808000A8
:105A90000080808000010E300806010080800080B8
:105AA000008080800F300C030C300F0000808000DD
:105AB000808080000020312E0E3120008080800008
:105AC0000080808080818E701806010000808080B8
:105AD000808080000021302C222130000000000056
