:020000040800F2
:10000000C0090020750200087D0200087F02000878
:100010008102000883020008850200080000000039
:10002000000000000000000000000000870200083F
:1000300089020008000000008B0200088D02000801
:100040008F0200088F0200088F0200088F0200084C
:100050008F0200088F020008B51C0008CD1C0008A4
:10006000E51C0008211D0008391D00088F0200084A
:100070008F0200088F0200088F0200088F0200081C
:100080008F0200088F0200088F0200088F0200080C
:100090008F0200088F0200088F020008411D00082F
:1000A0008F0200088F0200088F0200088F020008EC
:1000B0009D2B0008BD2B0008E12B00088F020008D3
:1000C0008F0200088F0200088F0200088F020008CC
:1000D0008F020008E92B0008112C00082D2C0008C5
:1000E0008F0200088F0200088F02000800F002F85B
:1000F00000F0B0F80AA090E8000C82448344AAF112
:100100000107DA4501D100F0A5F8AFF2090EBAE80F
:100110000F0013F0010F18BFFB1A43F0010318473B
:10012000B4630000D46300000A444FF0000C10F8E0
:10013000013B13F0070408BF10F8014B1D1108BF65
:1001400010F8015B641E05D010F8016B641E01F805
:10015000016BF9D113F0080F1EBF10F8014BAD1C55
:100160000C1B09D16D1E58BF01F801CBFAD505E073
:1001700014F8016B01F8016B6D1EF9D59142D6D3CD
:10018000704700000023002400250026103A28BFF5
:1001900078C1FBD8520728BF30C148BF0B607047F9
:1001A0006E2900F01683702900F06F86662905F02D
:1001B0002C85652905F02985672905F026856129A3
:1001C00005F0258503681B0A28BF41F080016929D5
:1001D00000F0A280642900F09F80752900F09C80C7
:1001E0006F2900F0FC85782900F03B86E92900F0B2
:1001F0009785E42900F09485F52900F09185EF2991
:1002000000F0F985F82900F03A860368DB0928BF79
:1002100041F08001632901F05580732901F05A8073
:10022000E32901F06580F32901F06A80002070471E
:100230001FB500F035FE04000020002104F016FD7B
:10024000401C60600020002104F0FAFCE0601FBD4B
:1002500010B510BD01F0EEF81146FFF7E9FF03F00D
:10026000C9F901F015F903B4FFF7F2FF03BC02F07E
:100270006EFD00000948804709480047FEE7FEE799
:10028000FEE7FEE7FEE7FEE7FEE7FEE7FEE7FEE746
:1002900004480549054A064B704700003D2B0008FD
:1002A000ED000008C0030020C0090020C0050020A8
:1002B000C0050020704700007CB51D4616460C00A6
:1002C000009001D02044401E074B7B442A466946DB
:1002D0000190304600F0A5FC05461CB1002069469F
:1002E00000F0B2FC28467CBD850900000FB41CB5A7
:1002F000084B06AA7B4469460090059800F091FCE3
:1003000004460020694600F09FFC20461CBC5DF8B6
:1003100014FB0000510900002DE9F04106460024BD
:1003200010687529314616A510D000F0BEF90028D6
:1003300002DA404213A507E031688A0701D512A509
:1003400002E0490704D511A5012401E000F0B6F947
:1003500000210A2206F1240709E0B0FBF2FCB0FB01
:10036000F2F302FB1C00303078541846491C002878
:10037000F3D123462A463046BDE8F04100F0D0B91B
:10038000000000002D0000002B00000020000000F5
:100390002DE9F05F894604464FF0000ADFF874B19A
:1003A000FB44C0F820A02046E1688847002874D0AC
:1003B000252806D0D4E901219047206A401C2062FC
:1003C000F1E700265F462046E16888472028054679
:1003D00007DB312D05D2781910F8200C08B106433F
:1003E000F1E7B00701D526F00406C4F81CA00027E9
:1003F000C4F818A02A2D09D0284602F0A1FC38B371
:1004000004EB8708303DC8F8185019E059F8041B70
:10041000204604EB87029161E1688847012F054679
:1004200018D1E069002820DA26F020061DE0D8F86F
:10043000180000EB800005EB40003038C8F81800C9
:100440002046E1688847054602F07AFC0028EED194
:10045000012F0AD02E2D08D12046E16888477F1C45
:100460000546022F46F02006C4DBA069002803DA07
:10047000404246F00106A061F00701D026F01006C8
:100480006C2D0BD0682D09D04C2D39D06A2D35D06C
:10049000742D35D07A2D33D016E038E0E1682F4640
:1004A00020468847B842054609D16C2F26D04FF424
:1004B0008060E168064320468847054604E06C2FCB
:1004C0001AD04FF4807006430DB3A5F141001928EE
:1004D00002D8203546F400664A4629462046266062
:1004E0004E46FFF75DFE80B101280BD0F61D26F0C9
:1004F000070000F1080956E74020E4E78020D8E72C
:100500000020D6E706F104094DE7284652E7206AA5
:10051000BDE8F09F8C5F0000032A40F2308010F0AD
:10052000030C00F0158011F8013BBCF1020F62448E
:1005300098BF11F801CB00F8013B38BF11F8013B1F
:10054000A2F1040298BF00F801CB38BF00F8013BCC
:1005500011F0030300F02580083AC0F0088051F83C
:10056000043B083A51F804CBA0E80810F5E7121D47
:100570005CBF51F8043B40F8043BAFF30080D20766
:1005800024BF11F8013B11F801CB48BF11F8012B32
:1005900024BF00F8013B00F801CB48BF00F8012B55
:1005A000704710B5203AC0F00B80B1E81850203ADF
:1005B000A0E81850B1E81850A0E81850BFF4F5AF03
:1005C0005FEA027C24BFB1E81850A0E8185044BF8D
:1005D00018C918C0BDE810405FEA827C24BF51F8FA
:1005E000043B40F8043B08BF7047D20728BF31F8EE
:1005F000023B48BF11F8012B28BF20F8023B48BF3F
:1006000000F8012B70474FF0000200B513469446E6
:100610009646203922BFA0E80C50A0E80C50B1F15A
:100620002001BFF4F7AF090728BFA0E80C5048BF6E
:100630000CC05DF804EB890028BF40F8042B08BF0C
:10064000704748BF20F8022B11F0804F18BF00F808
:10065000012B7047704770477047704770B504466C
:1006600085690068C10601D5302600E02026C00754
:1006700007D070BDD4E9012130469047206A401C64
:1006800020626D1EF6D570BD70B504468569007890
:10069000C00707D170BDD4E9012120209047206A0E
:1006A000401C20626D1EF6D570BD09684A0501D553
:1006B00040B27047C905FCD500B2704709684A05C9
:1006C00001D5C0B27047C905FCD580B2704770B57E
:1006D0000C460546012A05D02878800600D5EA692F
:1006E000002302E0012305E05B1C934202D2E05CA0
:1006F0000028F9D1A869E618C01AA861286A184428
:1007000028622846FFF7AAFF04E0D5E9012114F882
:10071000010B9047B442F8D32846FFF7B5FF70BDF0
:100720002DE9F0470D4699469246044600F124080B
:100730000168880604D5E06921F01001216000E01D
:100740000120A84201DD471B00E00027A1697A19BA
:1007500002EB0900081AA0612078C00602D42046E6
:10076000FFF77CFF002608E0D4E901211AF8060013
:100770009047206A401C761C20624E45F4DB2078AE
:10078000C0060AD52046FFF769FF06E0D4E901213B
:1007900030209047206A401C2062381EA7F10107D4
:1007A000F4DC07E0D4E9012118F805009047206A3D
:1007B000401C2062281EA5F10105F3DC2046FFF74E
:1007C00063FF2078000602D50220BDE8F0870120F3
:1007D000FBE711680268006A530501D508700AE05A
:1007E000D30501D5088006E0130603D5C217C1E979
:1007F000000200E008600120704770472DE9FF4FBC
:100800000C461E464FF0FF378BB0D2E90001DDF8F1
:1008100060800A908A46C1F30A5505B93D46002119
:1008200008464FF00000BAF1000F00F4400005DA6E
:1008300000EB80004FF4400101EA50004FEA90596C
:10084000B9F1010F00DDB9460A9850EA4A000ED00E
:1008500044F61050A5F2FF3545432F14B8F1000FB0
:100860001ED07542291E1EDDC9F100021CE0B8F140
:10087000010F4FF0000001D0302103E0F24305E00A
:100880002154401CB042FBDB3046002200212154A1
:100890000B99C1F80880C1E900200FB0BDE8F08FC6
:1008A000BD1B6D1CDEE74A4600DA694206A800F06F
:1008B0002BFD06AB93E8070003AB83E80700504627
:1008C0000A9900F02FFE8DE80700A0F500501F38B0
:1008D00000900398002D0ADD42F21F014A460844A9
:1008E000002303A90390684601F098F809E0A0F5F9
:1008F00000504A461F38002303A90390684601F0C0
:10090000A2F88DE807000004000C03D04FF0FF3080
:10091000410800E01046B8F1000F03D00022009219
:1009200015461EE0751E05D400F0BEFA3032625541
:100930006D1EF9D5B3460122084302D000227F1C68
:1009400004E02078302801D100227F1E002A099778
:1009500084D01DE0112D07DA00F0A6FA303262557E
:100960006D1C50EA0102F5D1084302D00098C8B1CD
:100970000EE00021681E05E0235C625C6354225493
:10098000401E491C8142F7DBAB46A81B401E099064
:10099000002004F80B000B98099AC0F80880C0E901
:1009A000002B7AE711264FF0000857E72DE9F04FAA
:1009B00088460446D21D22F0070191B0D1E900011A
:1009C000CDE90A0102F046F902460B98C00F01D0AA
:1009D0002D2007E02068810701D52B2002E020218F
:1009E00001EAC000032A099001D0072A05DB03466B
:1009F0004146204600F01CFC0BE12078800601D522
:100A0000E06900E00620B8F1650F814606D0B8F134
:100A1000660F18D0B8F1670F70D131E00020B9F13E
:100A2000110F009001DB112301E009F101030AAA73
:100A300001A90CA8FFF7E2FEDDE90C70002609F120
:100A40000105834647E001204B4600904FF00047E8
:100A50000AAA01A90CA8FFF7D1FEDDE90DB00C9997
:100A60005D46002610B909F101000D18B9EB05002B
:100A700003D4C0F1FF3609F10105A5EB09002BE015
:100A8000B9F1010F01DA4FF001090020B9F1110F9E
:100A90000090484601DD112300E003460AAA01A99F
:100AA0000CA8FFF7ABFEDDE90C704D46002683462F
:100AB000207800070AD4AB4500DA5D4601A8012D75
:100AC00004DD411911F8011C302907D04F4502DA25
:100AD00017F1040F04DA012082460FE06D1EEEE7E5
:100AE000002F02DCED1B3E4403E0781CA84200DD31
:100AF0007D1CB81B00F1010A4FF000472078000769
:100B000003D4AA4501DB4FF0FF3A0021B7F1004FB3
:100B10000DF143088DF8431024D002202B23002F21
:100B200001DA7F422D230A21021EA0F1010000DC20
:100B30005FB197FBF1FC97FBF1F201FB1C7C1746C0
:100B40000CF1300C08F801CDEEE7A8F101000370BC
:100B50002188090501D5452100E06521A0F10108A2
:100B600000F8011C09980FA9A1EB0807FF1D00B1AF
:100B70000120411901EBEA70A1693844081A401EAE
:100B8000A0612078C00602D42046FFF767FD0998CF
:100B900028B1D4E901219047206A401C20622078C6
:100BA000C00622D52046FFF759FD1EE0002E04DBCB
:100BB000B34502DD01A8805D00E03020D4E90121C9
:100BC0009047206A401C2062761CAAF101005FEA6F
:100BD000000A0AD100F064F9C0680168405CD4E9F9
:100BE00001219047206A401C2062281EA5F10105C2
:100BF000DCDC07E0D4E9012118F8010B9047206AFA
:100C0000401C2062381EA7F10107F3DC2046FFF7E5
:100C10003BFD032011B041E601694A1C02610878DE
:100C2000704700B58FB0CDE901310021059105492C
:100C30007944CDE9031011466846FFF7A9FB0FB0D0
:100C400000BD0000E5FFFFFF0A6802F8010B0A6023
:100C50007047D1E900239A4202D2531C0B601070F6
:100C6000704700002DE9FF5F15468A460446DFF80D
:100C7000AC80F8440027D8E900103E46CDE90010CA
:100C800010E03AF816106A4602A800F0AFFB411CCB
:100C900007D02178890603D5E269391891420DD829
:100CA0000744761C2078800602D5E069B84205DD4D
:100CB000AE42E6DB3AF816000028E2D1A069C01B7C
:100CC000A0612046FFF7CAFCD8E90010CDE900106A
:100CD000002017E03AF818106A4602A800F086FBD8
:100CE000B0F1FF3F81460BD000250DF1080B05E068
:100CF000D4E901211BF8050090476D1C4D45F7D341
:100D000008F10100B0428046E4DB206A38442062EA
:100D10002046FFF7B9FCBDE8FF9F00006A570000BE
:100D20002DE9F0418046D21D22F007020025D2E9CC
:100D30000002F52915A614D0011E72F1000106DA91
:100D40000023D0EB030063EB020211A608E0D8F801
:100D500000108B0701D50FA602E0490701D50EA6AA
:100D600001251146002408F1240704E000F09CF856
:100D700030323A55641C50EA0102F7D12B46324614
:100D800021464046BDE8F041FFF7CABC0000000024
:100D90002D0000002B0000002000000030B40021D6
:100DA00000F1240408E002F00705D208303542EAD9
:100DB0004372DB086554491C52EA0305F3D1046809
:100DC000002310A2250707D5A40600D421B1C469C9
:100DD00001230DA2641EC46130BCFFF7A1BC10B595
:100DE000044621461068FFF769FC02462046BDE82C
:100DF00010400023D2E7D21D22F00701D1E90023E1
:100E0000CCE700000000000030000000F0B40D4608
:100E10000188090502D5214C7C4402E01F4C7C442A
:100E20000E34002100F1240608E002F00F07120939
:100E3000E75D42EA03721B097754491C52EA030733
:100E4000F3D102780023120704D5702D06D009B122
:100E5000022311342246F0BCFFF762BC0123103498
:100E6000F8E770B504460D4621461068FFF726FCEA
:100E7000024629462046BDE870400023C6E7D21D41
:100E800022F00703D3E90023C0E70368126843F0A8
:100E9000200303600823C3610023B7E7CC5500009B
:100EA000004870478003002030B5B0F10A024FEAD5
:100EB000900E71F100034EEA817EB0EB0E0061EB03
:100EC00091014FEA101E4EEA017E10EB0E0041EB3D
:100ED00011114FEA102E4EEA016E10EB0E0041EB9D
:100EE00011214FEA104E4EEA014E10EB0E0041EB7D
:100EF0001141401841F100014FEAD00040EA417031
:100F00004FEAD10110EB80054FEA810444EA907466
:100F100044EB01046D1944EB0404521BA3414FF050
:100F2000000348BF0A3200D530BD401C41F100012A
:100F300030BD00002DE9F04F04460D46D21D22F0D1
:100F4000070089B0D0E900974846394601F082FE93
:100F50000246F80F01D02D2307E02068810701D554
:100F60002B2302E0202101EAC0038DF820300BB1D1
:100F7000012000E00020032A824601D0072A04DB7A
:100F80002946204600F054F93FE12078800601D43C
:100F90000D2500E0E569C7F30A560D2D49DA002159
:100FA0004FEA175B08464FF00000002F00F44000A6
:100FB00007DA00EB80004FF4400100EBD07001EA4B
:100FC00060008115012901DD4FF0FF3100224FEA59
:100FD000850CBCF1180F06D31346ACF118004FF086
:100FE0008052C24003E04FF4801323FA0CF30CF15B
:100FF0000C0CBCF1200F04D3ACF1200C09FA0CF05E
:1010000001E007FA0CF000294FF0004801DD18B9A3
:101010000FE00ED140450CD319EB02095F4121B915
:10102000404502D19F4329EA0209BBEB175F00D07C
:10103000761C2088000502D57B48784402E07A4877
:101040007844193808AA302302F80A30037C0AF1E0
:101050000101002E0AF1020A53546A4602DC4FF0E5
:10106000300101E04FF031014FF001088DF8001020
:1010700002D0A6F2FF3603E059EA470100D06B4EDA
:10108000002D02DC2178090704D54FF002082E213B
:101090008DF80110C44600210BE0C7F303433F0164
:1010A000C35C491C6D1E02F80830052908F10108CF
:1010B00001DA002DF1DC00210CE000EB1973491C72
:1010C0001B786D1E082902F808304FEA091908F14B
:1010D000010801DA002DF0DC21688B0602D516E04C
:1010E000A8F10108E04505DD02EB080313F8013C17
:1010F000302BF5D0B8F1000F09DD02EB080313F82F
:10110000013C2E2B03D1090701D4A8F10108002DC1
:1011100005DD3E2102F808106D1E08F10108407C33
:10112000002E02F8080008F1010804DA2D207642AA
:1011300002F8080002E02B2002F808000A214FF410
:101140007A70864208F101080BDB96FBF0F330332E
:1011500002F8083096FBF0F308F1010800FB136673
:1011600001E0642E0CDB642096FBF0F3303302F8D0
:10117000083096FBF0F308F1010800FB136601E06C
:101180000A2E06DB96FBF1F0303002F8080008F179
:10119000010896FBF1F001FB1060303002F8080006
:1011A000A16908F1010808EB050202EB0A00081A20
:1011B000A0612078C00602D42046FFF74FFA216ACA
:1011C00008AE01EB0A00206204E0D4E9012116F820
:1011D000010B9047BAF1010AF7D22078C00602D578
:1011E0002046FFF73BFA6E4609E016F8010B3E2851
:1011F0000FD0D4E901219047206A401C2062B8F149
:101200000108F2D22046FFF73FFA09B00320BDE8FB
:10121000F08F206A2844206203E0D4E901213020C5
:1012200090476D1EEBD3F8E7ED53000002FCFFFF83
:101230002DE9F0411F46044603260168072A01F400
:10124000006004DB08B116A505E016A503E008B1AF
:1012500015A500E015A521F010002060A069C01EB2
:10126000A0610FB1401EA0612046FFF7F7F94FB112
:10127000D4E9012138469047206A401C2062C01CF6
:10128000206206E0206AFAE7D4E9012115F8010B93
:101290009047761EF8D22046FFF7F6F9BDE8F081B8
:1012A0004E414E006E616E00494E4600696E66000A
:1012B00010B5436913B1AFF3008001E0FFF707FAFF
:1012C000012010BD127800F124010A7000224A703A
:1012D0000122EDE711684FF0FF32E9E710B54369ED
:1012E00013B1AFF3008001E0FFF7BCFC012010BD9B
:1012F000128800F1240182840022C2840122EDE7D9
:1013000011684FF0FF32E9E72DE9F04781461646B4
:101310008AB0354878440DC88DE80D0032487844CD
:10132000801C03AC0DC884E80D0041F69B300844D6
:10133000372190FBF1F290FBF1F5A5F1800501FB5F
:1013400012041B3C02D56442012000E00020DFF8BB
:1013500098A080460027FA44AAF1BE0A0EE0E007F2
:101360000AD03246684607EB470101230AEB8101A8
:1013700000F069FB8DE8070064107F1C002CEED1A3
:10138000194F7F44AE3F19E0E80715D007EB041072
:101390000DF1180A90E80E008AE80E00C068F042CD
:1013A00001D1981908903246012306A903A800F03C
:1013B0004AFB03AB83E807006D10641C002DE3D1EA
:1013C0004FF0010332466946B8F1000F03A802D07E
:1013D00000F024FB01E000F036FBC9E90001C9F888
:1013E00008200AB0BDE8F087A451000070B5164689
:1013F0000C46054600F044F8036893F80101012803
:1014000006D0FF2C0FD8185D68B101202C7070BD7C
:10141000D3F807013246214603F207130344284656
:10142000BDE8704018474FF0FF3070BD004870476E
:10143000600300207546FFF7F9FFAE4605006946D8
:10144000534620F00700854618B020B5FEF720FF70
:10145000BDE820404FF000064FF000074FF00008B5
:101460004FF0000B21F00701AC46ACE8C009ACE836
:10147000C009ACE8C009ACE8C0098D46704700005F
:1014800010B5FFF70DFD001D10BD00BFE1370000D6
:1014900010B50446AFF300802046BDE81040FEF7CB
:1014A000E2BE00004FF0013C50F8042B51F8043B21
:1014B0009A4221D1A2EB0C03934313EACC1317D128
:1014C00050F8042B51F8043B9A4215D1A2EB0C03BF
:1014D000934313EACC130BD150F8042B51F8043B7F
:1014E0009A4209D1A2EB0C03934313EACC13DBD04D
:1014F0004FF00000704700BFD01A01BAB1FA81F175
:1015000001F0180122FA01F0CB40C1F12001DBB259
:10151000C0B2C01A2CFA01F3D11A914311EAC311D7
:10152000E6D170475FEA400C08BF91F0000F4FEA28
:101530008C234FEAC12243EA51514FEA1C5018BF95
:1015400000F5F0404FEA300018BF41F000415FEA7B
:101550006C5C00F02980BCF1FF3F08BF40F0804088
:101560007047130C06BF12044FF0100C4FF0000C24
:10157000130E04BF12020CF1080C130F04BF12016A
:101580000CF1040C930F04BF92000CF1020CD30F6A
:1015900004BF52000CF1010C11464FF00002A0F103
:1015A0001F00A0EB0C00704711F0004F08BF704700
:1015B00031F000413FF4D5AF0B0C06BF09044FF0EA
:1015C000100C4FF0000C0B0E04BF09020CF1080CBC
:1015D0000B0F04BF09010CF1040C8B0F04BF890031
:1015E0000CF1020CCB0F04BF49000CF1010CCCF143
:1015F0002003A0EB0C0022FA03F302FA0CF241EAFA
:10160000030100F10100704720F07F4C80EA0300E5
:1016100023F07F47ACEB070303F57C5300F0004059
:1016200003F1FF032DE980494FEA154B09B44FEA56
:10163000144325EA0B4E24EA03480FF2042606EB76
:10164000132749083E785FEA320203FB0667C7F5B5
:10165000000707FB06F64FEA54374FEAD64606F175
:10166000020607FB066CCCF1005C4FEA1C472CEA33
:10167000074C07FB06F40CFB06F504EB15464FEA96
:10168000961634BF00204FF000404FEAD13706FBDA
:1016900007FC4FEA1C4C0CFB0BF7D21B03FB0CF7AF
:1016A00061EB07010CFB0EF7B0EB074072EB174242
:1016B0000CFB08F734BFA2EB0742B2EB074261EB29
:1016C00017414FEA0C444FEA910706FB07FC4FEA2B
:1016D0001C4C0CFB0BF7B0EBC74072EB573203FB13
:1016E0000CF734BFA2EBC742B2EBC74261EB5731F4
:1016F0000CFB0EF7B0EBC70072EB57720CFB08F750
:1017000034BFA2EBC702B2EBC70261EB5771039F74
:101710004FEA816141EA921104EBCC044FEAD137E0
:101720004FEA826206FB07FC42EA90124FEA8060B1
:101730004FEA1C4C0CFB0BF7D21B03FB0CF761EBC5
:1017400007010CFB0EF7B0EB074072EB17420CFBE6
:1017500008F734BFA2EB0742B2EB074261EB174137
:101760004FEA8C554FEA910704EB9C2406FB07FCDB
:101770004FEA1C4C0CFB0BF7B0EBC74072EB573237
:1017800003FB0CF734BFA2EBC742B2EBC74261EBDD
:1017900057310CFB0EF7B0EBC70072EB57720CFB26
:1017A00008F734BFA2EBC702B2EBC70261EB577177
:1017B00015EB4C254FEA816141EA92114FEA8262B2
:1017C0004FEAD13742EA901206FB07FC44F10004CD
:1017D0004FEA80604FEA1C4C0CFB0BF7D21B03FB5B
:1017E0000CF761EB07010CFB0EF7B0EB074072EB57
:1017F00017420CFB08F734BFA2EB0742B2EB0742DB
:1018000061EB174115EB1C154FEA813141EA92411A
:101810004FEA823242EA90424FEA80304FEA0C7639
:1018200044F1000448EA03434EEA0B484FF0000E2F
:10183000B2EB080C71EB030724BF624639464EEB4E
:101840000E0E4FF0000B0018524149414BEB0B0BB1
:10185000B2EB080C71EB03077BF1000B24BF62466F
:1018600039464EEB0E0E4FF0000B00185241494125
:101870004BEB0B0BB2EB080C71EB03077BF1000B8E
:1018800024BF624639464EEB0E0E51EA020718BFDE
:1018900046F0010616EB0E7655F1000254F10001F8
:1018A00003D5BDE88901BDE80088BDE88901BDE830
:1018B0000048B619524141EB0101A3F10103704701
:1018C00080807F7E7D7C7B7A79787776767574737D
:1018D000727171706F6E6E6D6C6C6B6A6A6968683C
:1018E000676666656464636362616160605F5F5ED2
:1018F0005E5D5D5C5C5B5B5A5A5959585857575648
:1019000056555555545453535252525151505050AC
:101910004F4F4F4E4E4D4D4D4C4C4C4B4B4B4A4AFE
:101920004A49494948484847474747464646454542
:10193000454444444443434343424242424141417B
:10194000002B9C4630D477002BD01CB54FEA3707CC
:1019500003B44FF010004FF01001BAF1000F06D0A1
:10196000BCF1000FDCBF40F0080040F008014FF070
:1019700000000FBCBDE810400BF1010BBBF1010FE3
:1019800008BF5FEA170722BF12F1010211F101013E
:101990004FF0004143F1000300F0004043EA000033
:1019A0007047F9D35708D0E746EA064613F1400FCF
:1019B0004FEA16461FDD13F1200FDFBF16430A461C
:1019C000002120335B42BED0C3F1200746EA064621
:1019D00002FA07F74FEA164646EA0706C3F1200760
:1019E00022FA03F201FA07F721FA03F14FF000039C
:1019F00042EA0702A7E746EA020646EA06464FEA37
:101A0000164646EA0106BCBF46EA0646360C4FF0CB
:101A100000034FF000024FF0000194E72DE9804CE5
:101A20009A46934670B491E8380007C831EA400CF2
:101A300048BF34EA430C03D5FFF7E6FDFFF780FF0C
:101A4000F0BCBDE8008C2DE9804C9A46934670B4FA
:101A500091E8380007C810F0804F08BF13F0804F9E
:101A600003D100F005F8FFF76BFFF0BCBDE8008C78
:101A700020F07F4780EA030023F07F4C07EB0C0344
:101A8000A3F57C5300F00040A3F1FE0392F0000F99
:101A900000F0B38095F0000F00F077802DE9014948
:101AA0004FEA11404FEA144621EA004800FB06FCC9
:101AB00024EA064708FB06F607FB08F800FB07F7D1
:101AC00018EB06484CEB164C4FEA124B18EB074844
:101AD0004FEA15464CEB174022EA0B4E0BFB06FC77
:101AE00025EA06470EFB06F607FB0EFE0BFB07F783
:101AF0001EEB064E4CEB164C4FF000061EEB074E4D
:101B00004CEB174B18EB0B0840F1000018EB0E0BD9
:101B100058EB000840F100008F1A4FF000013CBF65
:101B2000C943661B14BFB5EB040C00213CBFC9437D
:101B3000F61B4FEA17444EEA8E0E27EA04454FEA99
:101B40001C4704FB07622CEA074C05FB07F70CFB5C
:101B500005F604FB0CFC16EB074642EB174216EBAE
:101B60000C4642EB1C421BEB060658EB02024141BD
:101B700046EA9E0601D5BDE80189B619524141EBFE
:101B80000101A3F10103BDE801894FEA14454FEAC1
:101B9000114724EA054621EA074C05FB07F406FB3A
:101BA00007F70CFB06F105FB0CFC11EB074144EBBE
:101BB00017444FEA124711EB0C4144EB1C4422EA54
:101BC000074C05FB07F206FB07F70CFB06F605FBC7
:101BD0000CFC16EB074642EB174216EB0C4642EBA9
:101BE0001C456A1854F1000148BF7047B6195241AC
:101BF00041EB0101A3F10103704795F0000F37D0CD
:101C00004FEA11424FEA144721EA024624EA074C00
:101C100002FB07F106FB07F70CFB06F402FB0CFCCA
:101C200014EB074441EB17414FEA154714EB0C4402
:101C300041EB1C4125EA074C02FB07F506FB07F7C1
:101C40000CFB06F602FB0CFC16EB074645EB1745B2
:101C500016EB0C4645EB1C42121951F1000148BF2E
:101C60007047B619524141EB0101A3F101037047DE
:101C70004FEA14454FEA114724EA054621EA074C8A
:101C800005FB07F106FB07F70CFB06F24FF0000619
:101C900005FB0CFC12EB074241EB174112EB0C4227
:101CA00051EB1C4148BF7047921841EB0101A3F171
:101CB000010370470448006800F0010010B10120E2
:101CC000014908607047000014040140044800689E
:101CD00000F0020010B102200149086070470000C6
:101CE0001404014010B50C48006800F0040090B1E5
:101CF0000321002001F044FB28B108480068401E81
:101D00000649086004E005480068401C0349086073
:101D100004200149086010BD140401402400002083
:101D20000448006800F0080010B10820014908606C
:101D3000704700001404014010B501F01BFD10BDF8
:101D40002DE9F84F9548006800F0200010B12020E0
:101D5000924908609148006800F0400010B14020AE
:101D60008E4908608D48006800F0800000287DD012
:101D700000F07CFB00F044F98948B0F9000003F062
:101D80007BFD0646874903F079FC0546864903F04A
:101D9000BFFD044685480168204603F001FC8349E5
:101DA00008608348B0F9000003F066FD06467D49EF
:101DB00003F064FC05467C4903F0AAFD04467D4817
:101DC0000168204603F0ECFB7A4908607A48B0F9D4
:101DD000000003F051FD0646724903F04FFC054632
:101DE000714903F095FD044674480168204603F0EC
:101DF000D7FB724908607248B0F9000003F03CFD5F
:101E000083467048B0F9000003F036FD5946009053
:101E100003F034FC824603F097FB804601F00EF895
:101E200006464FF0C042684B03F09AF9044602F0B0
:101E300033FF664908606248B0F9000003F01CFDFA
:101E400083466348B0F9000003F016FD5946009040
:101E500003F014FC824603F077FB064600F0EEFF29
:101E600081F0004180464FF0C04200E082E0564BD6
:101E700003F076F9044602F00FFF56490860544813
:101E8000B0F9000003F0F8FC83464E48B0F90000BA
:101E900003F0F2FC5946009003F0F0FB824603F099
:101EA00053FB804600F0CAFF06464FF0C042464B47
:101EB00003F056F9044602F0EFFE47490860474830
:101EC000B0F9000003F0D8FC009003F03DFB06469B
:101ED0000F464348B0F9000003F0CEFC009003F039
:101EE00033FB804632463B4601F0B8F804464FF0DB
:101EF000C042354B03F034F9824602F0CDFE394939
:101F000008602748B0F9000003F0B6FC05462549F3
:101F100003F0B4FB044622462C480168324800F026
:101F200005FA324908602248B0F9000003F0A4FC29
:101F300005461C4903F0A2FB0446224625480168D9
:101F40002B4800F0F3F92B4908601B48B0F900005A
:101F500003F092FC0546134903F090FB0446224629
:101F600020480168244800F0E1F9244908608020F5
:101F70000A4908600948006800F4807018B14FF4FD
:101F80008070064908600548006800F4007018B1C8
:101F90004FF4007001490860BDE8F88F1404014057
:101FA0000A010020333383410AD7A33B10010020EC
:101FB0000C010020140100200E0100201801002057
:101FC0000801002006010020E3A54C401C01002070
:101FD00004010020200100202401002036010020FF
:101FE000340100203C010020640000202801002072
:101FF000940000202C01002034000020300100203B
:1020000070B53648007898BB03213548007801F058
:10201000CFFA044604213248007801F0C9FA054697
:1020200045EA042000B22F49088007212C48007897
:1020300001F0BEFA044608212948007801F0B8FAF8
:10204000054645EA042000B22749088005212448B6
:10205000007801F0ADFA044606212148007801F02D
:10206000A7FA054645EA042000B22049088033E07B
:10207000FFE700211A48007801F09AFA054601218D
:102080001748007801F094FA044645EA042000B2AB
:102090001449088002211248007801F089FA0546A7
:1020A00003210F48007801F083FA044645EA042032
:1020B00000B20D49088004210948007801F078FA3F
:1020C000054605210648007801F072FA044645EA03
:1020D000042000B20549088070BD000041010020C5
:1020E000400100203401002036010020380100208A
:1020F00010B501220B21104601F026FA012001F053
:10210000B0F801220A21104601F01EFA012001F068
:10211000A8F800220A21012001F016FA10BD70B5BE
:10212000002501220B21104601F00EFA002418E0D0
:1021300000220A21012001F007FA012001F091F8A4
:1021400001220A21104601F0FFF90B21012001F0C4
:1021500017F910B1802020410543012001F081F8DA
:10216000641C082CE4DB00220A21012001F0ECF9B8
:10217000284670BD70B50546002422E0802020412D
:10218000284028B101220B21104601F0DDF904E0BE
:1021900000220B21012001F0D7F9012001F061F8A4
:1021A00001220A21104601F0CFF9012001F059F86F
:1021B00000220A21012001F0C7F9012001F051F8A5
:1021C000641C082CDADB70BD10B501220B2110460F
:1021D00001F0BAF901220A21104601F0B5F90120F7
:1021E00001F03FF800220B21012001F0ADF90120A0
:1021F00001F037F800220A21012001F0A5F910BDF5
:1022000010B500220B21012001F09EF901220A21C4
:10221000104601F099F9012001F023F801220B2169
:10222000104601F091F9012001F01BF810BD70B5C6
:10223000002401220B21104601F086F9012001F053
:1022400010F801220A21104601F07EF9012001F068
:1022500008F80AE0601CC4B2322C03DDFFF7D0FF9F
:10226000012070BD012000F0FCFF0B21012001F0D6
:1022700087F80028EED10B21012001F081F80546F6
:1022800000220A21012001F05FF92846E9E7000059
:1022900010B501224FF4E131104602F055FC1D4803
:1022A000008820F020001B4908801BA001F05AFA8A
:1022B0000A2000F0CAFF00231A461946184600F00B
:1022C0008DFF642000F0C1FF022000F023FC642099
:1022D00000F0BBFF142000F0C3FB642000F0B5FF4A
:1022E0000D2000F0D1FB642000F0AFFF0E4800F09D
:1022F000DFFB642000F0A9FF4FF4C86000F0F4FB9E
:10230000642000F0A2FF00231A461946184600F088
:1023100065FF10BD0C4400402475706C6F61643A19
:10232000302C302C30230000000040422DE9F05FBB
:1023300004460D4616463046E16A03F0F1FB80463E
:10234000E16903F0E5FA0746A16A03F029F9A06202
:10235000E06AE062D4E9060103F0DAFA8246E16954
:1023600003F0D6FA8046D4E9040103F019F9834654
:10237000E16903F0CDFA8246E16803F0C6FB8146CD
:10238000414603F00DF90746216803F009F9E060C2
:10239000D4E9060103F0BCFA0746216903F0B5FB56
:1023A0002061D4E9060103F0B3FA0746616903F03E
:1023B000ACFB60616168A06903F0F2F8A061D4E948
:1023C000021003F0EDF807463946E06803F056F9CD
:1023D0002062D4E9021003F0E3F807463946606949
:1023E00003F04CF960622846A16A03F099FB80462D
:1023F000216A03F08DFA0746A16A03F0D1F8A062C2
:102400002846A16A03F08CFB8046616A03F080FADB
:102410000746E16A03F0C4F8E0624FF07E50216A9B
:1024200003F07EFB0746E16803F072FAE0604FF0CC
:102430007E50216A03F074FB0746216903F068FAB5
:102440002061616AE06803F063FA0746616903F09E
:102450005CFB6061616A206903F05AFA0746A16972
:1024600003F053FBA061A06ABDE8F09F70B53B206C
:1024700000F058F804463C2000F054F8054645EAC0
:10248000042000B2214908803D2000F04BF80446AA
:102490003E2000F047F8054645EA042000B21C49FA
:1024A00008803F2000F03EF80446402000F03AF853
:1024B000054645EA042000B216490880432000F092
:1024C00031F80446442000F02DF8054645EA042082
:1024D00000B211490880452000F024F80446462047
:1024E00000F020F8054645EA042000B20B490880B8
:1024F000472000F017F80446482000F013F805467E
:1025000045EA042000B20649088070BD040100209D
:1025100006010020080100200A0100200C01002013
:102520000E01002070B50446FFF74EFED020FFF7E5
:1025300021FEFFF77CFE2046FFF71CFEFFF777FE2B
:10254000FFF75EFEFFF740FED120FFF713FEFFF717
:102550006EFEFFF7E4FD0546FFF7CAFDFFF750FEEC
:10256000284670BD014607238B431A02054B1868A5
:102570004FF6FF0318401043034B1843014B1860FC
:10258000704700000CED00E00000FA0570B505464C
:102590000C460420FFF7E6FF0E48005D00F0010640
:1025A00046EA0510C1B20B4801552046E21704EB7C
:1025B000D2625211A4EB421301229A402146E31742
:1025C00004EBD3635B119B0003F1E023C3F800210C
:1025D00070BD000000E400E070B500240EE00021B2
:1025E000204600F0D1F8002504E0002000F091F929
:1025F000681CC5B2802DF8DB601CC4B2082CEEDB71
:1026000070BD10B502220821012000F0CBFE02228D
:102610000921012000F0C6FE01220821104600F029
:1026200093FF01220921104600F08EFF10BD70B506
:102630000546002413E08020204100EA050209211C
:10264000012000F081FF01220821104600F07CFFEC
:1026500000220821012000F077FF601CC4B2082C82
:10266000E9DB01220821104600F06EFF002208215C
:10267000012000F069FF70BD10B50122092110464C
:1026800000F062FF01220821104600F05DFF0022E9
:102690000921012000F058FF00220821012000F04C
:1026A00053FF10BD10B500220921012000F04CFF9E
:1026B00001220821104600F047FF0122092110469F
:1026C00000F042FF10BD70B5002406E0002500E0D8
:1026D0006D1CB5F57A7FFBD3641CB4F57A7FF5D316
:1026E000FFF78FFFAE2000F004F9D52000F001F9CC
:1026F000802000F0FEF8A82000F0FBF83F2000F05A
:10270000F8F8D32000F0F5F8002000F0F2F84020AF
:1027100000F0EFF8A12000F0ECF8C82000F0E9F894
:10272000DA2000F0E6F8122000F0E3F8812000F053
:10273000E0F8CF2000F0DDF8D92000F0DAF8F12041
:1027400000F0D7F8DB2000F0D4F8302000F0D1F80A
:10275000A42000F0CEF8A62000F0CBF88D2000F0E9
:10276000C8F8142000F0C5F8AF2000F0C2F8FFF759
:1027700033FF70BD10B50246012000E050430B1E30
:10278000A1F10101FAD110BD70B505460C4645F026
:10279000B00000F0AEF8102141EA141000F0A9F8E2
:1027A00004F00F0000F0A5F870BD00002DE9F04125
:1027B00005460E461746721ED206110E6A1E5206B6
:1027C000100EFFF7E1FF002409E0A7F12001134AF2
:1027D00002EB0111085D00F09CF8601CC4B2082CEB
:1027E000F3DB721ED206110E6A1E012303EB4202B6
:1027F000D0B2FFF7C9FF00240BE0A7F12001074A80
:1028000002EB011204F10801505C00F082F8601C38
:10281000C4B2082CF1DBBDE8F0810000405D000887
:102820002DE9F04780460E4617461D46002415E068
:10283000281B411E0A20FFF79DFFB7FBF0F00A217D
:10284000B0FBF1F201FB120000F130093019C1B206
:102850004A464046FFF7AAFF601CC4B2AC42E7DB21
:10286000BDE8F0872DE9F0478146884615461E46AB
:10287000002D06DB2B2241464846FFF797FF2F46E7
:1028800005E02D2241464846FFF790FF6F420024A5
:1028900017E0301B411E0A20FFF76CFFB7FBF0F07A
:1028A0000A21B0FBF1F201FB120000F1300A08EB43
:1028B0000400401CC1B252464846FFF777FF601C37
:1028C000C4B2B442E5DBBDE8F0872DE9F04107462C
:1028D0000E461546002407E02A5D3019C1B238467D
:1028E000FFF764FF601CC4B2285D0028F4D1BDE886
:1028F000F08110B50446FFF7BFFE7820FFF797FE82
:102900000020FFF794FE2046FFF791FEFFF7CAFE76
:1029100010BD10B50446FFF7AFFE7820FFF787FE25
:102920004020FFF784FE2046FFF781FEFFF7BAFE46
:1029300010BD000070B5044625460D4800682844C7
:102940000B490860002005EB450100EB81000949B7
:1029500091F90010691A002202FB010668B20549CC
:10296000087050225142304600F017FE70BD000042
:10297000CC000020C800002010B500F001F810BD08
:102980000CB50020019000903348006840F480307E
:102990003149086000BF3048006800F40030009002
:1029A0000198401C0190009818B90198B0F5A06FEB
:1029B000F1D12948006800F4003010B101200090E6
:1029C00001E0002000900098012843D123480068CE
:1029D00040F01000214908600846006820F003001C
:1029E00008600846006840F0020008601A48406825
:1029F000194948600846406848600846406840F405
:102A0000806048600846406820F47C1048600846B2
:102A1000406840F4E81048600846006840F0807064
:102A2000086000BF0C48006800F000700028F9D072
:102A30000948406820F0030007494860084640689C
:102A400040F00200486000BF0348406800F00C00FE
:102A50000828F9D10CBD00000010024000200240FF
:102A600010B50446224604A10648FDF73FFC054880
:102A700000F078FE10BD0000246D70686173653A47
:102A8000256423002002002010B50446224604A13C
:102A90000648FDF72BFC054800F064FE10BD000061
:102AA000246D6C696E653A256423000020020020C5
:102AB00070B50446204602F047FD05462A460B46FF
:102AC00003A10848FDF712FC064800F04BFE70BD5C
:102AD00024776469616D657465723A252E336623C7
:102AE000000000002002002010B50446224604A188
:102AF0000748FDF7FBFB064800F034FE10BD000060
:102B000024646561647A6F6E653A25642300000071
:102B10002002002010B50446224604A10648FDF715
:102B2000E5FB054800F01EFE10BD0000246D747921
:102B300070653A25642300002002002010B5134878
:102B4000006840F0010011490860084640681049DB
:102B500008400E494860084600680E4908400B4985
:102B600008600846006820F4802008600846406835
:102B700020F4FE0048604FF41F008860FFF7FCFE61
:102B80004FF000600449086010BD000000100240D2
:102B90000000FFF8FFFFF6FE08ED00E04FF0804078
:102BA000008A00F0010038B14FF08040008A20F028
:102BB00001004FF0804108827047000010B50748BF
:102BC000008800F0010038B101F066F80348008881
:102BD00020F001000149088010BD000010040040F1
:102BE00010B500F095FF10BD70B50848058805F0D8
:102BF0002E0048B10548001D0088C4B205F0200031
:102C000010B1204601F004FF70BD00000038014003
:102C1000054A118801F02E0222B1034A121D1288C2
:102C2000D0B200BF704700000044004070B50848B3
:102C3000058805F02E0048B10548001D0088C4B283
:102C400005F0200010B1204601F0E2FE70BD00004A
:102C500000480040490050EAC12018BF04204A0D36
:102C600018BF40F0010040F2FF72B2EB515F08BFA5
:102C700040F00200012808BF052070472DE9F0410F
:102C80004F1E00EBC7010446D1E9000115461E4660
:102C900037F006020DD02A46334602F061FA7F1E55
:102CA00004EBC703D3E9002302F028F837F006024B
:102CB000F1D1022F25D0042F13D0062F18BFBDE865
:102CC000F0812A46334602F04BFAD4E90A2302F097
:102CD00015F82A46334602F043FAD4E9082302F0F5
:102CE0000DF82A46334602F03BFAD4E9062302F0F7
:102CF00005F82A46334602F033FAD4E9042301F0FA
:102D0000FDFF2A46334602F02BFAD4E9022301F0F4
:102D1000F5FF2A46334602F023FAD4E90023BDE842
:102D2000F04101F0EBBF012202F0A5BF01F0E6BFC8
:102D3000024A0020110702F09EBF000001FDFFFFC4
:102D400030380A2801D2012070470020704700BFA8
:102D500070472DE9F04104460D4617461E46DDF842
:102D600018800CB9BDE8F081257067700EB10120A4
:102D700000E00020A070A4F808800020608160714D
:102D8000A0710EB1042000E0012002463946284619
:102D900000F008FB3946284600F0F2FA207120794D
:102DA000E07000BFDEE7014609B9002070474A79AC
:102DB000002048711046F9E770B504460E4604B984
:102DC00070BD6178207800F0DBFA05462079A842D2
:102DD00003D0257100206081F2E760892189884253
:102DE00003DA608930446081EAE7E078A84208D0DD
:102DF000E570A078A84202D10120607101E00120B5
:102E0000A07100BFDCE70FB410B592B0044615986E
:102E100018B912B010BC5DF814FB16A8019040213F
:102E200002A8019B159AFDF747FA0020019002A91C
:102E3000204601F0F7FE00BFEBE700002DE9F84F58
:102E400004460D4621F0004000917349814211DC97
:102E50007249884201DC06D12CB120462946BDE8E2
:102E6000F84FFFF760BF6E48002DCCBF6D496E492B
:102E7000BDE8F88F6D49814211DD6D498142D8BFAF
:102E80004FF0FF366DDD20462946FFF7E3FE0428AC
:102E900008BFFFF74DFF20462946BDE8F88F65497A
:102EA000654F25F00045814233DD6449814219DDDB
:102EB000002632464FF080432046294601F01EFF8F
:102EC00080468A4601222046294602F0D4FE00228E
:102ED0003B4602F04FFA4246534601F0BFFF04461C
:102EE0000D463EE001260022BA463B4620462946D2
:102EF00001F004FF80460F46002253462046294633
:102F000002F038FA42463B4601F0A8FF04460D465F
:102F100027E04B4981421BDDDFF828A10226002271
:102F200053462046294602F01BF900223B4601F099
:102F3000E5FE80460F46002253462046294602F011
:102F400019FA42463B4601F089FF04460D4608E067
:102F5000032622462B4600203B4901F07FFF044612
:102F60000D4622462B461046194602F0F9F88B46CC
:102F7000824602460B4602F0F3F807460246334803
:102F800088460B4606217844FFF778FE52465B469A
:102F900002F0E6F882462E488B463A464346052123
:102FA0007844FFF76BFE3A46434602F0D9F80246F2
:102FB0000B46002E504659460CDA01F09FFE224681
:102FC0002B4602F0CDF801B022462B46BDE8F04F6B
:102FD00002F0C4B901F092FE22462B4602F0C0F87E
:102FE0001C4A7A4402EBC603D3E9002302F0C2F97B
:102FF00022462B4602F0BEF9174A7A4402EBC6037A
:10300000D3E9002302F0AAF9009A002AB8BF81F0A0
:103010000041BDE8F88F0000000010440000F07F80
:10302000182D4454FB21F93FFB21F9BF0000DC3F80
:103030000000203E0000F33F0000F03F0000E63FAC
:10304000008003400000F83F0000F0BF263400007D
:10305000E4330000823300004A3300002DE9F04DD4
:103060009446CCF1000423F000464CEA0404524F8D
:1030700046EAD4749A46884621F00042BC4206D8FB
:10308000454240EA050442EAD474BC4204D9BDE892
:10309000F04D6246FFF74ABEAAF14055A5F17F65A3
:1030A00055EA0C040BD0022404EAAA74434DDFF85D
:1030B00010E144EAD87452EA000B04D00CE0BDE8F9
:1030C000F04DFFF7BBBE002C14BF012CBDE8F08D06
:1030D000022C30D0032C32D056EA0C0B0AD0BE4260
:1030E00020D1BA4209D126F0804622F080423346F0
:1030F000114617E000291ADB25E0DFF8C8B0FB44D1
:10310000002C04BFDBE90001BDE8F08D012C02BFFB
:10311000DBE9000181F00041BDE8F08D022C0AD00E
:10312000032C0CD0BA4212D1B8F1000F0BDA2348AD
:103130002549BDE8F08D28462449BDE8F08D284694
:103140007146BDE8F08D1D482149BDE8F08D921B08
:1031500012153C2AC4BF19481D490EDCBAF1000FF4
:10316000BEBF12F13C0F0020014606DB624601F0B3
:1031700075FE21F00041FFF761FE002C08BFBDE89D
:10318000F08D012C04BF81F00041BDE8F08D114AA3
:10319000114B022C07D002F0EDF82A46BDE8F04DA5
:1031A0000A4B02F0E7B802F0E5F82A46BDE8F04D18
:1031B000064B02F0D3B800000000F07F182D4454F5
:1031C000FB2109C00E330000FB21F9BFFB210940A0
:1031D000FB21F93F075C143326A6A13C2DE9FC41F5
:1031E00004460D4616461F462B46224605A10A48B0
:1031F000CDE90067FDF77AF8074800F0B3FABDE8BB
:10320000FC810000247370643A25642C25642C250D
:10321000642C2564230000002002002070B50446C1
:103220000D46022D00D270BD6078442804D1294695
:10323000204600F0E1FD06E06078412803D12946F0
:10324000204600F08FFD00BFEDE700B5034603E028
:103250004FF47A7000F005F8181EA3F10103F7D1BE
:1032600000BD00EBC001C9004FF0E0225161002118
:1032700091610521116100BF4FF0E021096901F45E
:1032800080310029F8D004214FF0E022116170470D
:1032900070B504460025092C56D2DFE804F0550528
:1032A0000F19232D37414B000C21012000F068F845
:1032B000012801D1012500E0002545E00D21012074
:1032C00000F05EF8012801D1012500E000253BE077
:1032D0000E21012000F054F8012801D1012500E061
:1032E000002531E00F21012000F04AF8012801D12A
:1032F000012500E0002527E00821002000F040F82B
:10330000012801D1012500E000251DE00D2102204A
:1033100000F036F8012801D1012500E0002513E076
:103320000E21022000F02CF8012801D1012500E037
:10333000002509E00F21022000F022F8012801D128
:10334000012500E0002500BF00BF284670BD0246F1
:103350000B46002A05DA52420BB9012000E000209A
:103360000346142092FBF0F1B1F57A7F01DD4FF4B2
:103370007A710BB108B27047484200B2FBE7000017
:1033800010B50246064850F82200806801248C409F
:1033900000EA04030BB1012010BD0020FCE700008F
:1033A000E800002070B5654CA469042585402C43D5
:1033B000624DAC6108295DDA614C54F82040246804
:1033C0008E000F25B540AC435D4D55F820502C6064
:1033D0001AB1032A01D0022A0FD10124944044F0EB
:1033E00003048D00AC40564D55F820502D682C43F9
:1033F000534D55F820502C609FE0012A01D0042A3B
:103400002AD14F4C54F8204024688E000825B5403E
:103410002C434B4D55F820502C60012A0ED1484CBE
:1034200054F82040E46801258D4024EA0503012476
:103430008C401C43424D55F82050EC60042A7CD14E
:103440003F4C54F82040E56801248C40A5433C4C97
:1034500054F82040E56070E0042494408D00AC40B6
:10346000374D55F820502D682C43354D55F82050D8
:103470002C6062E0324C54F820406468A1F10805E9
:10348000AE000F25B540AC432D4D55F820506C6073
:103490001AB1032A01D0022A11D10124944044F028
:1034A0000304A1F10805AD00AC40254D55F82050AE
:1034B0006D682C43224D55F820506C603DE0012A88
:1034C00001D0042A2AD11E4C54F820406468A1F18E
:1034D0000805AE000825B5402C43194D55F820507D
:1034E0006C60012A0CD1174C256801248C4025EA18
:1034F000040301248C401C43114D55F82050EC600E
:10350000042A1AD10E4C54F82040E46801258D405D
:10351000AC430B4D55F82050EC600EE00424944071
:10352000A1F10805AD00AC40054D55F820506D687F
:103530002C43034D55F820506C6070BD00100240C4
:10354000E80000200C08014030B57AB10D4C54F869
:103550002040E46801258D4024EA050301248C40C5
:103560001C43084D55F82050EC600AE0054C54F817
:103570002040E46801258D40AC43024D55F82050B1
:10358000EC6030BDE800002001884FF6FF729142E8
:1035900002D20188491C0180704703468B4201DA40
:1035A00008467047934201DD1046FAE71846F8E7EF
:1035B00070B504460D46FEF707FE2046FEF7DAFD1D
:1035C000FEF735FE2846FEF7D5FDFEF730FEFEF786
:1035D00017FEFEF7F9FD44F00100FEF7CBFDFEF704
:1035E00026FEFEF79CFD0646FEF782FDFEF708FE6E
:1035F000304670BD1FB5002401224FF4E131002098
:1036000001F0A2FA01224FF4E131104601F09CFAD8
:1036100000231A4619461846FFF7E0FD3220FFF74F
:1036200014FE00F069F800231A4619461846FFF701
:10363000D5FDFFF748F8FEF7CFFF14200023012245
:103640001146009001A8FFF784FB00F0EDFE19E0A1
:103650000A2101A8FFF7B0FB01A8FFF7A4FB08B1FE
:1036600000F0D8FF0A2001F039F804F10A0084B212
:10367000642C04DB002400F041FF00F001FF0A206D
:10368000FFF7E3FDE4E7000010B5044609480178C0
:103690002046FFF75CFE084908800848B0F9003072
:1036A000B0F900200846B0F90010B0F90000FFF7AB
:1036B00095FD10BD200000203000002032000020C9
:1036C00010B50446094801782046FFF740FE084936
:1036D00008800846B0F90030B0F900200548B0F97C
:1036E0000010B0F90000FFF779FD10BD21000020A7
:1036F000320000203000002010B5FEF7C9FD10BDDB
:1037000070B505460C46002D08DB012011490870F4
:10371000284602F0B1F81049086007E000200D4982
:103720000870684202F0A8F80B490860002C08DB1A
:1037300001200A490870204602F09EF808490860F6
:1037400007E0002005490870604202F095F804493E
:10375000086070BD200000205402002021000020DD
:103760008802002010B504462146012001F05AFAD3
:1037700010BD000010B52148006800F0100000B92D
:1037800010BD10201D4908601D48007820B9042193
:103790000020FFF7F5FD00B1F2E70120184908709D
:1037A0000020184908701849087014481438006837
:1037B00020F010001149143908601448008820F0E6
:1037C00001001249088000201049243108809B2004
:1037D0000E492C31088000200C4910310880081F48
:1037E000008840F00100091F08800848008840F068
:1037F00001000649088000BFC2E700001404014030
:10380000D2000020D3000020D40000200008004097
:1038100010B5012204210020FFF7C4FD002205217C
:103820001046FFF7BFFD012205210020FFF78CFEA7
:103830002648806940F00100244988612448C06816
:1038400020F00F012248C1602248006840F01000BB
:1038500020490860081D006820F01000091D08605C
:10386000081D006820F01000091D0860081D006890
:1038700040F01000091D086010201649143108603E
:103880001248C06940F004001049C8610020124984
:10389000088047201049283108806720091D0880CA
:1038A00000200D49243108800B4910310880081F81
:1038B000008820F00100091F08800A210120FEF77E
:1038C00065FE1E210020FEF761FE10BD00100240C3
:1038D00000000140000401400008004010B501460E
:1038E0000F4B1B78581CC31700EB93639B11A0EB85
:1038F0008313DAB20B48007882420AD1094B1B7855
:10390000581CC31700EB93639B11A0EB8313054C6A
:1039100023700548024B1B78C1540148027010BD4A
:10392000D0000020D1000020F002002010B5024697
:10393000D3E06E486E4B1B78C15C6D4B1B78581CF6
:10394000C31700EB93639B11A0EB8313684C2370A8
:103950006848007806287DD2DFE800F00309192BBB
:103960004DA1242902D10120624B1870B4E04229F4
:1039700003D102205F4B187008E04C2903D10520C9
:103980005C4B187002E000205A4B1870A4E02C2900
:103990000BD10320574B18700120574B1870002093
:1039A000564B1860564B187002E00020514B1870AF
:1039B00092E02D2906D1FF204F4B187004204D4B6B
:1039C000187017E02B2903D104204A4B187011E01E
:1039D00030290CDB39290ADCA1F13000474B186093
:1039E0000120474B18700420424B187002E0002061
:1039F000404B187070E0302913DB392911DC3F4847
:103A00000068B0F5004F08DA3C48006800EB800021
:103A100001EB40003038394B18600120384B1870EA
:103A20003CE0232933D13648007878B33348006826
:103A3000314B93F900305843304B186018460068FA
:103A400040F6CC43984202DD18462C4B18602B48B8
:103A5000006800E03CE02B4B984202DA1846274B06
:103A600018602648008800EB8000400000B21080FB
:103A700025480078401CC0B2234B1870907001207C
:103A8000D07000201B4B1870012010BDFFE72429C7
:103A900001D1012000E00020164B18701CE0232902
:103AA0000ED10020108018480078401CC0B2164B80
:103AB000187090700020D0700E4B18700120E4E751
:103AC000242901D1012000E000200A4B187003E0F6
:103AD0000020084B187000BF00BF054800780B4B52
:103AE0001B7898427FF425AF0020CEE7F00200203B
:103AF000D1000020D5000020D8000020DC000020EC
:103B0000D700002034F3FFFFD6000020D0000020B3
:103B100010B52B48008800F0010000B910BD2848FE
:103B2000008820F0010026490880264800780828EF
:103B30001CDA04210020FFF723FC48B1214801785A
:103B400001208840C0B22049097808431E49087006
:103B50001C480078401C1B490870672018491C311C
:103B600008800020164914310880D7E7144810381F
:103B7000008820F001001249103908801048001F09
:103B8000008820F001000E49091F088000200F491D
:103B9000087010200E4908600D481438006840F085
:103BA00010000B491439086004210020FFF7E8FBDE
:103BB00018B105480078FFF791FE00BFAEE700009E
:103BC00010080040D3000020D4000020D2000020C4
:103BD000140401402DE9F0410446D4E9000101F04C
:103BE0009FFFA060206B01282DD1D4E9020101F0D4
:103BF00097FF0546616901F08BFE2062A168A0690C
:103C000001F086FEA0624FF08040E16801F080FE86
:103C10000746A16801F079FF0646216901F0C0FC62
:103C20000546E16901F074FE6062A16A206A01F054
:103C3000B7FC0646616A01F0B3FC0546E16A01F093
:103C4000AFFCE06221E0206BF8B9A168606901F087
:103C50005FFE2062A168A06901F05AFE0546A16AD4
:103C600001F09EFCA062D4E9020101F059FF054673
:103C7000E16901F04DFE6062A16A206A01F090FCEA
:103C80000546616A01F08CFCE062E1682161A1688F
:103C9000E160BDE8F081000010B500F083FD21482F
:103CA000007830B12048006801F0E6FD1F49486007
:103CB00006E01D480068404201F0DEFD1B494860F7
:103CC0001B48007830B11B48006801F0D5FD1A4947
:103CD000486006E017480068404201F0CDFD1649F3
:103CE0004860002010490860124908600F48FFF73B
:103CF00071FF1148FFF76EFF0C4800F01FF80E48E7
:103D000000F01CF80949C86A01F07AFD0446FFF783
:103D1000BBFC0949C86A01F073FD0446FFF7D0FCFB
:103D200010BD0000200000202400002054020020CC
:103D300021000020280000208802002010B5044641
:103D40000749E06A01F0B0FE01D80548E0620021B1
:103D5000E06A01F0A9FD01D80020E06210BD00007A
:103D6000005043472DE9F04105460E46002431E05E
:103D7000285D78282CD1A01C285C3A2828D1601C0A
:103D8000285C312824DB601C285C382820DC601C7F
:103D9000285C313800F0FF080027E01CC4B20CE0BA
:103DA000285D303807EB870100EB4107B7F5803F0E
:103DB00001D34FF6FF77601CC4B2B44205DA285D28
:103DC000302802DB285D3928EADD084921F818701F
:103DD000601CC4B2E01CB042CAD30548FFF7D4FB54
:103DE0000448FFF7D1FBBDE8F0810000F00100209E
:103DF0000A000020080000202DE9F0470746884609
:103E00004FF00009002416E004EB8400801DC6B2C8
:103E1000464501DBBDE8F087BD5D302D02D0312D78
:103E200000D0F7E7302D04D10120A040C0B240EA15
:103E30000909601CC4B2082CE6DB064880F8009033
:103E400005480088401C044908800448FFF79CFB93
:103E500000BFDFE700000020020000200800002073
:103E60000348008840F00C000149088070470000BA
:103E70000C48004010B504461348C06940F4802047
:103E80001149C8610846806940F0080088610F4800
:103E9000006820F470600D4908600846006840F42E
:103EA0003060086024200A49088042F20C00091D95
:103EB00008800020091D08800820091D08800520B1
:103EC000FFF7C3F910BD000000100240040C0140D0
:103ED000084800402DE9F04780460E4617461C462C
:103EE000A01C4044304400F0FF09FFF7B9FFFF2059
:103EF00000F0CCFDFF2000F0C9FD404600F0C6FDFB
:103F0000A11CC8B200F0C2FD304600F0BFFD002584
:103F100008E0785D00F0BAFD785D484400F0FF09E4
:103F2000681CC5B2A542F4DB6FEA0901C8B200F013
:103F3000ADFDBDE8F08738B505460C4628208DF864
:103F400000000CB1012000E000208DF801000223E8
:103F50006A4603212846FFF7BDFF38BD2DE9FC4125
:103F600007460C4615461E46B4F5806F01DB40F24D
:103F7000FF342A208DF80000200A8DF80100E0B2FD
:103F80008DF80200280A8DF80300E8B28DF80400CD
:103F9000300A8DF80500F0B28DF8060007236A4656
:103FA00003213846FFF796FFBDE8FC810146002952
:103FB00001DA484270470846FCE72DE9F05F044605
:103FC0000D46287808B1687810B90020BDE8F09F48
:103FD000B5F902603046FFF7E9FF40F2E24188425E
:103FE00001DD0020F2E794F82E0090B1E08CFA2871
:103FF00001D2E08C00E0FA2000EB800000F17809AB
:10400000B4F92210701AFFF7D1FF484501DD0020F6
:10401000DCE704F10E00B4F910A094F82E1029B1D9
:104020000AEB060000EBD071491000E031460F4664
:1040300094F82E0010B90021618220E0B4F82680A7
:10404000B8F1000F01D14FF00108B4F92400381A7B
:104050004FF47A71484390FBF8FB41F288325142A9
:10406000584600F027F88346B4F91210032202FBE9
:1040700001B0C11700EB917189100AB2628238B2A7
:10408000A08439B2218268886084012084F82E00DF
:1040900000216183012121770020E084012095E740
:1040A00002465318B3F5803F02D34FF6FF707047B6
:1040B00098B2FCE703468B4201DA08467047934208
:1040C00001DD1046FAE71846F8E700220282428234
:1040D00042830277002141848184C1840185418526
:1040E00080F82E10704781730022828502854285F8
:1040F000022908D14FF4FA73838200238377C377B0
:104100002022135409E0032901D0042903D14FF6DA
:104110000C63838201E000238382704710B504465C
:104120002046FFF7D2FF0020A0730021A182617713
:10413000A177E1772020015521830020A08510BDC3
:104140002DE9F04106460D46F48AF788B288718859
:104150002846FFF7AFFF0546A54207DD281BB842FA
:1041600001DD384600E0281B044408E0A54206DAD9
:10417000601BB84201DD384600E0601B241AF4825F
:10418000BDE8F0812DE9F0410446A07B38B1A07B69
:10419000052804D0A07B062801D0207F28B92188DB
:1041A0002046FFF7CDFFBDE8F081B4F91410B4F953
:1041B00010000D1AB4F908006843B4F90A20B4F9E4
:1041C000121002FB11004FF47A7190FBF1F6208877
:1041D00094F90C1001FB060739462046FFF7B0FFA3
:1041E00000BFE0E770B505460C46142204F10E014D
:1041F0002846FCF791F970BD30B58DB004460D46E8
:10420000302101A8FCF7FFF930220A4901A8FCF788
:1042100083F9302201A92046FCF77EF90E222946B7
:104220002046FCF779F90020A0732988E1820DB0BF
:1042300030BD0000105D000810B50446A07B0528C5
:1042400002D0A07B062803D12046FFF767FF10BDF0
:10425000A07B022805D0A07B032802D0A07B0428E5
:1042600003D12046FFF75AFFF1E70121A17700BFF4
:10427000EDE72DE9F04704460E461546608B2946CA
:10428000FFF70EFF6083E08C2946FFF709FFE0840B
:1042900031462046FFF791FE0746608B962805DBE6
:1042A00000212177002084F82E006182A07B48B98C
:1042B0001FB101212046FFF716FF2046FFF762FFDE
:1042C000BDE8F087A07B052802D0A07B062803D19B
:1042D0002046FFF757FFF3E7207F38B90521204636
:1042E000FFF701FF2046FFF74DFFE9E7A07B01281C
:1042F00030D1B4F91000FFF759FE642807DCB4F997
:104300001200FFF753FE962801DC012000E0002098
:104310008046B8F1000F0BD0208D2946FFF7C0FE74
:104320002085208DB0F5967F06DB0121617703E0C3
:104330000020208500216177A07F38B1607F28B1FF
:104340000021218302212046FFF7CDFE2046FFF702
:1043500019FFB5E7208B2946FFF7A2FE2083A08D29
:104360002946FFF79DFEA085A07B04280BD0208B5B
:10437000B0F5965F07DB06212046FFF7B4FE204626
:10438000FFF700FF9CE7A07B02281AD1A08D40F622
:104390009801884204DB06212046FFF7A4FE3DE099
:1043A000B4F92200B0F5C87F38DBB4F92200B0F5CB
:1043B000167F33DC0121E17703212046FFF793FECE
:1043C0002CE0A07B032829D1B4F9100010F5167F4A
:1043D0000CDBB4F9100010F5C87F07DCB4F912004B
:1043E000FFF7E4FDC82801DC012000E00020814641
:1043F000B9F1000F10D0608D2946FFF751FE60859E
:10440000608DB0F5967F09DB012120200155042144
:104410002046FFF768FE01E0002060852046FFF798
:10442000B1FE00BF4CE7000010B50120FFF722FDF0
:1044300001210846FFF77FFDFFF7EAF90B490C4819
:10444000FFF7DAFE4FF4FA7300224FF439710120BE
:10445000FFF784FD4FF439700649088000200649B3
:10446000088001200549087010BD0000025D0008A9
:1044700030030020E0000020E2000020E4000020E3
:1044800000B58BB00E4906A8FFF7ACFE9DF82600DC
:10449000BDF82010BDF91E20BDF91C30CDE9013258
:1044A000CDE90310BDF91A000090BDF822309DF847
:1044B000182004A10020FEF7A6FC0BB000BD0000F0
:1044C0003003002054332C73746174653D25752CC2
:1044D000743D25752C783D25642C763D25642C741F
:1044E00061726765743D25642C736572766F3D2536
:1044F000752C63616D3D25750D0A000070B586B0A1
:104500003A4901A8FFF76EFEBDF80E004FF47A712C
:10451000B0FBF1F4BDF80E00B0FBF1F201FB1200AC
:104520000A21B0FBF1F59DF8040000F07BF8064687
:10453000324601210846FEF7C8F92DA201210220CA
:10454000FEF7C3F9BDF906000A2190FBF1F604233A
:10455000324603210220FEF785F926A20821022017
:10456000FEF7B3F9BDF90A000A2190FBF1F6042326
:1045700032460220FEF776F91FA201210320FEF742
:10458000A4F9BDF908000A2190FBF1F60423324694
:1045900003210846FEF766F918A208210320FEF75A
:1045A00094F9BDF80C2004230A210320FEF738F902
:1045B0009DF8120008B112A000E013A002460121EC
:1045C0000420FEF782F90223224607210420FEF789
:1045D00027F90FA209210420FEF777F902232A46C2
:1045E0000A210420FEF71CF906B070BD300300203C
:1045F000583A0000543A0000563A0000533A00007E
:10460000433A5920743A0000433A4E20743A00006D
:104610002E00000010B50248FFF70EFE10BD00008E
:10462000300300200146062910D2DFE801F003051F
:1046300007090B0D06A070470AA0FCE70EA0FAE7D9
:1046400012A0F8E716A0F6E71AA0F4E71EA0F2E71A
:10465000543320574149542020202020202020205E
:104660000000000054332043454E54455220202082
:1046700020202020000000005433202B3530202043
:104680002020202020202020000000005433202D56
:104690003530202020202020202020200000000075
:1046A000543320484F4C442020202020202020201C
:1046B000000000005433204C4F5354202020202071
:1046C000202020200000000054332054494D452074
:1046D00020202020202020200000000010B58CB0D9
:1046E000044600200B900AE001208DF82C009DF874
:1046F00017008DF82D00BDF81400ADF82E0005A8A8
:10470000FFF714F90028EFD122460BA90848FFF75C
:10471000B0FD07496846FFF765FD1422694606A803
:10472000FBF73FFF214606A800F004F80CB010BDCF
:104730003003002070B504460D461748007820B1BC
:10474000208916490988884210D021894FF4FA73CC
:1047500000220120FFF702FC208910490880002078
:104760000F49088001200C49087014E00C480088AB
:10477000284464280AD321894FF4FA7300220120C7
:10478000FFF7ECFB00200649088004E0044800889D
:1047900028440349088070BDE4000020E0000020A8
:1047A000E20000202DE9F84F002000900120FEF7E4
:1047B0006FFD04460220FEF76BFD05460320FEF761
:1047C00067FD80460420FEF763FD81460520FEF765
:1047D0005FFD82460620FEF75BFD83460720FEF75D
:1047E00057FD06460820FEF753FD0746A4B99DB9BC
:1047F000B8F1000F10D1B9F1000F0DD1BAF1000FCF
:104800000AD1BBF1010F07D1012E05D1012F03D130
:104810006FF00E000090E7E0012C12D1012D10D1B5
:10482000B8F1010F0DD1B9F1000F0AD1BAF1000FA3
:1048300007D1BBF1000F04D11EB917B90F200090AA
:10484000D2E02CB925B91EB917B900200090CBE0F1
:10485000012C14D1012D12D1B8F1010F0FD1B9F1F2
:10486000000F0CD1BAF1010F09D1BBF1010F06D134
:10487000012E04D1012F02D1A01E0090B4E0012C22
:1048800014D1012D12D1B8F1000F0FD1B9F1000FE1
:104890000CD1BAF1010F09D1BBF1010F06D1012EE4
:1048A00004D1012F02D1E01E00909DE0012C14D113
:1048B0009DB9B8F1000F10D1B9F1010F0DD1BAF1C6
:1048C000010F0AD1BBF1010F07D1012E05D1012F34
:1048D00003D16FF00700009086E0ACB9012D13D131
:1048E000B8F1010F10D1B9F1010F0DD1BAF1010FDB
:1048F0000AD1BBF1010F07D1012E05D1012F03D140
:104900006FF0090000906FE0012C14D1012D12D13D
:10491000B8F1010F0FD1B9F1010F0CD1BAF1000FAD
:1049200009D1BBF1010F06D1012E04D1012F02D113
:104930000120009058E0012C14D1012D12D1B8F1C2
:10494000010F0FD1B9F1010F0CD1BAF1000F09D14C
:10495000BBF1000F06D1012E04D1012F02D102209C
:10496000009041E0012C13D1012D11D1B8F1010FBC
:104970000ED1B9F1010F0BD1BAF1010F08D1BBF182
:10498000000F05D126B9012F02D1082000902BE09D
:10499000012C13D1012D11D1B8F1010F0ED1B9F1B4
:1049A000010F0BD1BAF1010F08D1BBF1010F05D1F5
:1049B000012E03D117B90A20009015E0012C13D164
:1049C000012D11D1B8F1010F0ED1B9F1000F0BD1AA
:1049D000BAF1000F08D1BBF1010F05D1012E03D1AF
:1049E000012F01D1002000900098FDF7A3FF074997
:1049F00008600A461268C2F17801044A126802F19E
:104A00007800FEF77DFEBDE8F88F0000C4000020AE
:104A100010B50446242C0ED101201949087000203D
:104A200018490870084601780078401C154A107033
:104A30001548445410BD1248007800B9FAE71148EF
:104A40000078642805DB00200D4908700D490870C6
:104A5000F0E70C4801780078401C0A4A10700A48B8
:104A60004454232C09D1104601780748FEF7D6FBA1
:104A70000020034908700349087000BFDAE700000E
:104A80001D0000201E0000208C01002000BF0549F1
:104A9000098801F080010029F9D00249091D088028
:104AA00070470000004800402DE9F04F89B0814672
:104AB0008A46B9F1000F01D11F4C00E01F4C4FEAAC
:104AC0000A1094FBF0FB584600F037FBCDE90401D7
:104AD000504600F01BFB07460022194B00F040FB3C
:104AE00005460E46204600F0C7FE074600F02CFDA6
:104AF0002A463346CDE9000100F0B0F9CDE90201C4
:104B0000DDE9042300F036FCCDE9060100F0C4F82D
:104B100008904FF08341089800F0FAFE089008983A
:104B200000F08AFE00EB0B10064951F829100881AD
:104B300009B0BDE8F08F000000A24A040051250230
:104B400000003040F400002070B504460E461546C3
:104B500034B91448806940F480401249886108E003
:104B60001048C06904F1100101228A4010430D4928
:104B7000C861204600F01AF831462046FFF794FF3E
:104B8000094850F82400808942F22C010843064964
:104B900051F82410888104F12500C1B22846FDF7A0
:104BA000F5FC70BD00100240F400002010B5044672
:104BB00024B1012C0DD0022C21D115E003220921B2
:104BC0000020FEF7EFFB04220A210020FEF7EAFB9B
:104BD00015E0032202210020FEF7E4FB042203215A
:104BE0000020FEF7DFFB0AE003220A210120FEF786
:104BF000D9FB04220B210120FEF7D4FB00BF00BF2C
:104C000010BD000000BF064A52F82020128802F0B2
:104C10004002002AF7D0024A52F8202091807047C3
:104C2000F400002010B504460B4604E013F8011B05
:104C30002046FFF7E7FF18780028F7D110BD0000E5
:104C400010B500290AD00878002807D00548784414
:104C5000FCF728FC002801D0002010BD0248784451
:104C600010BD0000A61800009E18000010B5002915
:104C70000AD00878002807D005487844FCF712FCD1
:104C8000002801D0002010BD0248784410BD00006B
:104C9000961800008E18000021F00042A2F1605228
:104CA000B2F5801F01F0004328BFD2F17F6C0BD911
:104CB0005FEA001C43EAC20242EB507018BF704723
:104CC00028BF20F001007047B2F5801FBCBF184616
:104CD00070474FEA410C1CF5001F02D2084600F055
:104CE000DEBE70B500F0E6FA00000089FFF7F6BFFF
:104CF0004FF00040A0F580007047000010B591EA29
:104D0000030F48BF83F0004300F13C83841A71EB2A
:104D1000030C05D2121943EB0C03001B61EB0C01D1
:104D2000DFF824E14FEA1154A4EB135C1EEA430FB1
:104D300018BF9EEA445F73D023EA0E03DCF1200E15
:104D400021EA045143F4801332D322FA0CFE10EB13
:104D50000E0023FA0CFE41EB0E01CCF1200E03FAFB
:104D60000EFE10EB0E0051F10001B1F5801FCCF1E9
:104D7000200E32D201EB045112FA0EF2BDE81040BF
:104D800058BF7047401C38BF5FEA420218BF7047E7
:104D9000002814BF20F0010041F100014FEA410357
:104DA00013F5001F38BF7047A1F1C04100F0D0BA21
:104DB000012A43EB0302ACF1200CDCF11F0E32BFE1
:104DC0004FF0000E23FA0CF310EB030041EB0451FB
:104DD000B4EB115FD0D0A1EB045101F5801149086B
:104DE0005FEA300001EB04510ED350F1000038BFF0
:104DF00012FA0EFE08D1BDE81040C9E7401C38BFCA
:104E00005FEA4202CAD1C3E7BDE810404FEA41035E
:104E100013F5001F38BF7047A1F1C04100F098BAE8
:104E20009EEA445F08D011EA5E0FBDE8104004BF5F
:104E300001F0004100207047BDE8104070B500F05F
:104E400039FA00BF64FBBE3E0000E0FF02494FF0AC
:104E5000000000F0DEBE00BF0000F87F2DE9C04179
:104E600030B4DFF8A0C23CEA111418BF3CEA1314B6
:104E700000F0EC8081EA03051CEA111444EAD574C1
:104E800018BF1CEA131500F0C780A4EB05044FF00F
:104E9000004545EAC12145EAC32341EA505143EAAE
:104EA000525304F17F74994204F500344FEAC02054
:104EB0004FEAC22208BF904200F09C804FEA13657F
:104EC0000FF24016765D4FEA134506FB05F7C7F172
:104ED000807706FB07F74FEAD737A7FB03687642D0
:104EE000C8F58038A7FB06CE38BFA8F1010807FB3C
:104EF00008E64FF0000EA6FB028CE6FB03CEDCF1C9
:104F0000000CCEF1004E38BFAEF1010EA6FB0C58DE
:104F10004FF000074FF00005E6FB0E87A1FB08C627
:104F2000A0FB07CE16EB0E0645F10005E1FB076579
:104F300015F1E04E7EBFA4F580345FEA46066D4170
:104F400016F1800745F100054FEA17274FEA06667C
:104F500047EA0567A6F1DE46B6F1805F4FEA152500
:104F60001FD9384624F0010C05EBC471BCF1FE6F6B
:104F700001EB0C1102D8F0BCBDE8008124425CBFFB
:104F800001F5801E9EEAC47F02D4F0BCBDE800811A
:104F9000244238D4F0BCA1F1C041BDE8004100F08A
:104FA000D7B94FEAD22242EA43524FEAD323A7FBB2
:104FB00002864FEAD02040EA415007FB03661EEA12
:104FC0000E0F4FEAD12105FB026658BFA6EB005633
:104FD000B6EB00564FEA520E4EEAC37E18EB0E0EA9
:104FE00056EB530EBDD518EB02085E417F1C55F100
:104FF0000005B6E74FF480154FF000074FF00006AC
:105000004FF00008ADE7F0BC4FF0000001F1C041E7
:1050100001F00041BDE8008111EA0C1F0CEA1315F4
:1050200000D00CE013EA0C1F00F025804FF00000C8
:10503000F0BC81EA030101F00041BDE80081F0BC51
:10504000BDE8004181EA030100F082B9F0BCBDE88F
:10505000004170B500F02EF9097EFC3E00F007B863
:1050600081EA03014FF0000001F00041704781EA3E
:10507000030100F06DB9F0BCBDE800414FF0000045
:1050800021497047FFFDFBF9F7F5F4F2F0EEEDEB87
:10509000E9E8E6E4E3E1E0DEDDDBDAD8D7D5D4D336
:1050A000D1D0CFCDCCCBCAC8C7C6C5C4C2C1C0BF82
:1050B000BEBDBCBBBAB9B8B7B6B5B4B3B2B1B0AF88
:1050C000AEADACABAAA9A8A8A7A6A5A4A3A3A2A16C
:1050D000A09F9F9E9D9C9C9B9A9999989797969527
:1050E00095949393929191908F8F8E8E8D8C8C8BC3
:1050F0008B8A89898888878786858584848383824B
:10510000828181800000FF070000F87F10F00042DC
:1051100048BF4042B0FA80F310FA03F10AD0C3F15D
:105120001D0303F580634FEA415002EB035202EB8B
:10513000D12170474FF000007047B0FA80F310FAA9
:1051400003F10AD0C3F11D0303F580634FEA415018
:105150004FEA035202EBD12170474FF00000704735
:10516000DFF848C170B51CEA111E1EBF1CEA1315FA
:105170009EEA0C0F95EA0C0F00F06F8081EA0304A1
:1051800023EA4C134EEAD47E21EA4C1141F48011FB
:1051900043F48013AE44A1FB024CA0FB0365AEF1C7
:1051A0007F7E361955EB0C05A1FB034C4CF1000337
:1051B000A0FB021C16EB0C06654153F100030942EB
:1051C00018BF46F0010613F4007F0BD14FEA0331FC
:1051D0004FEA0530340341EA155140EA16506FF0AA
:1051E00003020AE04FEAC3214FEAC520F40241EA74
:1051F000555140EA56506FF0020202EB2E4201EB8D
:10520000025585EACE710AD05FEA440C18BF24F03B
:10521000004450F1000041F1000120EAD47040F256
:10522000FE7C624500D270BDA84214BF4FF080449E
:105230004FF04044002E08BF0024BEF1806FA8BF8D
:10524000A1F1C041BDE8704080F282804FF00000C3
:1052500001F1C04101F0004170479EEA0C0F0CEAD9
:10526000131518BF95EA0C0F06D04FF0000081EA25
:10527000030E0EF0004170BD00F01CF88900013EE5
:1052800000F007B800F009B84FEA430C5FEA5C5C35
:1052900008D081EA030100F05BB84FEA410C5FEAF5
:1052A0005C5CF6D14FF00000014970470000FF0739
:1052B0000000F87F0EF1020E2EF0030E5EF8046B74
:1052C000364205D4012A43EB030515F5001F12D819
:1052D000012841EB010C1CF5001F0CD80ED14FEA40
:1052E000D17C15F5001F0CEB4C0C0CF1020C08BF27
:1052F0004CEBD37C04E04FF0080C01E04FEAD37C88
:105300000CEB4C0526FA05F606F00706B6F1040C80
:1053100006D20EEB860CBDE870404CF0010C6047E5
:10532000DFE80CF0090B02024FF000414FF00000E3
:10533000A1F5002170BD19461046012851EB01046A
:1053400018BFD4F5001484BF002001F0004170BDE7
:105350000808A0F500114FEA3101704791EA030FE8
:1053600010B581F000413FF5D1AC83F0004300F06F
:1053700009B8000010B591EA030F48BF83F000435D
:105380003FF5C4AC841A71EB030C07D212198CF0F0
:10539000004C43EB0C03001B61EB0C01DFF8A4E1B4
:1053A0004FEA1154A4EB135C1EEA430F18BF9EEAA8
:1053B000445F00F0B08023EA6E03524221EA0451B8
:1053C000C3EB6E0338BF5B1EDCF1200E25D322FA3F
:1053D0000CFE10EB0E0043FA0CFE41EB0E01CCF17B
:1053E000200E03FA0EFE10EB0E0051F10001CCF17D
:1053F000200E29D412FA0EF201EB0451BDE8104040
:1054000058BF7047401C1CBFB2F1004F70470028C6
:105410000CBF491C20F00100704712EB020E43EB59
:10542000030218BF4FF0010E4EEA4202ACF1200C0D
:10543000DCF11E0E54D943FA0CFE10EB0E0051F1B4
:10544000FF31CCF11E0ED5D50EF1010E12FA0EFE73
:10545000404141EB010101EB445C5FEA5C5C10D927
:1054600010EBDE7001EB045138BFBEF1004FBDE818
:10547000104018BF704700280CBF491C20F00100E5
:10548000704730D24FEAD42C11F5001124F4006497
:105490001BD0B1FA81F20B3AA41AA41ED2F1200358
:1054A000914030FA03F31943904001EBCC71002C8A
:1054B00001EB0451BDE81040A8BF704701F1C041A5
:1054C0004FF0000001F000417047B0FA80F310FA8D
:1054D00003F100D110BDE41A173C4805C90AE4E7FE
:1054E00001EB045110BD491001EB0451BDE810401F
:1054F0004FEA300002E04FF0000170474A0008BF59
:105500000042F8D0B2F5001F28BF704701F00041FB
:105510004FF0000070479EEA445F07D011EA5E0F2B
:10552000BDE8104004BF002100207047BDE81040D6
:1055300070B5FFF7BFFE00BF40DFF63E83F00041CD
:10554000104670470000E0FF43004FEAD30C4FEADB
:105550003C0C43401FBF40070CF1605113F0FE4F5D
:1055600070471CF0006F03D100200CF00041704721
:105570000CF0004343EA507010B540EACC0000F054
:1055800048FA00BF000000924FEA0001FFF7E0BEBA
:105590004FF000414FF00000A1F5002170470000DE
:1055A00090EA010F48BF81F0004100F1C082421A29
:1055B0003CBF801A89184FEAD0524FF07F4C1CEA4A
:1055C000410FA2EBD15318BF9CEA026F00F03B8061
:1055D0004FF0004C4CEA00204CEA012121FA03FC78
:1055E00010EB0C0C1ED202F1FF325FEA1C2040EBE4
:1055F000C25038BF70471CF07F0F4FEA400C18BFF5
:10560000BCF17F4F38BF7047C3F12003994008BFFA
:1056100020F00100BCF17F4F38BF7047A0F1C040BF
:1056200000F03DBA4FEA3C00000A40EBC25028BFF0
:105630001CF0FF0F4FEA400CE6D018BFBCF17F4FC3
:1056400038BF7047EAE79CEA026F05D010EA5C0FAA
:1056500008BF00F00040704710B500F0DAF900BF55
:1056600064FBBE3E401058BFC0F14040491058BFD7
:10567000C1F140418142EFF3008070474FF47F0C4D
:105680001CEAD0121EBF1CEAD11392EA0C0F93EA57
:105690000C0F00F0858090EA010F48BF42F4807241
:1056A00040F4000C41F400002CF07F4120F07F40DA
:1056B00000B58142A2EB03020FF2081CACEB504E86
:1056C000C0F100009EF800E04FEA4E0E00FB0EFC19
:1056D00038BF49004FEA2C1C02F5FA020CFB0EF30E
:1056E0004FEACE1E4FEA112C4FEAC1210EEB635E4A
:1056F00042EB22420EFB0CFC4FEA1C5300FB031151
:105700004FEA112C4FEA01310EFB0CFC4FEADC4C46
:1057100000FB0C11C14228BF09184CEB03335DF8A4
:1057200004EB10EB410143EBC250B2F57C0F38BFE4
:10573000704729D512F0F00F1CBF00F1C04000F0F7
:1057400000407047008182838485868788898B8C9E
:105750008D8E8F919293959697999A9C9D9FA0A2DA
:10576000A3A5A7A8AAACAEB0B2B3B5B7B9BCBEC02A
:10577000C2C5C7C9CCCED1D4D7D9DCDFE2E6E9ECCB
:10578000F0F3F7FAFE0000004FEA400C0CF1807CC9
:10579000BCF17E4F28BF7047B0F1C04000F07FB928
:1057A00090EA010F0CEAD11348BF42F480726245BF
:1057B00038BF634507D213F47F0F16D080EA01008B
:1057C00000F00040704710B500F023F9097EFC3E60
:1057D00000F005B880EA010000F00040704780EA60
:1057E000010000F0004000F05AB912F47F0F04BF2E
:1057F0000248704780EA010000F051B90000C07F04
:1058000041000B0ED3F19E0208D950F400034FEA79
:10581000032323FA02F048BF4042704710B500F05E
:10582000F8F800BF49922480002070476FF00042D2
:1058300082EA200070470000C10DD1F19E0206DB14
:105840004FEA002343F0004323FA02F0704700427E
:1058500007D54FEA4001B1F1FE4F02D24FF00000F0
:10586000704710B500F0D5F84992248000207047A9
:105870006FEA20007047000010F0004148BF40422E
:10588000B0FA80F310FA03F2C3F19D030BD051EA92
:10589000C35101EB1220530638BF704700F10100DD
:1058A00008BF20F00100704750EA010C00F113809E
:1058B0001CF5000F58BFBCF5000F01D4884270479B
:1058C00007D710F5000F58BF11F5000F15D4884207
:1058D0007047894270471CF5000F04D5BCF5000FD6
:1058E000F7D5814270474FF0807C1CEB400F38BFEA
:1058F0001CEB410F01D28142704710B500F089F8CE
:10590000922449004FF000504FF08051FFF7AABE9B
:105910004FF47F0C1CEAD0121EBF1CEAD11392EA8E
:105920000C0F93EA0C0F00F0478090EA010F48BF7C
:1059300042F480724FF0004C4CEA00204CEA012106
:1059400002EB0302A0FB0113A2F50002002918BF1D
:1059500043F001035B0028BF4FEA330342EB2242CE
:105960005FEA132C4CEBC2502EBFBCEB436FB2F579
:105970007C0F70474FEA036CBCF1004F08BF20F06A
:105980000100B2F57C0F38BF70470BD582F0FF02E3
:1059900012F5803FC8BF704700F1C040D8BF00F08B
:1059A0000040704700F5000C5FEA4C0C48BF7047A0
:1059B000B0F1C04000F073B890EA010F0CEAD113C7
:1059C00048BF42F48072624538BF634504D280EA22
:1059D000010000F00040704710B500F01AF800BF59
:1059E0008900013E00F007B800F009B85FEA410CF9
:1059F0005FEA1C6C08D080EA010000F050B85FEA52
:105A0000400C5FEA1C6CF6D14FF00040A0F580001E
:105A100070470EF1020E2EF0030E5EF8044B244286
:105A200004D44FEA4102B2F17F4F11D84FEA40034C
:105A3000B3F17F4F0CD80ED14FEAD07CB2F17F4F3B
:105A40000CEB4C0C0CF1020C08BF4CEBD17C04E0CD
:105A50004FF0080C01E04FEAD17C0CEB4C0324FA28
:105A600003F404F00704B4F1040C06D20EEB840C2A
:105A7000BDE810404CF0010C6047DFE80CF007086F
:105A800002024FF00040A0F5800010BD0846420021
:105A900018BFD2F1807288BF00F0004010BDFF2116
:105AA00041EAD050C005704751EA000C00F1138064
:105AB0001CF5000F58BFBCF5000F01D481427047A0
:105AC00007D711F5000F58BF10F5000F15D481420C
:105AD0007047894270471CF5000F04D5BCF5000FD4
